{"contracts/PredictionMarketFactory.sol":{"PredictionMarketFactory":{"abi":[{"inputs":[{"internalType":"address","name":"_feeRecipient","type":"address"},{"internalType":"uint16","name":"_platformFeeBps","type":"uint16"},{"internalType":"address","name":"_token","type":"address"}],"stateMutability":"nonpayable","type":"constructor"},{"inputs":[],"name":"BackdatedMarket","type":"error"},{"inputs":[],"name":"InvalidDuration","type":"error"},{"inputs":[],"name":"InvalidEndTime","type":"error"},{"inputs":[],"name":"InvalidFee","type":"error"},{"inputs":[],"name":"InvalidRecipient","type":"error"},{"inputs":[],"name":"ResolverNotApproved","type":"error"},{"inputs":[],"name":"Unauthorized","type":"error"},{"anonymous":false,"inputs":[{"indexed":true,"internalType":"address","name":"marketAddress","type":"address"},{"indexed":true,"internalType":"address","name":"creator","type":"address"},{"indexed":true,"internalType":"address","name":"resolver","type":"address"},{"indexed":false,"internalType":"string","name":"question","type":"string"},{"indexed":false,"internalType":"uint16","name":"category","type":"uint16"},{"indexed":false,"internalType":"enum MarketType","name":"marketType","type":"uint8"},{"indexed":false,"internalType":"uint256","name":"endTime","type":"uint256"}],"name":"MarketCreated","type":"event"},{"anonymous":false,"inputs":[{"indexed":true,"internalType":"address","name":"resolver","type":"address"}],"name":"ResolverApproved","type":"event"},{"anonymous":false,"inputs":[{"indexed":true,"internalType":"address","name":"resolver","type":"address"}],"name":"ResolverRevoked","type":"event"},{"inputs":[],"name":"MAX_FEE_BPS","outputs":[{"internalType":"uint16","name":"","type":"uint16"}],"stateMutability":"view","type":"function"},{"inputs":[],"name":"allMarketsLength","outputs":[{"internalType":"uint256","name":"","type":"uint256"}],"stateMutability":"view","type":"function"},{"inputs":[{"internalType":"address","name":"resolver","type":"address"}],"name":"approveResolver","outputs":[],"stateMutability":"nonpayable","type":"function"},{"inputs":[{"internalType":"address","name":"","type":"address"}],"name":"approvedResolvers","outputs":[{"internalType":"bool","name":"","type":"bool"}],"stateMutability":"view","type":"function"},{"inputs":[{"components":[{"internalType":"enum MarketType","name":"marketType","type":"uint8"},{"internalType":"address","name":"creator","type":"address"},{"internalType":"address","name":"resolver","type":"address"},{"internalType":"address","name":"feeRecipient","type":"address"},{"internalType":"uint16","name":"platformFeeBps","type":"uint16"},{"internalType":"string","name":"question","type":"string"},{"internalType":"string","name":"description","type":"string"},{"internalType":"uint16","name":"category","type":"uint16"},{"internalType":"uint16","name":"subcategory","type":"uint16"},{"internalType":"uint64","name":"endTime","type":"uint64"}],"internalType":"struct MarketCreationData","name":"marketCreationData","type":"tuple"}],"name":"createBinaryMarket","outputs":[{"internalType":"address","name":"market","type":"address"}],"stateMutability":"nonpayable","type":"function"},{"inputs":[],"name":"feeRecipient","outputs":[{"internalType":"address","name":"","type":"address"}],"stateMutability":"view","type":"function"},{"inputs":[],"name":"getTotalMarketCount","outputs":[{"internalType":"uint256","name":"","type":"uint256"}],"stateMutability":"view","type":"function"},{"inputs":[],"name":"maxMarketDuration","outputs":[{"internalType":"uint32","name":"","type":"uint32"}],"stateMutability":"view","type":"function"},{"inputs":[],"name":"minMarketDuration","outputs":[{"internalType":"uint24","name":"","type":"uint24"}],"stateMutability":"view","type":"function"},{"inputs":[],"name":"owner","outputs":[{"internalType":"address","name":"","type":"address"}],"stateMutability":"view","type":"function"},{"inputs":[],"name":"platformFeeBps","outputs":[{"internalType":"uint16","name":"","type":"uint16"}],"stateMutability":"view","type":"function"},{"inputs":[{"internalType":"address","name":"resolver","type":"address"}],"name":"revokeResolver","outputs":[],"stateMutability":"nonpayable","type":"function"},{"inputs":[{"internalType":"uint24","name":"duration","type":"uint24"}],"name":"setMaxMarketDuration","outputs":[],"stateMutability":"nonpayable","type":"function"},{"inputs":[{"internalType":"uint24","name":"duration","type":"uint24"}],"name":"setMinMarketDuration","outputs":[],"stateMutability":"nonpayable","type":"function"},{"inputs":[{"internalType":"address","name":"_token","type":"address"}],"name":"setNewToken","outputs":[],"stateMutability":"nonpayable","type":"function"},{"inputs":[],"name":"token","outputs":[{"internalType":"address","name":"","type":"address"}],"stateMutability":"view","type":"function"},{"inputs":[{"internalType":"address","name":"newOwner","type":"address"}],"name":"transferOwnership","outputs":[],"stateMutability":"nonpayable","type":"function"},{"stateMutability":"payable","type":"receive"}],"evm":{"bytecode":{"linkReferences":{},"object":"60806040526000805466ffffffffffffff60b01b1916651e13380000e160b41b17905534801561002e57600080fd5b50604051614f9a380380614f9a83398101604081905261004d9161016f565b6001600160a01b03831661009c5760405162461bcd60e51b8152602060048201526011602482015270125b9d985b1a59081c9958da5c1a595b9d607a1b60448201526064015b60405180910390fd5b6101f461ffff831611156100e15760405162461bcd60e51b815260206004820152600c60248201526b08ccaca40e8dede40d0d2ced60a31b6044820152606401610093565b6000805460028054336001600160a01b03199182168117909255600180549091166001600160a01b03978816178155939095166001600160b01b031990911617600160a01b61ffff9490941693909302929092178255918152600460205260409020805460ff191690911790556101bb565b80516001600160a01b038116811461016a57600080fd5b919050565b60008060006060848603121561018457600080fd5b61018d84610153565b9250602084015161ffff811681146101a457600080fd5b91506101b260408501610153565b90509250925092565b614dd0806101ca6000396000f3fe6080604052600436106100d25760003560e01c806322dcd13e146100de578063469048401461011857806351b2939c146101505780635ed411e51461018957806362ee6a4c146101ab578063650db51a146101cb57806388dd46a1146101eb5780638da5cb5b1461020f578063917844cf1461022f57806398178f361461026f578063a0866e1f1461028f578063b6faca34146102a4578063d2bee323146102c4578063d55be8c6146102fb578063d7f25f3e14610311578063f2fde38b14610331578063fc0c546a1461035157600080fd5b366100d957005b600080fd5b3480156100ea57600080fd5b5060005461010090600160a01b900461ffff1681565b60405161ffff90911681526020015b60405180910390f35b34801561012457600080fd5b50600154610138906001600160a01b031681565b6040516001600160a01b03909116815260200161010f565b34801561015c57600080fd5b5060005461017490600160c81b900463ffffffff1681565b60405163ffffffff909116815260200161010f565b34801561019557600080fd5b506101a96101a436600461084d565b610371565b005b3480156101b757600080fd5b506101a96101c636600461084d565b6103bd565b3480156101d757600080fd5b506101a96101e636600461086f565b610452565b3480156101f757600080fd5b5061020160035481565b60405190815260200161010f565b34801561021b57600080fd5b50600254610138906001600160a01b031681565b34801561023b57600080fd5b5061025f61024a36600461084d565b60046020526000908152604090205460ff1681565b604051901515815260200161010f565b34801561027b57600080fd5b506101a961028a36600461086f565b6104a0565b34801561029b57600080fd5b50600354610201565b3480156102b057600080fd5b506101386102bf366004610894565b6104ee565b3480156102d057600080fd5b506000546102e790600160b01b900462ffffff1681565b60405162ffffff909116815260200161010f565b34801561030757600080fd5b506101006101f481565b34801561031d57600080fd5b506101a961032c36600461084d565b6105e7565b34801561033d57600080fd5b506101a961034c36600461084d565b61067d565b34801561035d57600080fd5b50600054610138906001600160a01b031681565b6002546001600160a01b0316331461039b576040516282b42960e81b815260040160405180910390fd5b600080546001600160a01b0319166001600160a01b0392909216919091179055565b6002546001600160a01b031633146103e7576040516282b42960e81b815260040160405180910390fd5b6001600160a01b03811660009081526004602052604090205460ff161561044f576001600160a01b038116600081815260046020526040808220805460ff19169055517f6cc76de175eb7c3679f8d4c3529e23883784a40e1f9d7f54e8a9f97115aab3479190a25b50565b6002546001600160a01b0316331461047c576040516282b42960e81b815260040160405180910390fd5b6000805463ffffffff60c81b191662ffffff92909216600160c81b02919091179055565b6002546001600160a01b031633146104ca576040516282b42960e81b815260040160405180910390fd5b6000805462ffffff909216600160b01b0262ffffff60b01b19909216919091179055565b60006104f982610713565b6000546040516001600160a01b0390911690839061051690610817565b61052192919061099e565b604051809103906000f08015801561053d573d6000803e3d6000fd5b5060038054919250600061055083610ae5565b909155506105669050606083016040840161084d565b6001600160a01b0390811690339083167f56e3d245c95926ec5c008a5377621d0a5694fe93eac7fc7bc299e2a1cd61866d6105a460a0870187610afe565b6105b5610100890160e08a01610b44565b60006105c96101408b016101208c01610b5f565b6040516105da959493929190610b7a565b60405180910390a4919050565b6002546001600160a01b03163314610611576040516282b42960e81b815260040160405180910390fd5b6001600160a01b03811660009081526004602052604090205460ff1661044f576001600160a01b038116600081815260046020526040808220805460ff19166001179055517f09bbbe4e39ad054fe72582f43db1b4b6a33fc5319ed7363d725c6398b9f505599190a250565b6002546001600160a01b031633146106a7576040516282b42960e81b815260040160405180910390fd5b6001600160a01b0381166106f15760405162461bcd60e51b815260206004820152600d60248201526c24b73b30b634b21037bbb732b960991b604482015260640160405180910390fd5b600280546001600160a01b0319166001600160a01b0392909216919091179055565b6000610725606083016040840161084d565b905060004261073c61014085016101208601610b5f565b6001600160401b031661074f9190610bc2565b9050600061076561014085016101208601610b5f565b905042816001600160401b031611610790576040516338af65f760e01b815260040160405180910390fd5b6001600160a01b03831660009081526004602052604090205460ff166107c95760405163d7eb860560e01b815260040160405180910390fd5b600054600160b01b900462ffffff168210806107f35750600054600160c81b900463ffffffff1682115b1561081157604051637616640160e01b815260040160405180910390fd5b50505050565b6141bf80610bdc83390190565b6001600160a01b03169052565b80356001600160a01b038116811461084857600080fd5b919050565b60006020828403121561085f57600080fd5b61086882610831565b9392505050565b60006020828403121561088157600080fd5b813562ffffff8116811461086857600080fd5b6000602082840312156108a657600080fd5b81356001600160401b038111156108bc57600080fd5b8201610140818503121561086857600080fd5b80356004811061084857600080fd5b600481106108fc57634e487b7160e01b600052602160045260246000fd5b9052565b803561ffff8116811461084857600080fd5b6000808335601e1984360301811261092957600080fd5b83016020810192503590506001600160401b0381111561094857600080fd5b80360382131561095757600080fd5b9250929050565b81835281816020850137506000828201602090810191909152601f909101601f19169091010190565b80356001600160401b038116811461084857600080fd5b6001600160a01b03831681526040602082018190526109c79082016109c2846108cf565b6108de565b60006109d560208401610831565b6109e26060840182610824565b506109ef60408401610831565b6109fc6080840182610824565b50610a0960608401610831565b610a1660a0840182610824565b50610a2360808401610900565b61ffff1660c0830152610a3960a0840184610912565b61014060e0850152610a506101808501828461095e565b915050610a6060c0850185610912565b848303603f1901610100860152610a7883828461095e565b92505050610a8860e08501610900565b61ffff16610120840152610a9f6101008501610900565b61ffff16610140840152610ab66101208501610987565b6001600160401b03811661016085015250949350505050565b634e487b7160e01b600052601160045260246000fd5b600060018201610af757610af7610acf565b5060010190565b6000808335601e19843603018112610b1557600080fd5b8301803591506001600160401b03821115610b2f57600080fd5b60200191503681900382131561095757600080fd5b600060208284031215610b5657600080fd5b61086882610900565b600060208284031215610b7157600080fd5b61086882610987565b608081526000610b8e60808301878961095e565b905061ffff85166020830152610ba760408301856108de565b6001600160401b039290921660609190910152949350505050565b81810381811115610bd557610bd5610acf565b9291505056fe61016060405234801561001157600080fd5b506040516141bf3803806141bf83398101604081905261003091610f7d565b61012081015160017f9b779b17422d0df92223018b32b4d1fa46e071723d6817e2486d003becc55f005561271060808190526001600160401b0390911660a081905261007a61022e565b6000556001555050610120810151426001600160401b03909116116100d95760405162461bcd60e51b815260206004820152601060248201526f496e76616c696420656e642074696d6560801b60448201526064015b60405180910390fd5b60208101516001600160a01b03166101255760405162461bcd60e51b815260206004820152600f60248201526e24b73b30b634b21031b932b0ba37b960891b60448201526064016100d0565b60408101516001600160a01b03166101725760405162461bcd60e51b815260206004820152601060248201526f24b73b30b634b2103932b9b7b63b32b960811b60448201526064016100d0565b60608101516001600160a01b03166101cc5760405162461bcd60e51b815260206004820152601560248201527f496e76616c69642066656520726563697069656e74000000000000000000000060448201526064016100d0565b6001600160a01b03821660c05260a08101516003906101eb908261113b565b5060c08101516004906101fe908261113b565b5060208101516001600160a01b0390811660e0526040820151811661010052606090910151166101205250611362565b6000808061023a6102b6565b9050600061024f6706f05b59d3b20000610306565b9050600061025d838361120f565b9050610268826103ac565b610272908461120f565b670de0b6b3a764000061028d6706f05b59d3b200008461120f565b6102979190611255565b6102a19190611283565b93506102ad81856112ab565b94505050509091565b60004260a0516001600160601b031610156102d15750600090565b6102f04260a0516001600160601b03166102eb91906112d2565b61040f565b60805161ffff1661030191906112e5565b905090565b60006706f05b59d3b20000820361031f57506000919050565b670de0b6b3a76400008212610347576040516307a0212760e01b815260040160405180910390fd5b81600003610368576040516322ed598560e21b815260040160405180910390fd5b600061037583600261120f565b9050600061038282610479565b905060006103986713a04bbdfdc9be88836106fa565b90506103a3816112fc565b95945050505050565b600080671bc16d674ec80000836103c2816112fc565b6103cc919061120f565b6103d69190611255565b90506103e18161070f565b90506722c955229554c1b66103fe670de0b6b3a76400008361120f565b6104089190611255565b9392505050565b60008160000361042157506000919050565b60006002610430846001611318565b61043a919061132b565b90508291505b8181101561047357905080600281610458818661132b565b6104629190611318565b61046c919061132b565b9050610440565b50919050565b6000808212806104905750671bc16d674ec8000082135b156104ae57604051632d0483c560e21b815260040160405180910390fd5b816000036104cf576040516307a0212760e01b815260040160405180910390fd5b81671bc16d674ec80000036104f7576040516322ed598560e21b815260040160405180910390fd5b801561050257919050565b6000670de0b6b3a7640000831261052a5761052583671bc16d674ec800006112ab565b61052c565b825b9050600061054282671bc16d674ec800006108c9565b905080600003610565576040516307a0212760e01b815260040160405180910390fd5b6000610570826108de565b90506000633b9aca0061059b610596610590671bc16d674ec800006112fc565b856106fa565b610a97565b6105a5919061120f565b90506000806105bc836703c1665c7aab20006106fa565b6105ce90672005fe4f268ea000611283565b905060006105fe846105e781669f32752462a0006106fa565b6105f990670dc5527f642c2000611283565b6106fa565b61061090670de0b6b3a7640000611283565b90506106346709d028cc6f205fff198561062a85856108c9565b6105f991906112ab565b9250505060005b60028110156106cf5760008661065084610b3b565b61065a91906112ab565b9050600061066884806106fa565b610671906112fc565b9050600061067e8261070f565b9050600061068c86856106fa565b61069e670fa8cedfc2adddfa846106fa565b6106a891906112ab565b90506106b484826108c9565b6106be9087611283565b95508460010194505050505061063b565b670de0b6b3a764000088126106ec576106e7826112fc565b6106ee565b815b98975050505050505050565b60006104088383670de0b6b3a7640000610d20565b6000680248ce36a70cb26b3e19821361072a57506000919050565b680755bf798b4a1bf1e582126107715760405162461bcd60e51b815260206004820152600c60248201526b4558505f4f564552464c4f5760a01b60448201526064016100d0565b6503782dace9d9604e83901b059150600060606bb17217f7d1cf79abc9e3b39884821b056b80000000000000000000000001901d6bb17217f7d1cf79abc9e3b39881029093036c240c330e9fb2d9cbaf0fd5aafb1981018102606090811d6d0277594991cfc85f6e2461837cd9018202811d6d1a521255e34f6a5061b25ef1c9c319018202811d6db1bbb201f443cf962f1a1d3db4a5018202811d6e02c72388d9f74f51a9331fed693f1419018202811d6e05180bb14799ab47a8a8cb2a527d57016d02d16720577bd19bf614176fe9ea6c10fe68e7fd37d0007b713f765084018402831d9081019084016d01d3967ed30fc4f89c02bab5708119010290911d6e0587f503bb6ea29d25fcb7401964500190910279d835ebba824c98fb31b83b2ca45c000000000000000000000000010574029d9dc38563c32e5c2f6dc192ee70ef65f9978af30260c3939093039290921c92915050565b600061040883670de0b6b3a764000084610d20565b60008082136108ff5760405162461bcd60e51b81526004016100d09061133f565b6000606061090c84610d3f565b03609f8181039490941b90931c6c465772b2bbbb5f824b15207a3081018102606090811d6d0388eaa27412d5aca026815d636e018202811d6d0df99ac502031bf953eff472fdcc018202811d6d13cdffb29d51d99322bdff5f2211018202811d6d0a0f742023def783a307a986912e018202811d6d01920d8043ca89b5239253284e42018202811d6c0b7a86d7375468fac667a0a527016c29508e458543d8aa4df2abee7883018302821d6d0139601a2efabe717e604cbb4894018302821d6d02247f7a7b6594320649aa03aba1018302821d6c8c3f38e95a6b1ff2ab1c3b343619018302821d6d02384773bdf1ac5676facced60901901830290911d6cb9a025d814b29c212b8b1a07cd190190910260016c0504a838426634cdd8738f543560611b03190105711340daa0d5f769dba1915cef59f0815a5506027d0267a36c0c95b3975ab3ee5b203a7614a3f75373f047d803ae7b6687f2b393909302929092017d57115e47018c7177eebf7cd370a3356a1b7863008a5ae8028c72b88642840160ae1d92915050565b60b581600160881b8110610ab05760409190911b9060801c5b69010000000000000000008110610acc5760209190911b9060401c5b650100000000008110610ae45760109190911b9060201c5b63010000008110610afa5760089190911b9060101c5b62010000010260121c80820401600190811c80830401811c80830401811c80830401811c80830401811c80830401811c80830401901c908190048111900390565b600081600003610b545750670de0b6b3a7640000919050565b675698eef0667000008212610b6b57506000919050565b610b7c675698eef0667000006112fc565b8213610b915750671bc16d674ec80000919050565b6000610b9c83610dc1565b90506000610bd5670de0b6b3a7640000610bbe84671bc16d674ec80000610e00565b610bd090670de0b6b3a7640000611283565b6108c9565b905060008082610c3181610c1e81610c0c81610bf98167025f0fe105a314006106fa565b6105f990670b68df18e471fbff19611283565b6105f9906714a8454c19e1ac00611283565b6105f990670fc10e01578277ff19611283565b610c43906703debd083b8c7c00611283565b9150839050610cab81610c9981610c8781610c7581610c62818b6106fa565b6105f990670295d400ea3257ff19611283565b6105f990670157d8b2ecc70800611283565b6105f9906705310aa7d5213000611283565b6105f990670de0cc3d15610000611283565b91508167119000ab100ffc00610cc187806106fa565b610ccd9060001961120f565b610cd791906112ab565b610ce19190611283565b925060009050610cf08361070f565b90506000610cfe85836106fa565b905060008812610d0e57806106ee565b6106ee81671bc16d674ec800006112ab565b828202811515841585830585141716610d3857600080fd5b0592915050565b6000808211610d605760405162461bcd60e51b81526004016100d09061133f565b5060016001600160801b03821160071b82811c6001600160401b031060061b1782811c63ffffffff1060051b1782811c61ffff1060041b1782811c60ff10600390811b90911783811c600f1060021b1783811c909110821b1791821c111790565b6000600160ff1b8203610de757604051634d2d75b160e01b815260040160405180910390fd5b6000821215610df857501960010190565b50805b919050565b600061040883670de0b6b3a764000084610e1b565b92915050565b828202811515841585830485141716610e3357600080fd5b0492915050565b80516001600160a01b0381168114610dfb57600080fd5b634e487b7160e01b600052604160045260246000fd5b60405161014081016001600160401b0381118282101715610e8a57610e8a610e51565b60405290565b604051601f8201601f191681016001600160401b0381118282101715610eb857610eb8610e51565b604052919050565b805160048110610dfb57600080fd5b805161ffff81168114610dfb57600080fd5b600082601f830112610ef257600080fd5b81516001600160401b03811115610f0b57610f0b610e51565b610f1e601f8201601f1916602001610e90565b818152846020838601011115610f3357600080fd5b60005b82811015610f5257602081860181015183830182015201610f36565b506000918101602001919091529392505050565b80516001600160401b0381168114610dfb57600080fd5b60008060408385031215610f9057600080fd5b610f9983610e3a565b60208401519092506001600160401b03811115610fb557600080fd5b83016101408186031215610fc857600080fd5b610fd0610e67565b610fd982610ec0565b8152610fe760208301610e3a565b6020820152610ff860408301610e3a565b604082015261100960608301610e3a565b606082015261101a60808301610ecf565b608082015260a08201516001600160401b0381111561103857600080fd5b61104487828501610ee1565b60a08301525060c08201516001600160401b0381111561106357600080fd5b61106f87828501610ee1565b60c08301525061108160e08301610ecf565b60e08201526110936101008301610ecf565b6101008201526110a66101208301610f66565b61012082015280925050509250929050565b600181811c908216806110cc57607f821691505b60208210810361047357634e487b7160e01b600052602260045260246000fd5b601f82111561113657806000526020600020601f840160051c810160208510156111135750805b601f840160051c820191505b81811015611133576000815560010161111f565b50505b505050565b81516001600160401b0381111561115457611154610e51565b6111688161116284546110b8565b846110ec565b6020601f82116001811461119c57600083156111845750848201515b600019600385901b1c1916600184901b178455611133565b600084815260208120601f198516915b828110156111cc57878501518255602094850194600190920191016111ac565b50848210156111ea5786840151600019600387901b60f8161c191681555b50505050600190811b01905550565b634e487b7160e01b600052601160045260246000fd5b80820260008212600160ff1b8414161561122b5761122b6111f9565b8181058314821517610e1557610e156111f9565b634e487b7160e01b600052601260045260246000fd5b6000826112645761126461123f565b600160ff1b82146000198414161561127e5761127e6111f9565b500590565b80820182811260008312801582168215821617156112a3576112a36111f9565b505092915050565b81810360008312801583831316838312821617156112cb576112cb6111f9565b5092915050565b81810381811115610e1557610e156111f9565b8082028115828204841417610e1557610e156111f9565b6000600160ff1b8201611311576113116111f9565b5060000390565b80820180821115610e1557610e156111f9565b60008261133a5761133a61123f565b500490565b60208082526009908201526815539111519253915160ba1b604082015260600190565b60805160a05160c05160e051610100516101205161014051612d5461146b6000396000818161057401528181610b5e0152610ce10152600081816107110152818161160e015281816116c001526116e701526000818161034f01528181610b1e01528181610c9d015261128a0152600081816106dd01528181610c7b01526112bc015260008181610540015281816108ad01528181610a9b0152818161100b015281816115930152818161169e015281816119c601528181611bfe0152611d440152600081816102e10152818161082901528181610cbf01528181611068015281816110ad01528181611119015261177901526000818161048b01526110e00152612d546000f3fe6080604052600436106101cf5760003560e01c806301a9812c146101db57806301c11d96146101fd5780630bede3f81461022c57806316953f021461024c57806323341a051461026257806327793f871461028f57806327c7ff61146102b957806337ba682d146102cf5780633fad9ae01461031b5780634d77532d1461033d5780634e71d92d1461037e578063539aa77f14610393578063587f5ed7146103bb5780635b7c2dad146103d15780636015e9241461044e5780636454c98a14610464578063687d70e3146104795780636aeb42fd146104ad5780637284e416146104d457806373b2e80e146104e9578063776784141461051957806382bfefc81461052e5780638c3769a81461056257806393d0cbb8146105ae57806399839d66146105dc5780639fb2fff4146105f2578063a8910e1114610607578063b5545a3c14610627578063b6d74ca11461063c578063c19d93fb1461065e578063c879657214610685578063d12f70291461069a578063dd4d7bf7146106b6578063e4fbb609146106cb578063ebd09054146106ff578063ee26eed114610733578063efd9f6991461077c578063f957934c1461079c578063fc4b6b50146107bc578063ff0eccf6146107d257600080fd5b366101d657005b600080fd5b3480156101e757600080fd5b506101fb6101f636600461275e565b6107e8565b005b34801561020957600080fd5b50610219670de0b6b3a764000081565b6040519081526020015b60405180910390f35b34801561023857600080fd5b506101fb610247366004612791565b610b13565b34801561025857600080fd5b5061021960075481565b34801561026e57600080fd5b50610277610c52565b6040516102239c9b9a99989796959493929190612839565b34801561029b57600080fd5b506005546102a99060ff1681565b6040519015158152602001610223565b3480156102c557600080fd5b5061021960085481565b3480156102db57600080fd5b506103037f000000000000000000000000000000000000000000000000000000000000000081565b6040516001600160601b039091168152602001610223565b34801561032757600080fd5b50610330610e57565b60405161022391906128e7565b34801561034957600080fd5b506103717f000000000000000000000000000000000000000000000000000000000000000081565b60405161022391906128fa565b34801561038a57600080fd5b50610219610ee5565b34801561039f57600080fd5b506103a8600a81565b60405161ffff9091168152602001610223565b3480156103c757600080fd5b5061021960095481565b3480156103dd57600080fd5b506104336103ec366004612925565b6040805180820190915260008082526020820152506001600160a01b03166000908152600a6020908152604091829020825180840190935280548352600101549082015290565b60408051825181526020928301519281019290925201610223565b34801561045a57600080fd5b506103a861271081565b34801561047057600080fd5b50610219611063565b34801561048557600080fd5b506103a87f000000000000000000000000000000000000000000000000000000000000000081565b3480156104b957600080fd5b506104c2601281565b60405160ff9091168152602001610223565b3480156104e057600080fd5b5061033061110a565b3480156104f557600080fd5b506102a9610504366004612925565b600b6020526000908152604090205460ff1681565b34801561052557600080fd5b506101fb611117565b34801561053a57600080fd5b506103717f000000000000000000000000000000000000000000000000000000000000000081565b34801561056e57600080fd5b506105967f000000000000000000000000000000000000000000000000000000000000000081565b6040516001600160401b039091168152602001610223565b3480156105ba57600080fd5b506105ce6105c9366004612940565b6111c1565b60405161022392919061296a565b3480156105e857600080fd5b5061021960015481565b3480156105fe57600080fd5b506101fb61127f565b34801561061357600080fd5b506105ce610622366004612940565b611395565b34801561063357600080fd5b5061021961144f565b34801561064857600080fd5b506106516115ed565b604051610223919061297e565b34801561066a57600080fd5b506002546106789060ff1681565b604051610223919061298c565b34801561069157600080fd5b506101fb611603565b3480156106a657600080fd5b506102196706f05b59d3b2000081565b3480156106c257600080fd5b506103a8601e81565b3480156106d757600080fd5b506103717f000000000000000000000000000000000000000000000000000000000000000081565b34801561070b57600080fd5b506103717f000000000000000000000000000000000000000000000000000000000000000081565b34801561073f57600080fd5b5061076761074e366004612925565b600a602052600090815260409020805460019091015482565b60408051928352602083019190915201610223565b34801561078857600080fd5b506101fb61079736600461299a565b611740565b3480156107a857600080fd5b506106516107b73660046129e0565b611a35565b3480156107c857600080fd5b5061021960005481565b3480156107de57600080fd5b5061021960065481565b6107f0611aa1565b600060025460ff166003811115610809576108096127f2565b146108275760405163032bd25960e41b815260040160405180910390fd5b7f00000000000000000000000000000000000000000000000000000000000000006001600160601b031642106108705760405163032bd25960e41b815260040160405180910390fd5b6000600154138015610883575060008054135b6108a0576040516398cf49f960e01b815260040160405180910390fd5b6108d56001600160a01b037f000000000000000000000000000000000000000000000000000000000000000016333085611abc565b6108dd612734565b60008060008615610954576108f06115ed565b51336000908152600a6020526040812080549295508792909190610915908490612a18565b909155506109269050600186611aef565b9050846007600082825461093a9190612a18565b9091555061094890506115ed565b805190945091506109c5565b61095c6115ed565b602090810151336000908152600a90925260408220600101805491955087929091610988908490612a18565b909155506109999050600186611b6f565b905084600860008282546109ad9190612a18565b909155506109bb90506115ed565b9350836020015191505b6000671bc16d674ec80000866109db8587612a2b565b6109e59190612a53565b6109ef9190612a99565b905060006109fc82611bf1565b905087811115610a275760405162461bcd60e51b8152600401610a1e90612ac7565b60405180910390fd5b6000610a33828a612af5565b905060006064610a44600a85612b08565b610a4e9190612b1f565b90508060096000828254610a629190612a18565b9091555060009050610a748285612af5565b90508060066000828254610a889190612a18565b90915550610ac390506001600160a01b037f000000000000000000000000000000000000000000000000000000000000000016303386611abc565b600115158c1515336001600160a01b0316600080516020612cff8339815191528d898e604051610af593929190612b33565b60405180910390a4505050505050505050610b0e611c9d565b505050565b336001600160a01b037f00000000000000000000000000000000000000000000000000000000000000001614610b5c576040516346f8307960e11b815260040160405180910390fd5b7f00000000000000000000000000000000000000000000000000000000000000006001600160401b0316421015610ba65760405163dbbd737760e01b815260040160405180910390fd5b600160025460ff166003811115610bbf57610bbf6127f2565b1480610be15750600060025460ff166003811115610bdf57610bdf6127f2565b145b610bfe5760405163d3c2781360e01b815260040160405180910390fd5b6005805482151560ff19918216811790925560028054909116811790556040514281527ff680d0bd10cbd56c6089965028487f8751c5e7485ee076c45e809af3357408b3906020015b60405180910390a250565b606080600080600080600080610c66612734565b600254600554600091829182916003916004917f0000000000000000000000000000000000000000000000000000000000000000917f0000000000000000000000000000000000000000000000000000000000000000917f0000000000000000000000000000000000000000000000000000000000000000917f00000000000000000000000000000000000000000000000000000000000000009160ff9081169116610d106115ed565b6001546000546006548b8054610d2590612b56565b80601f0160208091040260200160405190810160405280929190818152602001828054610d5190612b56565b8015610d9e5780601f10610d7357610100808354040283529160200191610d9e565b820191906000526020600020905b815481529060010190602001808311610d8157829003601f168201915b50505050509b508a8054610db190612b56565b80601f0160208091040260200160405190810160405280929190818152602001828054610ddd90612b56565b8015610e2a5780601f10610dff57610100808354040283529160200191610e2a565b820191906000526020600020905b815481529060010190602001808311610e0d57829003601f168201915b50505050509a509b509b509b509b509b509b509b509b509b509b509b509b50909192939495969798999a9b565b60038054610e6490612b56565b80601f0160208091040260200160405190810160405280929190818152602001828054610e9090612b56565b8015610edd5780601f10610eb257610100808354040283529160200191610edd565b820191906000526020600020905b815481529060010190602001808311610ec057829003601f168201915b505050505081565b60006002805460ff166003811115610eff57610eff6127f2565b14610f1d57604051631f5fa88f60e01b815260040160405180910390fd5b336000908152600b602052604090205460ff1615610f4e576040516372335eed60e11b815260040160405180910390fd5b336000908152600a60209081526040808320815180830190925280548252600101549181019190915260055490919060ff16610f8e578160200151610f91565b81515b905060008111610fb4576040516335ff3c3d60e01b815260040160405180910390fd5b60055460009060ff16610fc957600854610fcd565b6007545b90508060065483610fde9190612b08565b610fe89190612b1f565b336000818152600b60205260409020805460ff1916600117905590945061103a907f00000000000000000000000000000000000000000000000000000000000000006001600160a01b03169086611caa565b6040518481523390600080516020612cdf8339815191529060200160405180910390a250505090565b6000427f00000000000000000000000000000000000000000000000000000000000000006001600160601b0316101561109c5750600090565b6110d76110d2426001600160601b037f000000000000000000000000000000000000000000000000000000000000000016612af5565b611cd6565b6111059061ffff7f000000000000000000000000000000000000000000000000000000000000000016612b08565b905090565b60048054610e6490612b56565b7f00000000000000000000000000000000000000000000000000000000000000006001600160601b03164210156111615760405163dbbd737760e01b815260040160405180910390fd5b600060025460ff16600381111561117a5761117a6127f2565b146111b25760405162461bcd60e51b81526020600482015260086024820152672737ba1037b832b760c11b6044820152606401610a1e565b6002805460ff19166001179055565b60006111cb612734565b600060646111da600a86612b08565b6111e49190612b1f565b6111ee9085612af5565b905060006111fb82611d40565b90506000866112155761120c6115ed565b6020015161121f565b61121d6115ed565b515b90508061123483670de0b6b3a7640000612b08565b61123e9190612b1f565b94506000808861125857611253600188611de1565b611263565b611263600188611e4a565b915091506112718282611a35565b955050505050509250929050565b336001600160a01b037f00000000000000000000000000000000000000000000000000000000000000001614806112de5750336001600160a01b037f000000000000000000000000000000000000000000000000000000000000000016145b6112fb576040516346f8307960e11b815260040160405180910390fd5b600060025460ff166003811115611314576113146127f2565b14806113365750600160025460ff166003811115611334576113346127f2565b145b6113535760405163d3c2781360e01b815260040160405180910390fd5b6002805460ff191660031790556040514281527f779930c12b48b4572593a312874338451f0d7aac5b8892b4503694a25cbcdb4e9060200160405180910390a1565b600061139f612734565b6000846113b7576113ae6115ed565b602001516113c1565b6113bf6115ed565b515b9050600080866113db576113d6600087611de1565b6113e6565b6113e6600087611e4a565b915091506113f48282611a35565b935060008761140757846020015161140a565b84515b90506000671bc16d674ec80000886114228785612a2b565b61142c9190612a53565b6114369190612a99565b905061144181611d40565b965050505050509250929050565b6000600360025460ff16600381111561146a5761146a6127f2565b146114ac5760405162461bcd60e51b815260206004820152601260248201527113585c9ad95d081b9bdd081a5b9d985b1a5960721b6044820152606401610a1e565b336000908152600b602052604090205460ff16156114dd576040516372335eed60e11b815260040160405180910390fd5b336000908152600a60209081526040918290208251808401909352805480845260019091015491830182905290811515806115185750600081115b611535576040516335ff3c3d60e01b815260040160405180910390fd5b60006115418284612a18565b905060006008546007546115559190612a18565b905080600654836115669190612b08565b6115709190612b1f565b336000818152600b60205260409020805460ff191660011790559096506115c2907f00000000000000000000000000000000000000000000000000000000000000006001600160a01b03169088611caa565b6040518681523390600080516020612cdf8339815191529060200160405180910390a2505050505090565b6115f5612734565b611105600154600054611a35565b336001600160a01b037f0000000000000000000000000000000000000000000000000000000000000000161461164c576040516346f8307960e11b815260040160405180910390fd5b6000600954116116885760405162461bcd60e51b81526020600482015260076024820152664e6f206665657360c81b6044820152606401610a1e565b6009805460009091556116e56001600160a01b037f0000000000000000000000000000000000000000000000000000000000000000167f000000000000000000000000000000000000000000000000000000000000000083611caa565b7f00000000000000000000000000000000000000000000000000000000000000006001600160a01b03167f9dc46f23cfb5ddcad0ae7ea2be38d47fec07bb9382ec7e564efc69e036dd66ce82604051610c4791815260200190565b600060025460ff166003811115611759576117596127f2565b146117775760405163032bd25960e41b815260040160405180910390fd5b7f00000000000000000000000000000000000000000000000000000000000000006001600160601b031642106117c05760405163032bd25960e41b815260040160405180910390fd5b600083116117e15760405163655cf03160e11b815260040160405180910390fd5b60008461180057336000908152600a6020526040902060010154611811565b336000908152600a60205260409020545b90508381116118585760405162461bcd60e51b8152602060048201526013602482015272496e73756666696369656e742073686172657360681b6044820152606401610a1e565b611860612734565b600080600088156118d7576118736115ed565b51336000908152600a6020526040812080549295508a92909190611898908490612af5565b909155506118a99050600089611aef565b905087600760008282546118bd9190612af5565b909155506118cb90506115ed565b80519094509150611948565b6118df6115ed565b602090810151336000908152600a9092526040822060010180549195508a92909161190b908490612af5565b9091555061191c9050600089611b6f565b905087600860008282546119309190612af5565b9091555061193e90506115ed565b9350836020015191505b6000671bc16d674ec800008961195e8587612a2b565b6119689190612a53565b6119729190612a99565b9050600061197f82611d40565b9050888111156119a15760405162461bcd60e51b8152600401610a1e90612ac7565b80600660008282546119b39190612af5565b909155506119ee90506001600160a01b037f000000000000000000000000000000000000000000000000000000000000000016308a84611abc565b600015158b1515336001600160a01b0316600080516020612cff8339815191528d868b604051611a2093929190612b33565b60405180910390a45050505050505050505050565b611a3d612734565b6000611a47611063565b9050600081611a568686612b8a565b611a609190612a99565b90506000611a6d82611eb2565b90506000611a8382670de0b6b3a7640000612b8a565b60408051808201909152928352602083015250925050505b92915050565b611aa9611f24565b6002611ab9611ab6611f4c565b90565b55565b611aca848484846001611f70565b611ae95783604051635274afe760e01b8152600401610a1e91906128fa565b50505050565b6000828015611aff575060015482135b15611b1d576040516307c8cddf60e51b815260040160405180910390fd5b600080611b2a8585611e4a565b935091508290508185158015611b41575060008413155b15611b5f5760405163a1704e8d60e01b815260040160405180910390fd5b6001555050600081905592915050565b6000828015611b7f575060005482135b15611b9d57604051633abbf21d60e21b815260040160405180910390fd5b600080611baa8585611de1565b90935083925090508085158015611bc2575060008413155b15611be057604051631687a81f60e31b815260040160405180910390fd5b600184905560005550909392505050565b6000670de0b6b3a76400007f00000000000000000000000000000000000000000000000000000000000000006001600160a01b031663313ce5676040518163ffffffff1660e01b8152600401602060405180830381865afa158015611c5a573d6000803e3d6000fd5b505050506040513d601f19601f82011682018060405250810190611c7e9190612bb1565b611c8990600a612cb3565b611c939084612b08565b611a9b9190612b1f565b6001611ab9611ab6611f4c565b611cb78383836001611fe2565b610b0e5782604051635274afe760e01b8152600401610a1e91906128fa565b600081600003611ce857506000919050565b60006002611cf7846001612a18565b611d019190612b1f565b90508291505b81811015611d3a57905080600281611d1f8186612b1f565b611d299190612a18565b611d339190612b1f565b9050611d07565b50919050565b60007f00000000000000000000000000000000000000000000000000000000000000006001600160a01b031663313ce5676040518163ffffffff1660e01b8152600401602060405180830381865afa158015611da0573d6000803e3d6000fd5b505050506040513d601f19601f82011682018060405250810190611dc49190612bb1565b611dcf90600a612cb3565b611c9383670de0b6b3a7640000612b08565b6000806000611dee611063565b905084611e085783600054611e039190612a2b565b611e16565b83600054611e169190612b8a565b600154909250600080611e2a838686612048565b91509150611e3d6120be838388886120d7565b9550505050509250929050565b6000806000611e57611063565b905084611e715783600154611e6c9190612a2b565b611e7f565b83600154611e7f9190612b8a565b6000805491945080611e9283878661213a565b91509150611ea56120be8383898861219e565b9450505050509250929050565b6000806713a04bbdfdc9be88611ed0670de0b6b3a764000085612a53565b611eda9190612a99565b90506000611ee782612cc2565b90506000611ef4826121f6565b9050671bc16d674ec80000611f11670de0b6b3a764000083612a53565b611f1b9190612a99565b95945050505050565b611f2c6123eb565b15611f4a57604051633ee5aeb560e01b815260040160405180910390fd5b565b7f9b779b17422d0df92223018b32b4d1fa46e071723d6817e2486d003becc55f0090565b6040516323b872dd60e01b60008181526001600160a01b038781166004528616602452604485905291602083606481808c5af192506001600051148316611fd0578383151615611fc3573d6000823e3d81fd5b6000883b113d1516831692505b60405250600060605295945050505050565b60405163a9059cbb60e01b60008181526001600160a01b038616600452602485905291602083604481808b5af19250600160005114831661203c57838315161561202f573d6000823e3d81fd5b6000873b113d1516831692505b60405250949350505050565b6000808080808069010f0cf064dd59200000895b8261208257600061206e828c8c612401565b12925061207b8282612a2b565b905061205c565b8094505b836120ac576120958282612b8a565b905060006120a4828c8c612401565b139350612086565b9650929450505050505b935093915050565b6000806120cc858585612401565b1290505b9392505050565b83620186a0845b816120e98483612b8a565b131561212f57600060026120fd8584612a2b565b6121079190612a99565b90506121188187878c63ffffffff16565b1561212557809150612129565b8093505b506120de565b505095945050505050565b6000808080808069010f0cf064dd59200000895b826121745760006121608b838c612401565b12925061216d8282612a2b565b905061214e565b8094505b836120ac576121878282612b8a565b905060006121968b838c612401565b139350612178565b83620186a0845b816121b08483612b8a565b131561212f57600060026121c48584612a2b565b6121ce9190612a99565b90506121df8682878c63ffffffff16565b156121ec578091506121f0565b8093505b506121a5565b60008160000361220f5750670de0b6b3a7640000919050565b675698eef066700000821261222657506000919050565b612237675698eef066700000612cc2565b821361224c5750671bc16d674ec80000919050565b600061225783612473565b90506000612290670de0b6b3a764000061227984671bc16d674ec800006124b2565b61228b90670de0b6b3a7640000612a2b565b6124c7565b9050600080826122f1816122de816122cc816122b48167025f0fe105a314006124dc565b6122c790670b68df18e471fbff19612a2b565b6124dc565b6122c7906714a8454c19e1ac00612a2b565b6122c790670fc10e01578277ff19612a2b565b612303906703debd083b8c7c00612a2b565b915083905061236b81612359816123478161233581612322818b6124dc565b6122c790670295d400ea3257ff19612a2b565b6122c790670157d8b2ecc70800612a2b565b6122c7906705310aa7d5213000612a2b565b6122c790670de0cc3d15610000612a2b565b91508167119000ab100ffc0061238187886124dc565b61238d90600019612a53565b6123979190612b8a565b6123a19190612a2b565b92505060006123af836124f1565b905060006123bd85836124dc565b9050600088126123cd57806123df565b6123df81671bc16d674ec80000612b8a565b98975050505050505050565b600060026123fa611ab6611f4c565b5414919050565b6000808261240f8686612b8a565b6124199190612a99565b9050836124258261269a565b61242f9085612a53565b670de0b6b3a764000061244184611eb2565b61244b8989612b8a565b6124559190612a53565b61245f9190612a99565b6124699190612a2b565b611f1b9190612b8a565b6000600160ff1b820361249957604051634d2d75b160e01b815260040160405180910390fd5b60008212156124aa57501960010190565b50805b919050565b60006120d083670de0b6b3a7640000846126f6565b60006120d083670de0b6b3a764000084612715565b60006120d08383670de0b6b3a7640000612715565b6000680248ce36a70cb26b3e19821361250c57506000919050565b680755bf798b4a1bf1e582126125535760405162461bcd60e51b815260206004820152600c60248201526b4558505f4f564552464c4f5760a01b6044820152606401610a1e565b6503782dace9d9604e83901b059150600060606bb17217f7d1cf79abc9e3b39884821b056001605f1b01901d6bb17217f7d1cf79abc9e3b39881029093036c240c330e9fb2d9cbaf0fd5aafb1981018102606090811d6d0277594991cfc85f6e2461837cd9018202811d6d1a521255e34f6a5061b25ef1c9c319018202811d6db1bbb201f443cf962f1a1d3db4a5018202811d6e02c72388d9f74f51a9331fed693f1419018202811d6e05180bb14799ab47a8a8cb2a527d57016d02d16720577bd19bf614176fe9ea6c10fe68e7fd37d0007b713f765084018402831d9081019084016d01d3967ed30fc4f89c02bab5708119010290911d6e0587f503bb6ea29d25fcb740196450019091026d360d7aeea093263ecc6e0ecb291760621b010574029d9dc38563c32e5c2f6dc192ee70ef65f9978af30260c3939093039290921c92915050565b600080671bc16d674ec80000836126b081612cc2565b6126ba9190612a53565b6126c49190612a99565b90506126cf816124f1565b90506722c955229554c1b66126ec670de0b6b3a764000083612a53565b6120d09190612a99565b82820281151584158583048514171661270e57600080fd5b0492915050565b82820281151584158583058514171661272d57600080fd5b0592915050565b604051806040016040528060008152602001600081525090565b803580151581146124ad57600080fd5b60008060006060848603121561277357600080fd5b61277c8461274e565b95602085013595506040909401359392505050565b6000602082840312156127a357600080fd5b6120d08261274e565b6000815180845260005b818110156127d2576020818501810151868301820152016127b6565b506000602082860101526020601f19601f83011685010191505092915050565b634e487b7160e01b600052602160045260246000fd5b6004811061282657634e487b7160e01b600052602160045260246000fd5b9052565b80518252602090810151910152565b6101a08152600061284e6101a083018f6127ac565b8281036020840152612860818f6127ac565b6001600160a01b038e811660408601528d1660608501526001600160601b038c1660808501526001600160401b038b1660a0850152915061289e9050565b6128ab60c0830189612808565b86151560e08301526128c161010083018761282a565b8461014083015283610160830152826101808301529d9c50505050505050505050505050565b6020815260006120d060208301846127ac565b6001600160a01b0391909116815260200190565b80356001600160a01b03811681146124ad57600080fd5b60006020828403121561293757600080fd5b6120d08261290e565b6000806040838503121561295357600080fd5b61295c8361274e565b946020939093013593505050565b828152606081016120d0602083018461282a565b60408101611a9b828461282a565b60208101611a9b8284612808565b600080600080608085870312156129b057600080fd5b6129b98561274e565b935060208501359250604085013591506129d56060860161290e565b905092959194509250565b600080604083850312156129f357600080fd5b50508035926020909101359150565b634e487b7160e01b600052601160045260246000fd5b80820180821115611a9b57611a9b612a02565b8082018281126000831280158216821582161715612a4b57612a4b612a02565b505092915050565b80820260008212600160ff1b84141615612a6f57612a6f612a02565b8181058314821517611a9b57611a9b612a02565b634e487b7160e01b600052601260045260246000fd5b600082612aa857612aa8612a83565b600160ff1b821460001984141615612ac257612ac2612a02565b500590565b6020808252601490820152732734b6b13ab9afa4b7333630ba32b221b7b9ba1760611b604082015260600190565b81810381811115611a9b57611a9b612a02565b8082028115828204841417611a9b57611a9b612a02565b600082612b2e57612b2e612a83565b500490565b8381526020810183905260808101612b4e604083018461282a565b949350505050565b600181811c90821680612b6a57607f821691505b602082108103611d3a57634e487b7160e01b600052602260045260246000fd5b8181036000831280158383131683831282161715612baa57612baa612a02565b5092915050565b600060208284031215612bc357600080fd5b815160ff811681146120d057600080fd5b6001815b60018411156120b657808504811115612bf357612bf3612a02565b6001841615612c0157908102905b60019390931c928002612bd8565b600082612c1e57506001611a9b565b81612c2b57506000611a9b565b8160018114612c415760028114612c4b57612c67565b6001915050611a9b565b60ff841115612c5c57612c5c612a02565b50506001821b611a9b565b5060208310610133831016604e8410600b8410161715612c8a575081810a611a9b565b612c976000198484612bd4565b8060001904821115612cab57612cab612a02565b029392505050565b60006120d060ff841683612c0f565b6000600160ff1b8201612cd757612cd7612a02565b506000039056fe1a31e733a172afcf46074b3106c17f0c298e226442682a03c1e99ce256139ec243c48434c2686e04a4bf1f5d3451edc96823e71d773382cdd2d000720c51c1aca26469706673582212204f7dfc7aea53c8231d9322520614921143419204e20e707bdcf0c3d34069f93a64736f6c634300081c0033a26469706673582212203930100558db5c1af3580ac012de256e3d1c4db5d6ab3332eee111d8508de06c64736f6c634300081c0033","opcodes":"PUSH1 0x80 PUSH1 0x40 MSTORE PUSH1 0x0 DUP1 SLOAD PUSH7 0xFFFFFFFFFFFFFF PUSH1 0xB0 SHL NOT AND PUSH6 0x1E13380000E1 PUSH1 0xB4 SHL OR SWAP1 SSTORE CALLVALUE DUP1 ISZERO PUSH2 0x2E JUMPI PUSH1 0x0 DUP1 REVERT JUMPDEST POP PUSH1 0x40 MLOAD PUSH2 0x4F9A CODESIZE SUB DUP1 PUSH2 0x4F9A DUP4 CODECOPY DUP2 ADD PUSH1 0x40 DUP2 SWAP1 MSTORE PUSH2 0x4D SWAP2 PUSH2 0x16F JUMP JUMPDEST PUSH1 0x1 PUSH1 0x1 PUSH1 0xA0 SHL SUB DUP4 AND PUSH2 0x9C JUMPI PUSH1 0x40 MLOAD PUSH3 0x461BCD PUSH1 0xE5 SHL DUP2 MSTORE PUSH1 0x20 PUSH1 0x4 DUP3 ADD MSTORE PUSH1 0x11 PUSH1 0x24 DUP3 ADD MSTORE PUSH17 0x125B9D985B1A59081C9958DA5C1A595B9D PUSH1 0x7A SHL PUSH1 0x44 DUP3 ADD MSTORE PUSH1 0x64 ADD JUMPDEST PUSH1 0x40 MLOAD DUP1 SWAP2 SUB SWAP1 REVERT JUMPDEST PUSH2 0x1F4 PUSH2 0xFFFF DUP4 AND GT ISZERO PUSH2 0xE1 JUMPI PUSH1 0x40 MLOAD PUSH3 0x461BCD PUSH1 0xE5 SHL DUP2 MSTORE PUSH1 0x20 PUSH1 0x4 DUP3 ADD MSTORE PUSH1 0xC PUSH1 0x24 DUP3 ADD MSTORE PUSH12 0x8CCACA40E8DEDE40D0D2CED PUSH1 0xA3 SHL PUSH1 0x44 DUP3 ADD MSTORE PUSH1 0x64 ADD PUSH2 0x93 JUMP JUMPDEST PUSH1 0x0 DUP1 SLOAD PUSH1 0x2 DUP1 SLOAD CALLER PUSH1 0x1 PUSH1 0x1 PUSH1 0xA0 SHL SUB NOT SWAP2 DUP3 AND DUP2 OR SWAP1 SWAP3 SSTORE PUSH1 0x1 DUP1 SLOAD SWAP1 SWAP2 AND PUSH1 0x1 PUSH1 0x1 PUSH1 0xA0 SHL SUB SWAP8 DUP9 AND OR DUP2 SSTORE SWAP4 SWAP1 SWAP6 AND PUSH1 0x1 PUSH1 0x1 PUSH1 0xB0 SHL SUB NOT SWAP1 SWAP2 AND OR PUSH1 0x1 PUSH1 0xA0 SHL PUSH2 0xFFFF SWAP5 SWAP1 SWAP5 AND SWAP4 SWAP1 SWAP4 MUL SWAP3 SWAP1 SWAP3 OR DUP3 SSTORE SWAP2 DUP2 MSTORE PUSH1 0x4 PUSH1 0x20 MSTORE PUSH1 0x40 SWAP1 KECCAK256 DUP1 SLOAD PUSH1 0xFF NOT AND SWAP1 SWAP2 OR SWAP1 SSTORE PUSH2 0x1BB JUMP JUMPDEST DUP1 MLOAD PUSH1 0x1 PUSH1 0x1 PUSH1 0xA0 SHL SUB DUP2 AND DUP2 EQ PUSH2 0x16A JUMPI PUSH1 0x0 DUP1 REVERT JUMPDEST SWAP2 SWAP1 POP JUMP JUMPDEST PUSH1 0x0 DUP1 PUSH1 0x0 PUSH1 0x60 DUP5 DUP7 SUB SLT ISZERO PUSH2 0x184 JUMPI PUSH1 0x0 DUP1 REVERT JUMPDEST PUSH2 0x18D DUP5 PUSH2 0x153 JUMP JUMPDEST SWAP3 POP PUSH1 0x20 DUP5 ADD MLOAD PUSH2 0xFFFF DUP2 AND DUP2 EQ PUSH2 0x1A4 JUMPI PUSH1 0x0 DUP1 REVERT JUMPDEST SWAP2 POP PUSH2 0x1B2 PUSH1 0x40 DUP6 ADD PUSH2 0x153 JUMP JUMPDEST SWAP1 POP SWAP3 POP SWAP3 POP SWAP3 JUMP JUMPDEST PUSH2 0x4DD0 DUP1 PUSH2 0x1CA PUSH1 0x0 CODECOPY PUSH1 0x0 RETURN INVALID PUSH1 0x80 PUSH1 0x40 MSTORE PUSH1 0x4 CALLDATASIZE LT PUSH2 0xD2 JUMPI PUSH1 0x0 CALLDATALOAD PUSH1 0xE0 SHR DUP1 PUSH4 0x22DCD13E EQ PUSH2 0xDE JUMPI DUP1 PUSH4 0x46904840 EQ PUSH2 0x118 JUMPI DUP1 PUSH4 0x51B2939C EQ PUSH2 0x150 JUMPI DUP1 PUSH4 0x5ED411E5 EQ PUSH2 0x189 JUMPI DUP1 PUSH4 0x62EE6A4C EQ PUSH2 0x1AB JUMPI DUP1 PUSH4 0x650DB51A EQ PUSH2 0x1CB JUMPI DUP1 PUSH4 0x88DD46A1 EQ PUSH2 0x1EB JUMPI DUP1 PUSH4 0x8DA5CB5B EQ PUSH2 0x20F JUMPI DUP1 PUSH4 0x917844CF EQ PUSH2 0x22F JUMPI DUP1 PUSH4 0x98178F36 EQ PUSH2 0x26F JUMPI DUP1 PUSH4 0xA0866E1F EQ PUSH2 0x28F JUMPI DUP1 PUSH4 0xB6FACA34 EQ PUSH2 0x2A4 JUMPI DUP1 PUSH4 0xD2BEE323 EQ PUSH2 0x2C4 JUMPI DUP1 PUSH4 0xD55BE8C6 EQ PUSH2 0x2FB JUMPI DUP1 PUSH4 0xD7F25F3E EQ PUSH2 0x311 JUMPI DUP1 PUSH4 0xF2FDE38B EQ PUSH2 0x331 JUMPI DUP1 PUSH4 0xFC0C546A EQ PUSH2 0x351 JUMPI PUSH1 0x0 DUP1 REVERT JUMPDEST CALLDATASIZE PUSH2 0xD9 JUMPI STOP JUMPDEST PUSH1 0x0 DUP1 REVERT JUMPDEST CALLVALUE DUP1 ISZERO PUSH2 0xEA JUMPI PUSH1 0x0 DUP1 REVERT JUMPDEST POP PUSH1 0x0 SLOAD PUSH2 0x100 SWAP1 PUSH1 0x1 PUSH1 0xA0 SHL SWAP1 DIV PUSH2 0xFFFF AND DUP2 JUMP JUMPDEST PUSH1 0x40 MLOAD PUSH2 0xFFFF SWAP1 SWAP2 AND DUP2 MSTORE PUSH1 0x20 ADD JUMPDEST PUSH1 0x40 MLOAD DUP1 SWAP2 SUB SWAP1 RETURN JUMPDEST CALLVALUE DUP1 ISZERO PUSH2 0x124 JUMPI PUSH1 0x0 DUP1 REVERT JUMPDEST POP PUSH1 0x1 SLOAD PUSH2 0x138 SWAP1 PUSH1 0x1 PUSH1 0x1 PUSH1 0xA0 SHL SUB AND DUP2 JUMP JUMPDEST PUSH1 0x40 MLOAD PUSH1 0x1 PUSH1 0x1 PUSH1 0xA0 SHL SUB SWAP1 SWAP2 AND DUP2 MSTORE PUSH1 0x20 ADD PUSH2 0x10F JUMP JUMPDEST CALLVALUE DUP1 ISZERO PUSH2 0x15C JUMPI PUSH1 0x0 DUP1 REVERT JUMPDEST POP PUSH1 0x0 SLOAD PUSH2 0x174 SWAP1 PUSH1 0x1 PUSH1 0xC8 SHL SWAP1 DIV PUSH4 0xFFFFFFFF AND DUP2 JUMP JUMPDEST PUSH1 0x40 MLOAD PUSH4 0xFFFFFFFF SWAP1 SWAP2 AND DUP2 MSTORE PUSH1 0x20 ADD PUSH2 0x10F JUMP JUMPDEST CALLVALUE DUP1 ISZERO PUSH2 0x195 JUMPI PUSH1 0x0 DUP1 REVERT JUMPDEST POP PUSH2 0x1A9 PUSH2 0x1A4 CALLDATASIZE PUSH1 0x4 PUSH2 0x84D JUMP JUMPDEST PUSH2 0x371 JUMP JUMPDEST STOP JUMPDEST CALLVALUE DUP1 ISZERO PUSH2 0x1B7 JUMPI PUSH1 0x0 DUP1 REVERT JUMPDEST POP PUSH2 0x1A9 PUSH2 0x1C6 CALLDATASIZE PUSH1 0x4 PUSH2 0x84D JUMP JUMPDEST PUSH2 0x3BD JUMP JUMPDEST CALLVALUE DUP1 ISZERO PUSH2 0x1D7 JUMPI PUSH1 0x0 DUP1 REVERT JUMPDEST POP PUSH2 0x1A9 PUSH2 0x1E6 CALLDATASIZE PUSH1 0x4 PUSH2 0x86F JUMP JUMPDEST PUSH2 0x452 JUMP JUMPDEST CALLVALUE DUP1 ISZERO PUSH2 0x1F7 JUMPI PUSH1 0x0 DUP1 REVERT JUMPDEST POP PUSH2 0x201 PUSH1 0x3 SLOAD DUP2 JUMP JUMPDEST PUSH1 0x40 MLOAD SWAP1 DUP2 MSTORE PUSH1 0x20 ADD PUSH2 0x10F JUMP JUMPDEST CALLVALUE DUP1 ISZERO PUSH2 0x21B JUMPI PUSH1 0x0 DUP1 REVERT JUMPDEST POP PUSH1 0x2 SLOAD PUSH2 0x138 SWAP1 PUSH1 0x1 PUSH1 0x1 PUSH1 0xA0 SHL SUB AND DUP2 JUMP JUMPDEST CALLVALUE DUP1 ISZERO PUSH2 0x23B JUMPI PUSH1 0x0 DUP1 REVERT JUMPDEST POP PUSH2 0x25F PUSH2 0x24A CALLDATASIZE PUSH1 0x4 PUSH2 0x84D JUMP JUMPDEST PUSH1 0x4 PUSH1 0x20 MSTORE PUSH1 0x0 SWAP1 DUP2 MSTORE PUSH1 0x40 SWAP1 KECCAK256 SLOAD PUSH1 0xFF AND DUP2 JUMP JUMPDEST PUSH1 0x40 MLOAD SWAP1 ISZERO ISZERO DUP2 MSTORE PUSH1 0x20 ADD PUSH2 0x10F JUMP JUMPDEST CALLVALUE DUP1 ISZERO PUSH2 0x27B JUMPI PUSH1 0x0 DUP1 REVERT JUMPDEST POP PUSH2 0x1A9 PUSH2 0x28A CALLDATASIZE PUSH1 0x4 PUSH2 0x86F JUMP JUMPDEST PUSH2 0x4A0 JUMP JUMPDEST CALLVALUE DUP1 ISZERO PUSH2 0x29B JUMPI PUSH1 0x0 DUP1 REVERT JUMPDEST POP PUSH1 0x3 SLOAD PUSH2 0x201 JUMP JUMPDEST CALLVALUE DUP1 ISZERO PUSH2 0x2B0 JUMPI PUSH1 0x0 DUP1 REVERT JUMPDEST POP PUSH2 0x138 PUSH2 0x2BF CALLDATASIZE PUSH1 0x4 PUSH2 0x894 JUMP JUMPDEST PUSH2 0x4EE JUMP JUMPDEST CALLVALUE DUP1 ISZERO PUSH2 0x2D0 JUMPI PUSH1 0x0 DUP1 REVERT JUMPDEST POP PUSH1 0x0 SLOAD PUSH2 0x2E7 SWAP1 PUSH1 0x1 PUSH1 0xB0 SHL SWAP1 DIV PUSH3 0xFFFFFF AND DUP2 JUMP JUMPDEST PUSH1 0x40 MLOAD PUSH3 0xFFFFFF SWAP1 SWAP2 AND DUP2 MSTORE PUSH1 0x20 ADD PUSH2 0x10F JUMP JUMPDEST CALLVALUE DUP1 ISZERO PUSH2 0x307 JUMPI PUSH1 0x0 DUP1 REVERT JUMPDEST POP PUSH2 0x100 PUSH2 0x1F4 DUP2 JUMP JUMPDEST CALLVALUE DUP1 ISZERO PUSH2 0x31D JUMPI PUSH1 0x0 DUP1 REVERT JUMPDEST POP PUSH2 0x1A9 PUSH2 0x32C CALLDATASIZE PUSH1 0x4 PUSH2 0x84D JUMP JUMPDEST PUSH2 0x5E7 JUMP JUMPDEST CALLVALUE DUP1 ISZERO PUSH2 0x33D JUMPI PUSH1 0x0 DUP1 REVERT JUMPDEST POP PUSH2 0x1A9 PUSH2 0x34C CALLDATASIZE PUSH1 0x4 PUSH2 0x84D JUMP JUMPDEST PUSH2 0x67D JUMP JUMPDEST CALLVALUE DUP1 ISZERO PUSH2 0x35D JUMPI PUSH1 0x0 DUP1 REVERT JUMPDEST POP PUSH1 0x0 SLOAD PUSH2 0x138 SWAP1 PUSH1 0x1 PUSH1 0x1 PUSH1 0xA0 SHL SUB AND DUP2 JUMP JUMPDEST PUSH1 0x2 SLOAD PUSH1 0x1 PUSH1 0x1 PUSH1 0xA0 SHL SUB AND CALLER EQ PUSH2 0x39B JUMPI PUSH1 0x40 MLOAD PUSH3 0x82B429 PUSH1 0xE8 SHL DUP2 MSTORE PUSH1 0x4 ADD PUSH1 0x40 MLOAD DUP1 SWAP2 SUB SWAP1 REVERT JUMPDEST PUSH1 0x0 DUP1 SLOAD PUSH1 0x1 PUSH1 0x1 PUSH1 0xA0 SHL SUB NOT AND PUSH1 0x1 PUSH1 0x1 PUSH1 0xA0 SHL SUB SWAP3 SWAP1 SWAP3 AND SWAP2 SWAP1 SWAP2 OR SWAP1 SSTORE JUMP JUMPDEST PUSH1 0x2 SLOAD PUSH1 0x1 PUSH1 0x1 PUSH1 0xA0 SHL SUB AND CALLER EQ PUSH2 0x3E7 JUMPI PUSH1 0x40 MLOAD PUSH3 0x82B429 PUSH1 0xE8 SHL DUP2 MSTORE PUSH1 0x4 ADD PUSH1 0x40 MLOAD DUP1 SWAP2 SUB SWAP1 REVERT JUMPDEST PUSH1 0x1 PUSH1 0x1 PUSH1 0xA0 SHL SUB DUP2 AND PUSH1 0x0 SWAP1 DUP2 MSTORE PUSH1 0x4 PUSH1 0x20 MSTORE PUSH1 0x40 SWAP1 KECCAK256 SLOAD PUSH1 0xFF AND ISZERO PUSH2 0x44F JUMPI PUSH1 0x1 PUSH1 0x1 PUSH1 0xA0 SHL SUB DUP2 AND PUSH1 0x0 DUP2 DUP2 MSTORE PUSH1 0x4 PUSH1 0x20 MSTORE PUSH1 0x40 DUP1 DUP3 KECCAK256 DUP1 SLOAD PUSH1 0xFF NOT AND SWAP1 SSTORE MLOAD PUSH32 0x6CC76DE175EB7C3679F8D4C3529E23883784A40E1F9D7F54E8A9F97115AAB347 SWAP2 SWAP1 LOG2 JUMPDEST POP JUMP JUMPDEST PUSH1 0x2 SLOAD PUSH1 0x1 PUSH1 0x1 PUSH1 0xA0 SHL SUB AND CALLER EQ PUSH2 0x47C JUMPI PUSH1 0x40 MLOAD PUSH3 0x82B429 PUSH1 0xE8 SHL DUP2 MSTORE PUSH1 0x4 ADD PUSH1 0x40 MLOAD DUP1 SWAP2 SUB SWAP1 REVERT JUMPDEST PUSH1 0x0 DUP1 SLOAD PUSH4 0xFFFFFFFF PUSH1 0xC8 SHL NOT AND PUSH3 0xFFFFFF SWAP3 SWAP1 SWAP3 AND PUSH1 0x1 PUSH1 0xC8 SHL MUL SWAP2 SWAP1 SWAP2 OR SWAP1 SSTORE JUMP JUMPDEST PUSH1 0x2 SLOAD PUSH1 0x1 PUSH1 0x1 PUSH1 0xA0 SHL SUB AND CALLER EQ PUSH2 0x4CA JUMPI PUSH1 0x40 MLOAD PUSH3 0x82B429 PUSH1 0xE8 SHL DUP2 MSTORE PUSH1 0x4 ADD PUSH1 0x40 MLOAD DUP1 SWAP2 SUB SWAP1 REVERT JUMPDEST PUSH1 0x0 DUP1 SLOAD PUSH3 0xFFFFFF SWAP1 SWAP3 AND PUSH1 0x1 PUSH1 0xB0 SHL MUL PUSH3 0xFFFFFF PUSH1 0xB0 SHL NOT SWAP1 SWAP3 AND SWAP2 SWAP1 SWAP2 OR SWAP1 SSTORE JUMP JUMPDEST PUSH1 0x0 PUSH2 0x4F9 DUP3 PUSH2 0x713 JUMP JUMPDEST PUSH1 0x0 SLOAD PUSH1 0x40 MLOAD PUSH1 0x1 PUSH1 0x1 PUSH1 0xA0 SHL SUB SWAP1 SWAP2 AND SWAP1 DUP4 SWAP1 PUSH2 0x516 SWAP1 PUSH2 0x817 JUMP JUMPDEST PUSH2 0x521 SWAP3 SWAP2 SWAP1 PUSH2 0x99E JUMP JUMPDEST PUSH1 0x40 MLOAD DUP1 SWAP2 SUB SWAP1 PUSH1 0x0 CREATE DUP1 ISZERO DUP1 ISZERO PUSH2 0x53D JUMPI RETURNDATASIZE PUSH1 0x0 DUP1 RETURNDATACOPY RETURNDATASIZE PUSH1 0x0 REVERT JUMPDEST POP PUSH1 0x3 DUP1 SLOAD SWAP2 SWAP3 POP PUSH1 0x0 PUSH2 0x550 DUP4 PUSH2 0xAE5 JUMP JUMPDEST SWAP1 SWAP2 SSTORE POP PUSH2 0x566 SWAP1 POP PUSH1 0x60 DUP4 ADD PUSH1 0x40 DUP5 ADD PUSH2 0x84D JUMP JUMPDEST PUSH1 0x1 PUSH1 0x1 PUSH1 0xA0 SHL SUB SWAP1 DUP2 AND SWAP1 CALLER SWAP1 DUP4 AND PUSH32 0x56E3D245C95926EC5C008A5377621D0A5694FE93EAC7FC7BC299E2A1CD61866D PUSH2 0x5A4 PUSH1 0xA0 DUP8 ADD DUP8 PUSH2 0xAFE JUMP JUMPDEST PUSH2 0x5B5 PUSH2 0x100 DUP10 ADD PUSH1 0xE0 DUP11 ADD PUSH2 0xB44 JUMP JUMPDEST PUSH1 0x0 PUSH2 0x5C9 PUSH2 0x140 DUP12 ADD PUSH2 0x120 DUP13 ADD PUSH2 0xB5F JUMP JUMPDEST PUSH1 0x40 MLOAD PUSH2 0x5DA SWAP6 SWAP5 SWAP4 SWAP3 SWAP2 SWAP1 PUSH2 0xB7A JUMP JUMPDEST PUSH1 0x40 MLOAD DUP1 SWAP2 SUB SWAP1 LOG4 SWAP2 SWAP1 POP JUMP JUMPDEST PUSH1 0x2 SLOAD PUSH1 0x1 PUSH1 0x1 PUSH1 0xA0 SHL SUB AND CALLER EQ PUSH2 0x611 JUMPI PUSH1 0x40 MLOAD PUSH3 0x82B429 PUSH1 0xE8 SHL DUP2 MSTORE PUSH1 0x4 ADD PUSH1 0x40 MLOAD DUP1 SWAP2 SUB SWAP1 REVERT JUMPDEST PUSH1 0x1 PUSH1 0x1 PUSH1 0xA0 SHL SUB DUP2 AND PUSH1 0x0 SWAP1 DUP2 MSTORE PUSH1 0x4 PUSH1 0x20 MSTORE PUSH1 0x40 SWAP1 KECCAK256 SLOAD PUSH1 0xFF AND PUSH2 0x44F JUMPI PUSH1 0x1 PUSH1 0x1 PUSH1 0xA0 SHL SUB DUP2 AND PUSH1 0x0 DUP2 DUP2 MSTORE PUSH1 0x4 PUSH1 0x20 MSTORE PUSH1 0x40 DUP1 DUP3 KECCAK256 DUP1 SLOAD PUSH1 0xFF NOT AND PUSH1 0x1 OR SWAP1 SSTORE MLOAD PUSH32 0x9BBBE4E39AD054FE72582F43DB1B4B6A33FC5319ED7363D725C6398B9F50559 SWAP2 SWAP1 LOG2 POP JUMP JUMPDEST PUSH1 0x2 SLOAD PUSH1 0x1 PUSH1 0x1 PUSH1 0xA0 SHL SUB AND CALLER EQ PUSH2 0x6A7 JUMPI PUSH1 0x40 MLOAD PUSH3 0x82B429 PUSH1 0xE8 SHL DUP2 MSTORE PUSH1 0x4 ADD PUSH1 0x40 MLOAD DUP1 SWAP2 SUB SWAP1 REVERT JUMPDEST PUSH1 0x1 PUSH1 0x1 PUSH1 0xA0 SHL SUB DUP2 AND PUSH2 0x6F1 JUMPI PUSH1 0x40 MLOAD PUSH3 0x461BCD PUSH1 0xE5 SHL DUP2 MSTORE PUSH1 0x20 PUSH1 0x4 DUP3 ADD MSTORE PUSH1 0xD PUSH1 0x24 DUP3 ADD MSTORE PUSH13 0x24B73B30B634B21037BBB732B9 PUSH1 0x99 SHL PUSH1 0x44 DUP3 ADD MSTORE PUSH1 0x64 ADD PUSH1 0x40 MLOAD DUP1 SWAP2 SUB SWAP1 REVERT JUMPDEST PUSH1 0x2 DUP1 SLOAD PUSH1 0x1 PUSH1 0x1 PUSH1 0xA0 SHL SUB NOT AND PUSH1 0x1 PUSH1 0x1 PUSH1 0xA0 SHL SUB SWAP3 SWAP1 SWAP3 AND SWAP2 SWAP1 SWAP2 OR SWAP1 SSTORE JUMP JUMPDEST PUSH1 0x0 PUSH2 0x725 PUSH1 0x60 DUP4 ADD PUSH1 0x40 DUP5 ADD PUSH2 0x84D JUMP JUMPDEST SWAP1 POP PUSH1 0x0 TIMESTAMP PUSH2 0x73C PUSH2 0x140 DUP6 ADD PUSH2 0x120 DUP7 ADD PUSH2 0xB5F JUMP JUMPDEST PUSH1 0x1 PUSH1 0x1 PUSH1 0x40 SHL SUB AND PUSH2 0x74F SWAP2 SWAP1 PUSH2 0xBC2 JUMP JUMPDEST SWAP1 POP PUSH1 0x0 PUSH2 0x765 PUSH2 0x140 DUP6 ADD PUSH2 0x120 DUP7 ADD PUSH2 0xB5F JUMP JUMPDEST SWAP1 POP TIMESTAMP DUP2 PUSH1 0x1 PUSH1 0x1 PUSH1 0x40 SHL SUB AND GT PUSH2 0x790 JUMPI PUSH1 0x40 MLOAD PUSH4 0x38AF65F7 PUSH1 0xE0 SHL DUP2 MSTORE PUSH1 0x4 ADD PUSH1 0x40 MLOAD DUP1 SWAP2 SUB SWAP1 REVERT JUMPDEST PUSH1 0x1 PUSH1 0x1 PUSH1 0xA0 SHL SUB DUP4 AND PUSH1 0x0 SWAP1 DUP2 MSTORE PUSH1 0x4 PUSH1 0x20 MSTORE PUSH1 0x40 SWAP1 KECCAK256 SLOAD PUSH1 0xFF AND PUSH2 0x7C9 JUMPI PUSH1 0x40 MLOAD PUSH4 0xD7EB8605 PUSH1 0xE0 SHL DUP2 MSTORE PUSH1 0x4 ADD PUSH1 0x40 MLOAD DUP1 SWAP2 SUB SWAP1 REVERT JUMPDEST PUSH1 0x0 SLOAD PUSH1 0x1 PUSH1 0xB0 SHL SWAP1 DIV PUSH3 0xFFFFFF AND DUP3 LT DUP1 PUSH2 0x7F3 JUMPI POP PUSH1 0x0 SLOAD PUSH1 0x1 PUSH1 0xC8 SHL SWAP1 DIV PUSH4 0xFFFFFFFF AND DUP3 GT JUMPDEST ISZERO PUSH2 0x811 JUMPI PUSH1 0x40 MLOAD PUSH4 0x76166401 PUSH1 0xE0 SHL DUP2 MSTORE PUSH1 0x4 ADD PUSH1 0x40 MLOAD DUP1 SWAP2 SUB SWAP1 REVERT JUMPDEST POP POP POP POP JUMP JUMPDEST PUSH2 0x41BF DUP1 PUSH2 0xBDC DUP4 CODECOPY ADD SWAP1 JUMP JUMPDEST PUSH1 0x1 PUSH1 0x1 PUSH1 0xA0 SHL SUB AND SWAP1 MSTORE JUMP JUMPDEST DUP1 CALLDATALOAD PUSH1 0x1 PUSH1 0x1 PUSH1 0xA0 SHL SUB DUP2 AND DUP2 EQ PUSH2 0x848 JUMPI PUSH1 0x0 DUP1 REVERT JUMPDEST SWAP2 SWAP1 POP JUMP JUMPDEST PUSH1 0x0 PUSH1 0x20 DUP3 DUP5 SUB SLT ISZERO PUSH2 0x85F JUMPI PUSH1 0x0 DUP1 REVERT JUMPDEST PUSH2 0x868 DUP3 PUSH2 0x831 JUMP JUMPDEST SWAP4 SWAP3 POP POP POP JUMP JUMPDEST PUSH1 0x0 PUSH1 0x20 DUP3 DUP5 SUB SLT ISZERO PUSH2 0x881 JUMPI PUSH1 0x0 DUP1 REVERT JUMPDEST DUP2 CALLDATALOAD PUSH3 0xFFFFFF DUP2 AND DUP2 EQ PUSH2 0x868 JUMPI PUSH1 0x0 DUP1 REVERT JUMPDEST PUSH1 0x0 PUSH1 0x20 DUP3 DUP5 SUB SLT ISZERO PUSH2 0x8A6 JUMPI PUSH1 0x0 DUP1 REVERT JUMPDEST DUP2 CALLDATALOAD PUSH1 0x1 PUSH1 0x1 PUSH1 0x40 SHL SUB DUP2 GT ISZERO PUSH2 0x8BC JUMPI PUSH1 0x0 DUP1 REVERT JUMPDEST DUP3 ADD PUSH2 0x140 DUP2 DUP6 SUB SLT ISZERO PUSH2 0x868 JUMPI PUSH1 0x0 DUP1 REVERT JUMPDEST DUP1 CALLDATALOAD PUSH1 0x4 DUP2 LT PUSH2 0x848 JUMPI PUSH1 0x0 DUP1 REVERT JUMPDEST PUSH1 0x4 DUP2 LT PUSH2 0x8FC JUMPI PUSH4 0x4E487B71 PUSH1 0xE0 SHL PUSH1 0x0 MSTORE PUSH1 0x21 PUSH1 0x4 MSTORE PUSH1 0x24 PUSH1 0x0 REVERT JUMPDEST SWAP1 MSTORE JUMP JUMPDEST DUP1 CALLDATALOAD PUSH2 0xFFFF DUP2 AND DUP2 EQ PUSH2 0x848 JUMPI PUSH1 0x0 DUP1 REVERT JUMPDEST PUSH1 0x0 DUP1 DUP4 CALLDATALOAD PUSH1 0x1E NOT DUP5 CALLDATASIZE SUB ADD DUP2 SLT PUSH2 0x929 JUMPI PUSH1 0x0 DUP1 REVERT JUMPDEST DUP4 ADD PUSH1 0x20 DUP2 ADD SWAP3 POP CALLDATALOAD SWAP1 POP PUSH1 0x1 PUSH1 0x1 PUSH1 0x40 SHL SUB DUP2 GT ISZERO PUSH2 0x948 JUMPI PUSH1 0x0 DUP1 REVERT JUMPDEST DUP1 CALLDATASIZE SUB DUP3 SGT ISZERO PUSH2 0x957 JUMPI PUSH1 0x0 DUP1 REVERT JUMPDEST SWAP3 POP SWAP3 SWAP1 POP JUMP JUMPDEST DUP2 DUP4 MSTORE DUP2 DUP2 PUSH1 0x20 DUP6 ADD CALLDATACOPY POP PUSH1 0x0 DUP3 DUP3 ADD PUSH1 0x20 SWAP1 DUP2 ADD SWAP2 SWAP1 SWAP2 MSTORE PUSH1 0x1F SWAP1 SWAP2 ADD PUSH1 0x1F NOT AND SWAP1 SWAP2 ADD ADD SWAP1 JUMP JUMPDEST DUP1 CALLDATALOAD PUSH1 0x1 PUSH1 0x1 PUSH1 0x40 SHL SUB DUP2 AND DUP2 EQ PUSH2 0x848 JUMPI PUSH1 0x0 DUP1 REVERT JUMPDEST PUSH1 0x1 PUSH1 0x1 PUSH1 0xA0 SHL SUB DUP4 AND DUP2 MSTORE PUSH1 0x40 PUSH1 0x20 DUP3 ADD DUP2 SWAP1 MSTORE PUSH2 0x9C7 SWAP1 DUP3 ADD PUSH2 0x9C2 DUP5 PUSH2 0x8CF JUMP JUMPDEST PUSH2 0x8DE JUMP JUMPDEST PUSH1 0x0 PUSH2 0x9D5 PUSH1 0x20 DUP5 ADD PUSH2 0x831 JUMP JUMPDEST PUSH2 0x9E2 PUSH1 0x60 DUP5 ADD DUP3 PUSH2 0x824 JUMP JUMPDEST POP PUSH2 0x9EF PUSH1 0x40 DUP5 ADD PUSH2 0x831 JUMP JUMPDEST PUSH2 0x9FC PUSH1 0x80 DUP5 ADD DUP3 PUSH2 0x824 JUMP JUMPDEST POP PUSH2 0xA09 PUSH1 0x60 DUP5 ADD PUSH2 0x831 JUMP JUMPDEST PUSH2 0xA16 PUSH1 0xA0 DUP5 ADD DUP3 PUSH2 0x824 JUMP JUMPDEST POP PUSH2 0xA23 PUSH1 0x80 DUP5 ADD PUSH2 0x900 JUMP JUMPDEST PUSH2 0xFFFF AND PUSH1 0xC0 DUP4 ADD MSTORE PUSH2 0xA39 PUSH1 0xA0 DUP5 ADD DUP5 PUSH2 0x912 JUMP JUMPDEST PUSH2 0x140 PUSH1 0xE0 DUP6 ADD MSTORE PUSH2 0xA50 PUSH2 0x180 DUP6 ADD DUP3 DUP5 PUSH2 0x95E JUMP JUMPDEST SWAP2 POP POP PUSH2 0xA60 PUSH1 0xC0 DUP6 ADD DUP6 PUSH2 0x912 JUMP JUMPDEST DUP5 DUP4 SUB PUSH1 0x3F NOT ADD PUSH2 0x100 DUP7 ADD MSTORE PUSH2 0xA78 DUP4 DUP3 DUP5 PUSH2 0x95E JUMP JUMPDEST SWAP3 POP POP POP PUSH2 0xA88 PUSH1 0xE0 DUP6 ADD PUSH2 0x900 JUMP JUMPDEST PUSH2 0xFFFF AND PUSH2 0x120 DUP5 ADD MSTORE PUSH2 0xA9F PUSH2 0x100 DUP6 ADD PUSH2 0x900 JUMP JUMPDEST PUSH2 0xFFFF AND PUSH2 0x140 DUP5 ADD MSTORE PUSH2 0xAB6 PUSH2 0x120 DUP6 ADD PUSH2 0x987 JUMP JUMPDEST PUSH1 0x1 PUSH1 0x1 PUSH1 0x40 SHL SUB DUP2 AND PUSH2 0x160 DUP6 ADD MSTORE POP SWAP5 SWAP4 POP POP POP POP JUMP JUMPDEST PUSH4 0x4E487B71 PUSH1 0xE0 SHL PUSH1 0x0 MSTORE PUSH1 0x11 PUSH1 0x4 MSTORE PUSH1 0x24 PUSH1 0x0 REVERT JUMPDEST PUSH1 0x0 PUSH1 0x1 DUP3 ADD PUSH2 0xAF7 JUMPI PUSH2 0xAF7 PUSH2 0xACF JUMP JUMPDEST POP PUSH1 0x1 ADD SWAP1 JUMP JUMPDEST PUSH1 0x0 DUP1 DUP4 CALLDATALOAD PUSH1 0x1E NOT DUP5 CALLDATASIZE SUB ADD DUP2 SLT PUSH2 0xB15 JUMPI PUSH1 0x0 DUP1 REVERT JUMPDEST DUP4 ADD DUP1 CALLDATALOAD SWAP2 POP PUSH1 0x1 PUSH1 0x1 PUSH1 0x40 SHL SUB DUP3 GT ISZERO PUSH2 0xB2F JUMPI PUSH1 0x0 DUP1 REVERT JUMPDEST PUSH1 0x20 ADD SWAP2 POP CALLDATASIZE DUP2 SWAP1 SUB DUP3 SGT ISZERO PUSH2 0x957 JUMPI PUSH1 0x0 DUP1 REVERT JUMPDEST PUSH1 0x0 PUSH1 0x20 DUP3 DUP5 SUB SLT ISZERO PUSH2 0xB56 JUMPI PUSH1 0x0 DUP1 REVERT JUMPDEST PUSH2 0x868 DUP3 PUSH2 0x900 JUMP JUMPDEST PUSH1 0x0 PUSH1 0x20 DUP3 DUP5 SUB SLT ISZERO PUSH2 0xB71 JUMPI PUSH1 0x0 DUP1 REVERT JUMPDEST PUSH2 0x868 DUP3 PUSH2 0x987 JUMP JUMPDEST PUSH1 0x80 DUP2 MSTORE PUSH1 0x0 PUSH2 0xB8E PUSH1 0x80 DUP4 ADD DUP8 DUP10 PUSH2 0x95E JUMP JUMPDEST SWAP1 POP PUSH2 0xFFFF DUP6 AND PUSH1 0x20 DUP4 ADD MSTORE PUSH2 0xBA7 PUSH1 0x40 DUP4 ADD DUP6 PUSH2 0x8DE JUMP JUMPDEST PUSH1 0x1 PUSH1 0x1 PUSH1 0x40 SHL SUB SWAP3 SWAP1 SWAP3 AND PUSH1 0x60 SWAP2 SWAP1 SWAP2 ADD MSTORE SWAP5 SWAP4 POP POP POP POP JUMP JUMPDEST DUP2 DUP2 SUB DUP2 DUP2 GT ISZERO PUSH2 0xBD5 JUMPI PUSH2 0xBD5 PUSH2 0xACF JUMP JUMPDEST SWAP3 SWAP2 POP POP JUMP INVALID PUSH2 0x160 PUSH1 0x40 MSTORE CALLVALUE DUP1 ISZERO PUSH2 0x11 JUMPI PUSH1 0x0 DUP1 REVERT JUMPDEST POP PUSH1 0x40 MLOAD PUSH2 0x41BF CODESIZE SUB DUP1 PUSH2 0x41BF DUP4 CODECOPY DUP2 ADD PUSH1 0x40 DUP2 SWAP1 MSTORE PUSH2 0x30 SWAP2 PUSH2 0xF7D JUMP JUMPDEST PUSH2 0x120 DUP2 ADD MLOAD PUSH1 0x1 PUSH32 0x9B779B17422D0DF92223018B32B4D1FA46E071723D6817E2486D003BECC55F00 SSTORE PUSH2 0x2710 PUSH1 0x80 DUP2 SWAP1 MSTORE PUSH1 0x1 PUSH1 0x1 PUSH1 0x40 SHL SUB SWAP1 SWAP2 AND PUSH1 0xA0 DUP2 SWAP1 MSTORE PUSH2 0x7A PUSH2 0x22E JUMP JUMPDEST PUSH1 0x0 SSTORE PUSH1 0x1 SSTORE POP POP PUSH2 0x120 DUP2 ADD MLOAD TIMESTAMP PUSH1 0x1 PUSH1 0x1 PUSH1 0x40 SHL SUB SWAP1 SWAP2 AND GT PUSH2 0xD9 JUMPI PUSH1 0x40 MLOAD PUSH3 0x461BCD PUSH1 0xE5 SHL DUP2 MSTORE PUSH1 0x20 PUSH1 0x4 DUP3 ADD MSTORE PUSH1 0x10 PUSH1 0x24 DUP3 ADD MSTORE PUSH16 0x496E76616C696420656E642074696D65 PUSH1 0x80 SHL PUSH1 0x44 DUP3 ADD MSTORE PUSH1 0x64 ADD JUMPDEST PUSH1 0x40 MLOAD DUP1 SWAP2 SUB SWAP1 REVERT JUMPDEST PUSH1 0x20 DUP2 ADD MLOAD PUSH1 0x1 PUSH1 0x1 PUSH1 0xA0 SHL SUB AND PUSH2 0x125 JUMPI PUSH1 0x40 MLOAD PUSH3 0x461BCD PUSH1 0xE5 SHL DUP2 MSTORE PUSH1 0x20 PUSH1 0x4 DUP3 ADD MSTORE PUSH1 0xF PUSH1 0x24 DUP3 ADD MSTORE PUSH15 0x24B73B30B634B21031B932B0BA37B9 PUSH1 0x89 SHL PUSH1 0x44 DUP3 ADD MSTORE PUSH1 0x64 ADD PUSH2 0xD0 JUMP JUMPDEST PUSH1 0x40 DUP2 ADD MLOAD PUSH1 0x1 PUSH1 0x1 PUSH1 0xA0 SHL SUB AND PUSH2 0x172 JUMPI PUSH1 0x40 MLOAD PUSH3 0x461BCD PUSH1 0xE5 SHL DUP2 MSTORE PUSH1 0x20 PUSH1 0x4 DUP3 ADD MSTORE PUSH1 0x10 PUSH1 0x24 DUP3 ADD MSTORE PUSH16 0x24B73B30B634B2103932B9B7B63B32B9 PUSH1 0x81 SHL PUSH1 0x44 DUP3 ADD MSTORE PUSH1 0x64 ADD PUSH2 0xD0 JUMP JUMPDEST PUSH1 0x60 DUP2 ADD MLOAD PUSH1 0x1 PUSH1 0x1 PUSH1 0xA0 SHL SUB AND PUSH2 0x1CC JUMPI PUSH1 0x40 MLOAD PUSH3 0x461BCD PUSH1 0xE5 SHL DUP2 MSTORE PUSH1 0x20 PUSH1 0x4 DUP3 ADD MSTORE PUSH1 0x15 PUSH1 0x24 DUP3 ADD MSTORE PUSH32 0x496E76616C69642066656520726563697069656E740000000000000000000000 PUSH1 0x44 DUP3 ADD MSTORE PUSH1 0x64 ADD PUSH2 0xD0 JUMP JUMPDEST PUSH1 0x1 PUSH1 0x1 PUSH1 0xA0 SHL SUB DUP3 AND PUSH1 0xC0 MSTORE PUSH1 0xA0 DUP2 ADD MLOAD PUSH1 0x3 SWAP1 PUSH2 0x1EB SWAP1 DUP3 PUSH2 0x113B JUMP JUMPDEST POP PUSH1 0xC0 DUP2 ADD MLOAD PUSH1 0x4 SWAP1 PUSH2 0x1FE SWAP1 DUP3 PUSH2 0x113B JUMP JUMPDEST POP PUSH1 0x20 DUP2 ADD MLOAD PUSH1 0x1 PUSH1 0x1 PUSH1 0xA0 SHL SUB SWAP1 DUP2 AND PUSH1 0xE0 MSTORE PUSH1 0x40 DUP3 ADD MLOAD DUP2 AND PUSH2 0x100 MSTORE PUSH1 0x60 SWAP1 SWAP2 ADD MLOAD AND PUSH2 0x120 MSTORE POP PUSH2 0x1362 JUMP JUMPDEST PUSH1 0x0 DUP1 DUP1 PUSH2 0x23A PUSH2 0x2B6 JUMP JUMPDEST SWAP1 POP PUSH1 0x0 PUSH2 0x24F PUSH8 0x6F05B59D3B20000 PUSH2 0x306 JUMP JUMPDEST SWAP1 POP PUSH1 0x0 PUSH2 0x25D DUP4 DUP4 PUSH2 0x120F JUMP JUMPDEST SWAP1 POP PUSH2 0x268 DUP3 PUSH2 0x3AC JUMP JUMPDEST PUSH2 0x272 SWAP1 DUP5 PUSH2 0x120F JUMP JUMPDEST PUSH8 0xDE0B6B3A7640000 PUSH2 0x28D PUSH8 0x6F05B59D3B20000 DUP5 PUSH2 0x120F JUMP JUMPDEST PUSH2 0x297 SWAP2 SWAP1 PUSH2 0x1255 JUMP JUMPDEST PUSH2 0x2A1 SWAP2 SWAP1 PUSH2 0x1283 JUMP JUMPDEST SWAP4 POP PUSH2 0x2AD DUP2 DUP6 PUSH2 0x12AB JUMP JUMPDEST SWAP5 POP POP POP POP SWAP1 SWAP2 JUMP JUMPDEST PUSH1 0x0 TIMESTAMP PUSH1 0xA0 MLOAD PUSH1 0x1 PUSH1 0x1 PUSH1 0x60 SHL SUB AND LT ISZERO PUSH2 0x2D1 JUMPI POP PUSH1 0x0 SWAP1 JUMP JUMPDEST PUSH2 0x2F0 TIMESTAMP PUSH1 0xA0 MLOAD PUSH1 0x1 PUSH1 0x1 PUSH1 0x60 SHL SUB AND PUSH2 0x2EB SWAP2 SWAP1 PUSH2 0x12D2 JUMP JUMPDEST PUSH2 0x40F JUMP JUMPDEST PUSH1 0x80 MLOAD PUSH2 0xFFFF AND PUSH2 0x301 SWAP2 SWAP1 PUSH2 0x12E5 JUMP JUMPDEST SWAP1 POP SWAP1 JUMP JUMPDEST PUSH1 0x0 PUSH8 0x6F05B59D3B20000 DUP3 SUB PUSH2 0x31F JUMPI POP PUSH1 0x0 SWAP2 SWAP1 POP JUMP JUMPDEST PUSH8 0xDE0B6B3A7640000 DUP3 SLT PUSH2 0x347 JUMPI PUSH1 0x40 MLOAD PUSH4 0x7A02127 PUSH1 0xE0 SHL DUP2 MSTORE PUSH1 0x4 ADD PUSH1 0x40 MLOAD DUP1 SWAP2 SUB SWAP1 REVERT JUMPDEST DUP2 PUSH1 0x0 SUB PUSH2 0x368 JUMPI PUSH1 0x40 MLOAD PUSH4 0x22ED5985 PUSH1 0xE2 SHL DUP2 MSTORE PUSH1 0x4 ADD PUSH1 0x40 MLOAD DUP1 SWAP2 SUB SWAP1 REVERT JUMPDEST PUSH1 0x0 PUSH2 0x375 DUP4 PUSH1 0x2 PUSH2 0x120F JUMP JUMPDEST SWAP1 POP PUSH1 0x0 PUSH2 0x382 DUP3 PUSH2 0x479 JUMP JUMPDEST SWAP1 POP PUSH1 0x0 PUSH2 0x398 PUSH8 0x13A04BBDFDC9BE88 DUP4 PUSH2 0x6FA JUMP JUMPDEST SWAP1 POP PUSH2 0x3A3 DUP2 PUSH2 0x12FC JUMP JUMPDEST SWAP6 SWAP5 POP POP POP POP POP JUMP JUMPDEST PUSH1 0x0 DUP1 PUSH8 0x1BC16D674EC80000 DUP4 PUSH2 0x3C2 DUP2 PUSH2 0x12FC JUMP JUMPDEST PUSH2 0x3CC SWAP2 SWAP1 PUSH2 0x120F JUMP JUMPDEST PUSH2 0x3D6 SWAP2 SWAP1 PUSH2 0x1255 JUMP JUMPDEST SWAP1 POP PUSH2 0x3E1 DUP2 PUSH2 0x70F JUMP JUMPDEST SWAP1 POP PUSH8 0x22C955229554C1B6 PUSH2 0x3FE PUSH8 0xDE0B6B3A7640000 DUP4 PUSH2 0x120F JUMP JUMPDEST PUSH2 0x408 SWAP2 SWAP1 PUSH2 0x1255 JUMP JUMPDEST SWAP4 SWAP3 POP POP POP JUMP JUMPDEST PUSH1 0x0 DUP2 PUSH1 0x0 SUB PUSH2 0x421 JUMPI POP PUSH1 0x0 SWAP2 SWAP1 POP JUMP JUMPDEST PUSH1 0x0 PUSH1 0x2 PUSH2 0x430 DUP5 PUSH1 0x1 PUSH2 0x1318 JUMP JUMPDEST PUSH2 0x43A SWAP2 SWAP1 PUSH2 0x132B JUMP JUMPDEST SWAP1 POP DUP3 SWAP2 POP JUMPDEST DUP2 DUP2 LT ISZERO PUSH2 0x473 JUMPI SWAP1 POP DUP1 PUSH1 0x2 DUP2 PUSH2 0x458 DUP2 DUP7 PUSH2 0x132B JUMP JUMPDEST PUSH2 0x462 SWAP2 SWAP1 PUSH2 0x1318 JUMP JUMPDEST PUSH2 0x46C SWAP2 SWAP1 PUSH2 0x132B JUMP JUMPDEST SWAP1 POP PUSH2 0x440 JUMP JUMPDEST POP SWAP2 SWAP1 POP JUMP JUMPDEST PUSH1 0x0 DUP1 DUP3 SLT DUP1 PUSH2 0x490 JUMPI POP PUSH8 0x1BC16D674EC80000 DUP3 SGT JUMPDEST ISZERO PUSH2 0x4AE JUMPI PUSH1 0x40 MLOAD PUSH4 0x2D0483C5 PUSH1 0xE2 SHL DUP2 MSTORE PUSH1 0x4 ADD PUSH1 0x40 MLOAD DUP1 SWAP2 SUB SWAP1 REVERT JUMPDEST DUP2 PUSH1 0x0 SUB PUSH2 0x4CF JUMPI PUSH1 0x40 MLOAD PUSH4 0x7A02127 PUSH1 0xE0 SHL DUP2 MSTORE PUSH1 0x4 ADD PUSH1 0x40 MLOAD DUP1 SWAP2 SUB SWAP1 REVERT JUMPDEST DUP2 PUSH8 0x1BC16D674EC80000 SUB PUSH2 0x4F7 JUMPI PUSH1 0x40 MLOAD PUSH4 0x22ED5985 PUSH1 0xE2 SHL DUP2 MSTORE PUSH1 0x4 ADD PUSH1 0x40 MLOAD DUP1 SWAP2 SUB SWAP1 REVERT JUMPDEST DUP1 ISZERO PUSH2 0x502 JUMPI SWAP2 SWAP1 POP JUMP JUMPDEST PUSH1 0x0 PUSH8 0xDE0B6B3A7640000 DUP4 SLT PUSH2 0x52A JUMPI PUSH2 0x525 DUP4 PUSH8 0x1BC16D674EC80000 PUSH2 0x12AB JUMP JUMPDEST PUSH2 0x52C JUMP JUMPDEST DUP3 JUMPDEST SWAP1 POP PUSH1 0x0 PUSH2 0x542 DUP3 PUSH8 0x1BC16D674EC80000 PUSH2 0x8C9 JUMP JUMPDEST SWAP1 POP DUP1 PUSH1 0x0 SUB PUSH2 0x565 JUMPI PUSH1 0x40 MLOAD PUSH4 0x7A02127 PUSH1 0xE0 SHL DUP2 MSTORE PUSH1 0x4 ADD PUSH1 0x40 MLOAD DUP1 SWAP2 SUB SWAP1 REVERT JUMPDEST PUSH1 0x0 PUSH2 0x570 DUP3 PUSH2 0x8DE JUMP JUMPDEST SWAP1 POP PUSH1 0x0 PUSH4 0x3B9ACA00 PUSH2 0x59B PUSH2 0x596 PUSH2 0x590 PUSH8 0x1BC16D674EC80000 PUSH2 0x12FC JUMP JUMPDEST DUP6 PUSH2 0x6FA JUMP JUMPDEST PUSH2 0xA97 JUMP JUMPDEST PUSH2 0x5A5 SWAP2 SWAP1 PUSH2 0x120F JUMP JUMPDEST SWAP1 POP PUSH1 0x0 DUP1 PUSH2 0x5BC DUP4 PUSH8 0x3C1665C7AAB2000 PUSH2 0x6FA JUMP JUMPDEST PUSH2 0x5CE SWAP1 PUSH8 0x2005FE4F268EA000 PUSH2 0x1283 JUMP JUMPDEST SWAP1 POP PUSH1 0x0 PUSH2 0x5FE DUP5 PUSH2 0x5E7 DUP2 PUSH7 0x9F32752462A000 PUSH2 0x6FA JUMP JUMPDEST PUSH2 0x5F9 SWAP1 PUSH8 0xDC5527F642C2000 PUSH2 0x1283 JUMP JUMPDEST PUSH2 0x6FA JUMP JUMPDEST PUSH2 0x610 SWAP1 PUSH8 0xDE0B6B3A7640000 PUSH2 0x1283 JUMP JUMPDEST SWAP1 POP PUSH2 0x634 PUSH8 0x9D028CC6F205FFF NOT DUP6 PUSH2 0x62A DUP6 DUP6 PUSH2 0x8C9 JUMP JUMPDEST PUSH2 0x5F9 SWAP2 SWAP1 PUSH2 0x12AB JUMP JUMPDEST SWAP3 POP POP POP PUSH1 0x0 JUMPDEST PUSH1 0x2 DUP2 LT ISZERO PUSH2 0x6CF JUMPI PUSH1 0x0 DUP7 PUSH2 0x650 DUP5 PUSH2 0xB3B JUMP JUMPDEST PUSH2 0x65A SWAP2 SWAP1 PUSH2 0x12AB JUMP JUMPDEST SWAP1 POP PUSH1 0x0 PUSH2 0x668 DUP5 DUP1 PUSH2 0x6FA JUMP JUMPDEST PUSH2 0x671 SWAP1 PUSH2 0x12FC JUMP JUMPDEST SWAP1 POP PUSH1 0x0 PUSH2 0x67E DUP3 PUSH2 0x70F JUMP JUMPDEST SWAP1 POP PUSH1 0x0 PUSH2 0x68C DUP7 DUP6 PUSH2 0x6FA JUMP JUMPDEST PUSH2 0x69E PUSH8 0xFA8CEDFC2ADDDFA DUP5 PUSH2 0x6FA JUMP JUMPDEST PUSH2 0x6A8 SWAP2 SWAP1 PUSH2 0x12AB JUMP JUMPDEST SWAP1 POP PUSH2 0x6B4 DUP5 DUP3 PUSH2 0x8C9 JUMP JUMPDEST PUSH2 0x6BE SWAP1 DUP8 PUSH2 0x1283 JUMP JUMPDEST SWAP6 POP DUP5 PUSH1 0x1 ADD SWAP5 POP POP POP POP POP PUSH2 0x63B JUMP JUMPDEST PUSH8 0xDE0B6B3A7640000 DUP9 SLT PUSH2 0x6EC JUMPI PUSH2 0x6E7 DUP3 PUSH2 0x12FC JUMP JUMPDEST PUSH2 0x6EE JUMP JUMPDEST DUP2 JUMPDEST SWAP9 SWAP8 POP POP POP POP POP POP POP POP JUMP JUMPDEST PUSH1 0x0 PUSH2 0x408 DUP4 DUP4 PUSH8 0xDE0B6B3A7640000 PUSH2 0xD20 JUMP JUMPDEST PUSH1 0x0 PUSH9 0x248CE36A70CB26B3E NOT DUP3 SGT PUSH2 0x72A JUMPI POP PUSH1 0x0 SWAP2 SWAP1 POP JUMP JUMPDEST PUSH9 0x755BF798B4A1BF1E5 DUP3 SLT PUSH2 0x771 JUMPI PUSH1 0x40 MLOAD PUSH3 0x461BCD PUSH1 0xE5 SHL DUP2 MSTORE PUSH1 0x20 PUSH1 0x4 DUP3 ADD MSTORE PUSH1 0xC PUSH1 0x24 DUP3 ADD MSTORE PUSH12 0x4558505F4F564552464C4F57 PUSH1 0xA0 SHL PUSH1 0x44 DUP3 ADD MSTORE PUSH1 0x64 ADD PUSH2 0xD0 JUMP JUMPDEST PUSH6 0x3782DACE9D9 PUSH1 0x4E DUP4 SWAP1 SHL SDIV SWAP2 POP PUSH1 0x0 PUSH1 0x60 PUSH12 0xB17217F7D1CF79ABC9E3B398 DUP5 DUP3 SHL SDIV PUSH12 0x800000000000000000000000 ADD SWAP1 SAR PUSH12 0xB17217F7D1CF79ABC9E3B398 DUP2 MUL SWAP1 SWAP4 SUB PUSH13 0x240C330E9FB2D9CBAF0FD5AAFB NOT DUP2 ADD DUP2 MUL PUSH1 0x60 SWAP1 DUP2 SAR PUSH14 0x277594991CFC85F6E2461837CD9 ADD DUP3 MUL DUP2 SAR PUSH14 0x1A521255E34F6A5061B25EF1C9C3 NOT ADD DUP3 MUL DUP2 SAR PUSH14 0xB1BBB201F443CF962F1A1D3DB4A5 ADD DUP3 MUL DUP2 SAR PUSH15 0x2C72388D9F74F51A9331FED693F14 NOT ADD DUP3 MUL DUP2 SAR PUSH15 0x5180BB14799AB47A8A8CB2A527D57 ADD PUSH14 0x2D16720577BD19BF614176FE9EA PUSH13 0x10FE68E7FD37D0007B713F7650 DUP5 ADD DUP5 MUL DUP4 SAR SWAP1 DUP2 ADD SWAP1 DUP5 ADD PUSH14 0x1D3967ED30FC4F89C02BAB57081 NOT ADD MUL SWAP1 SWAP2 SAR PUSH15 0x587F503BB6EA29D25FCB740196450 ADD SWAP1 SWAP2 MUL PUSH26 0xD835EBBA824C98FB31B83B2CA45C000000000000000000000000 ADD SDIV PUSH21 0x29D9DC38563C32E5C2F6DC192EE70EF65F9978AF3 MUL PUSH1 0xC3 SWAP4 SWAP1 SWAP4 SUB SWAP3 SWAP1 SWAP3 SHR SWAP3 SWAP2 POP POP JUMP JUMPDEST PUSH1 0x0 PUSH2 0x408 DUP4 PUSH8 0xDE0B6B3A7640000 DUP5 PUSH2 0xD20 JUMP JUMPDEST PUSH1 0x0 DUP1 DUP3 SGT PUSH2 0x8FF JUMPI PUSH1 0x40 MLOAD PUSH3 0x461BCD PUSH1 0xE5 SHL DUP2 MSTORE PUSH1 0x4 ADD PUSH2 0xD0 SWAP1 PUSH2 0x133F JUMP JUMPDEST PUSH1 0x0 PUSH1 0x60 PUSH2 0x90C DUP5 PUSH2 0xD3F JUMP JUMPDEST SUB PUSH1 0x9F DUP2 DUP2 SUB SWAP5 SWAP1 SWAP5 SHL SWAP1 SWAP4 SHR PUSH13 0x465772B2BBBB5F824B15207A30 DUP2 ADD DUP2 MUL PUSH1 0x60 SWAP1 DUP2 SAR PUSH14 0x388EAA27412D5ACA026815D636E ADD DUP3 MUL DUP2 SAR PUSH14 0xDF99AC502031BF953EFF472FDCC ADD DUP3 MUL DUP2 SAR PUSH14 0x13CDFFB29D51D99322BDFF5F2211 ADD DUP3 MUL DUP2 SAR PUSH14 0xA0F742023DEF783A307A986912E ADD DUP3 MUL DUP2 SAR PUSH14 0x1920D8043CA89B5239253284E42 ADD DUP3 MUL DUP2 SAR PUSH13 0xB7A86D7375468FAC667A0A527 ADD PUSH13 0x29508E458543D8AA4DF2ABEE78 DUP4 ADD DUP4 MUL DUP3 SAR PUSH14 0x139601A2EFABE717E604CBB4894 ADD DUP4 MUL DUP3 SAR PUSH14 0x2247F7A7B6594320649AA03ABA1 ADD DUP4 MUL DUP3 SAR PUSH13 0x8C3F38E95A6B1FF2AB1C3B3436 NOT ADD DUP4 MUL DUP3 SAR PUSH14 0x2384773BDF1AC5676FACCED6090 NOT ADD DUP4 MUL SWAP1 SWAP2 SAR PUSH13 0xB9A025D814B29C212B8B1A07CD NOT ADD SWAP1 SWAP2 MUL PUSH1 0x1 PUSH13 0x504A838426634CDD8738F5435 PUSH1 0x61 SHL SUB NOT ADD SDIV PUSH18 0x1340DAA0D5F769DBA1915CEF59F0815A5506 MUL PUSH30 0x267A36C0C95B3975AB3EE5B203A7614A3F75373F047D803AE7B6687F2B3 SWAP4 SWAP1 SWAP4 MUL SWAP3 SWAP1 SWAP3 ADD PUSH30 0x57115E47018C7177EEBF7CD370A3356A1B7863008A5AE8028C72B8864284 ADD PUSH1 0xAE SAR SWAP3 SWAP2 POP POP JUMP JUMPDEST PUSH1 0xB5 DUP2 PUSH1 0x1 PUSH1 0x88 SHL DUP2 LT PUSH2 0xAB0 JUMPI PUSH1 0x40 SWAP2 SWAP1 SWAP2 SHL SWAP1 PUSH1 0x80 SHR JUMPDEST PUSH10 0x1000000000000000000 DUP2 LT PUSH2 0xACC JUMPI PUSH1 0x20 SWAP2 SWAP1 SWAP2 SHL SWAP1 PUSH1 0x40 SHR JUMPDEST PUSH6 0x10000000000 DUP2 LT PUSH2 0xAE4 JUMPI PUSH1 0x10 SWAP2 SWAP1 SWAP2 SHL SWAP1 PUSH1 0x20 SHR JUMPDEST PUSH4 0x1000000 DUP2 LT PUSH2 0xAFA JUMPI PUSH1 0x8 SWAP2 SWAP1 SWAP2 SHL SWAP1 PUSH1 0x10 SHR JUMPDEST PUSH3 0x10000 ADD MUL PUSH1 0x12 SHR DUP1 DUP3 DIV ADD PUSH1 0x1 SWAP1 DUP2 SHR DUP1 DUP4 DIV ADD DUP2 SHR DUP1 DUP4 DIV ADD DUP2 SHR DUP1 DUP4 DIV ADD DUP2 SHR DUP1 DUP4 DIV ADD DUP2 SHR DUP1 DUP4 DIV ADD DUP2 SHR DUP1 DUP4 DIV ADD SWAP1 SHR SWAP1 DUP2 SWAP1 DIV DUP2 GT SWAP1 SUB SWAP1 JUMP JUMPDEST PUSH1 0x0 DUP2 PUSH1 0x0 SUB PUSH2 0xB54 JUMPI POP PUSH8 0xDE0B6B3A7640000 SWAP2 SWAP1 POP JUMP JUMPDEST PUSH8 0x5698EEF066700000 DUP3 SLT PUSH2 0xB6B JUMPI POP PUSH1 0x0 SWAP2 SWAP1 POP JUMP JUMPDEST PUSH2 0xB7C PUSH8 0x5698EEF066700000 PUSH2 0x12FC JUMP JUMPDEST DUP3 SGT PUSH2 0xB91 JUMPI POP PUSH8 0x1BC16D674EC80000 SWAP2 SWAP1 POP JUMP JUMPDEST PUSH1 0x0 PUSH2 0xB9C DUP4 PUSH2 0xDC1 JUMP JUMPDEST SWAP1 POP PUSH1 0x0 PUSH2 0xBD5 PUSH8 0xDE0B6B3A7640000 PUSH2 0xBBE DUP5 PUSH8 0x1BC16D674EC80000 PUSH2 0xE00 JUMP JUMPDEST PUSH2 0xBD0 SWAP1 PUSH8 0xDE0B6B3A7640000 PUSH2 0x1283 JUMP JUMPDEST PUSH2 0x8C9 JUMP JUMPDEST SWAP1 POP PUSH1 0x0 DUP1 DUP3 PUSH2 0xC31 DUP2 PUSH2 0xC1E DUP2 PUSH2 0xC0C DUP2 PUSH2 0xBF9 DUP2 PUSH8 0x25F0FE105A31400 PUSH2 0x6FA JUMP JUMPDEST PUSH2 0x5F9 SWAP1 PUSH8 0xB68DF18E471FBFF NOT PUSH2 0x1283 JUMP JUMPDEST PUSH2 0x5F9 SWAP1 PUSH8 0x14A8454C19E1AC00 PUSH2 0x1283 JUMP JUMPDEST PUSH2 0x5F9 SWAP1 PUSH8 0xFC10E01578277FF NOT PUSH2 0x1283 JUMP JUMPDEST PUSH2 0xC43 SWAP1 PUSH8 0x3DEBD083B8C7C00 PUSH2 0x1283 JUMP JUMPDEST SWAP2 POP DUP4 SWAP1 POP PUSH2 0xCAB DUP2 PUSH2 0xC99 DUP2 PUSH2 0xC87 DUP2 PUSH2 0xC75 DUP2 PUSH2 0xC62 DUP2 DUP12 PUSH2 0x6FA JUMP JUMPDEST PUSH2 0x5F9 SWAP1 PUSH8 0x295D400EA3257FF NOT PUSH2 0x1283 JUMP JUMPDEST PUSH2 0x5F9 SWAP1 PUSH8 0x157D8B2ECC70800 PUSH2 0x1283 JUMP JUMPDEST PUSH2 0x5F9 SWAP1 PUSH8 0x5310AA7D5213000 PUSH2 0x1283 JUMP JUMPDEST PUSH2 0x5F9 SWAP1 PUSH8 0xDE0CC3D15610000 PUSH2 0x1283 JUMP JUMPDEST SWAP2 POP DUP2 PUSH8 0x119000AB100FFC00 PUSH2 0xCC1 DUP8 DUP1 PUSH2 0x6FA JUMP JUMPDEST PUSH2 0xCCD SWAP1 PUSH1 0x0 NOT PUSH2 0x120F JUMP JUMPDEST PUSH2 0xCD7 SWAP2 SWAP1 PUSH2 0x12AB JUMP JUMPDEST PUSH2 0xCE1 SWAP2 SWAP1 PUSH2 0x1283 JUMP JUMPDEST SWAP3 POP PUSH1 0x0 SWAP1 POP PUSH2 0xCF0 DUP4 PUSH2 0x70F JUMP JUMPDEST SWAP1 POP PUSH1 0x0 PUSH2 0xCFE DUP6 DUP4 PUSH2 0x6FA JUMP JUMPDEST SWAP1 POP PUSH1 0x0 DUP9 SLT PUSH2 0xD0E JUMPI DUP1 PUSH2 0x6EE JUMP JUMPDEST PUSH2 0x6EE DUP2 PUSH8 0x1BC16D674EC80000 PUSH2 0x12AB JUMP JUMPDEST DUP3 DUP3 MUL DUP2 ISZERO ISZERO DUP5 ISZERO DUP6 DUP4 SDIV DUP6 EQ OR AND PUSH2 0xD38 JUMPI PUSH1 0x0 DUP1 REVERT JUMPDEST SDIV SWAP3 SWAP2 POP POP JUMP JUMPDEST PUSH1 0x0 DUP1 DUP3 GT PUSH2 0xD60 JUMPI PUSH1 0x40 MLOAD PUSH3 0x461BCD PUSH1 0xE5 SHL DUP2 MSTORE PUSH1 0x4 ADD PUSH2 0xD0 SWAP1 PUSH2 0x133F JUMP JUMPDEST POP PUSH1 0x1 PUSH1 0x1 PUSH1 0x1 PUSH1 0x80 SHL SUB DUP3 GT PUSH1 0x7 SHL DUP3 DUP2 SHR PUSH1 0x1 PUSH1 0x1 PUSH1 0x40 SHL SUB LT PUSH1 0x6 SHL OR DUP3 DUP2 SHR PUSH4 0xFFFFFFFF LT PUSH1 0x5 SHL OR DUP3 DUP2 SHR PUSH2 0xFFFF LT PUSH1 0x4 SHL OR DUP3 DUP2 SHR PUSH1 0xFF LT PUSH1 0x3 SWAP1 DUP2 SHL SWAP1 SWAP2 OR DUP4 DUP2 SHR PUSH1 0xF LT PUSH1 0x2 SHL OR DUP4 DUP2 SHR SWAP1 SWAP2 LT DUP3 SHL OR SWAP2 DUP3 SHR GT OR SWAP1 JUMP JUMPDEST PUSH1 0x0 PUSH1 0x1 PUSH1 0xFF SHL DUP3 SUB PUSH2 0xDE7 JUMPI PUSH1 0x40 MLOAD PUSH4 0x4D2D75B1 PUSH1 0xE0 SHL DUP2 MSTORE PUSH1 0x4 ADD PUSH1 0x40 MLOAD DUP1 SWAP2 SUB SWAP1 REVERT JUMPDEST PUSH1 0x0 DUP3 SLT ISZERO PUSH2 0xDF8 JUMPI POP NOT PUSH1 0x1 ADD SWAP1 JUMP JUMPDEST POP DUP1 JUMPDEST SWAP2 SWAP1 POP JUMP JUMPDEST PUSH1 0x0 PUSH2 0x408 DUP4 PUSH8 0xDE0B6B3A7640000 DUP5 PUSH2 0xE1B JUMP JUMPDEST SWAP3 SWAP2 POP POP JUMP JUMPDEST DUP3 DUP3 MUL DUP2 ISZERO ISZERO DUP5 ISZERO DUP6 DUP4 DIV DUP6 EQ OR AND PUSH2 0xE33 JUMPI PUSH1 0x0 DUP1 REVERT JUMPDEST DIV SWAP3 SWAP2 POP POP JUMP JUMPDEST DUP1 MLOAD PUSH1 0x1 PUSH1 0x1 PUSH1 0xA0 SHL SUB DUP2 AND DUP2 EQ PUSH2 0xDFB JUMPI PUSH1 0x0 DUP1 REVERT JUMPDEST PUSH4 0x4E487B71 PUSH1 0xE0 SHL PUSH1 0x0 MSTORE PUSH1 0x41 PUSH1 0x4 MSTORE PUSH1 0x24 PUSH1 0x0 REVERT JUMPDEST PUSH1 0x40 MLOAD PUSH2 0x140 DUP2 ADD PUSH1 0x1 PUSH1 0x1 PUSH1 0x40 SHL SUB DUP2 GT DUP3 DUP3 LT OR ISZERO PUSH2 0xE8A JUMPI PUSH2 0xE8A PUSH2 0xE51 JUMP JUMPDEST PUSH1 0x40 MSTORE SWAP1 JUMP JUMPDEST PUSH1 0x40 MLOAD PUSH1 0x1F DUP3 ADD PUSH1 0x1F NOT AND DUP2 ADD PUSH1 0x1 PUSH1 0x1 PUSH1 0x40 SHL SUB DUP2 GT DUP3 DUP3 LT OR ISZERO PUSH2 0xEB8 JUMPI PUSH2 0xEB8 PUSH2 0xE51 JUMP JUMPDEST PUSH1 0x40 MSTORE SWAP2 SWAP1 POP JUMP JUMPDEST DUP1 MLOAD PUSH1 0x4 DUP2 LT PUSH2 0xDFB JUMPI PUSH1 0x0 DUP1 REVERT JUMPDEST DUP1 MLOAD PUSH2 0xFFFF DUP2 AND DUP2 EQ PUSH2 0xDFB JUMPI PUSH1 0x0 DUP1 REVERT JUMPDEST PUSH1 0x0 DUP3 PUSH1 0x1F DUP4 ADD SLT PUSH2 0xEF2 JUMPI PUSH1 0x0 DUP1 REVERT JUMPDEST DUP2 MLOAD PUSH1 0x1 PUSH1 0x1 PUSH1 0x40 SHL SUB DUP2 GT ISZERO PUSH2 0xF0B JUMPI PUSH2 0xF0B PUSH2 0xE51 JUMP JUMPDEST PUSH2 0xF1E PUSH1 0x1F DUP3 ADD PUSH1 0x1F NOT AND PUSH1 0x20 ADD PUSH2 0xE90 JUMP JUMPDEST DUP2 DUP2 MSTORE DUP5 PUSH1 0x20 DUP4 DUP7 ADD ADD GT ISZERO PUSH2 0xF33 JUMPI PUSH1 0x0 DUP1 REVERT JUMPDEST PUSH1 0x0 JUMPDEST DUP3 DUP2 LT ISZERO PUSH2 0xF52 JUMPI PUSH1 0x20 DUP2 DUP7 ADD DUP2 ADD MLOAD DUP4 DUP4 ADD DUP3 ADD MSTORE ADD PUSH2 0xF36 JUMP JUMPDEST POP PUSH1 0x0 SWAP2 DUP2 ADD PUSH1 0x20 ADD SWAP2 SWAP1 SWAP2 MSTORE SWAP4 SWAP3 POP POP POP JUMP JUMPDEST DUP1 MLOAD PUSH1 0x1 PUSH1 0x1 PUSH1 0x40 SHL SUB DUP2 AND DUP2 EQ PUSH2 0xDFB JUMPI PUSH1 0x0 DUP1 REVERT JUMPDEST PUSH1 0x0 DUP1 PUSH1 0x40 DUP4 DUP6 SUB SLT ISZERO PUSH2 0xF90 JUMPI PUSH1 0x0 DUP1 REVERT JUMPDEST PUSH2 0xF99 DUP4 PUSH2 0xE3A JUMP JUMPDEST PUSH1 0x20 DUP5 ADD MLOAD SWAP1 SWAP3 POP PUSH1 0x1 PUSH1 0x1 PUSH1 0x40 SHL SUB DUP2 GT ISZERO PUSH2 0xFB5 JUMPI PUSH1 0x0 DUP1 REVERT JUMPDEST DUP4 ADD PUSH2 0x140 DUP2 DUP7 SUB SLT ISZERO PUSH2 0xFC8 JUMPI PUSH1 0x0 DUP1 REVERT JUMPDEST PUSH2 0xFD0 PUSH2 0xE67 JUMP JUMPDEST PUSH2 0xFD9 DUP3 PUSH2 0xEC0 JUMP JUMPDEST DUP2 MSTORE PUSH2 0xFE7 PUSH1 0x20 DUP4 ADD PUSH2 0xE3A JUMP JUMPDEST PUSH1 0x20 DUP3 ADD MSTORE PUSH2 0xFF8 PUSH1 0x40 DUP4 ADD PUSH2 0xE3A JUMP JUMPDEST PUSH1 0x40 DUP3 ADD MSTORE PUSH2 0x1009 PUSH1 0x60 DUP4 ADD PUSH2 0xE3A JUMP JUMPDEST PUSH1 0x60 DUP3 ADD MSTORE PUSH2 0x101A PUSH1 0x80 DUP4 ADD PUSH2 0xECF JUMP JUMPDEST PUSH1 0x80 DUP3 ADD MSTORE PUSH1 0xA0 DUP3 ADD MLOAD PUSH1 0x1 PUSH1 0x1 PUSH1 0x40 SHL SUB DUP2 GT ISZERO PUSH2 0x1038 JUMPI PUSH1 0x0 DUP1 REVERT JUMPDEST PUSH2 0x1044 DUP8 DUP3 DUP6 ADD PUSH2 0xEE1 JUMP JUMPDEST PUSH1 0xA0 DUP4 ADD MSTORE POP PUSH1 0xC0 DUP3 ADD MLOAD PUSH1 0x1 PUSH1 0x1 PUSH1 0x40 SHL SUB DUP2 GT ISZERO PUSH2 0x1063 JUMPI PUSH1 0x0 DUP1 REVERT JUMPDEST PUSH2 0x106F DUP8 DUP3 DUP6 ADD PUSH2 0xEE1 JUMP JUMPDEST PUSH1 0xC0 DUP4 ADD MSTORE POP PUSH2 0x1081 PUSH1 0xE0 DUP4 ADD PUSH2 0xECF JUMP JUMPDEST PUSH1 0xE0 DUP3 ADD MSTORE PUSH2 0x1093 PUSH2 0x100 DUP4 ADD PUSH2 0xECF JUMP JUMPDEST PUSH2 0x100 DUP3 ADD MSTORE PUSH2 0x10A6 PUSH2 0x120 DUP4 ADD PUSH2 0xF66 JUMP JUMPDEST PUSH2 0x120 DUP3 ADD MSTORE DUP1 SWAP3 POP POP POP SWAP3 POP SWAP3 SWAP1 POP JUMP JUMPDEST PUSH1 0x1 DUP2 DUP2 SHR SWAP1 DUP3 AND DUP1 PUSH2 0x10CC JUMPI PUSH1 0x7F DUP3 AND SWAP2 POP JUMPDEST PUSH1 0x20 DUP3 LT DUP2 SUB PUSH2 0x473 JUMPI PUSH4 0x4E487B71 PUSH1 0xE0 SHL PUSH1 0x0 MSTORE PUSH1 0x22 PUSH1 0x4 MSTORE PUSH1 0x24 PUSH1 0x0 REVERT JUMPDEST PUSH1 0x1F DUP3 GT ISZERO PUSH2 0x1136 JUMPI DUP1 PUSH1 0x0 MSTORE PUSH1 0x20 PUSH1 0x0 KECCAK256 PUSH1 0x1F DUP5 ADD PUSH1 0x5 SHR DUP2 ADD PUSH1 0x20 DUP6 LT ISZERO PUSH2 0x1113 JUMPI POP DUP1 JUMPDEST PUSH1 0x1F DUP5 ADD PUSH1 0x5 SHR DUP3 ADD SWAP2 POP JUMPDEST DUP2 DUP2 LT ISZERO PUSH2 0x1133 JUMPI PUSH1 0x0 DUP2 SSTORE PUSH1 0x1 ADD PUSH2 0x111F JUMP JUMPDEST POP POP JUMPDEST POP POP POP JUMP JUMPDEST DUP2 MLOAD PUSH1 0x1 PUSH1 0x1 PUSH1 0x40 SHL SUB DUP2 GT ISZERO PUSH2 0x1154 JUMPI PUSH2 0x1154 PUSH2 0xE51 JUMP JUMPDEST PUSH2 0x1168 DUP2 PUSH2 0x1162 DUP5 SLOAD PUSH2 0x10B8 JUMP JUMPDEST DUP5 PUSH2 0x10EC JUMP JUMPDEST PUSH1 0x20 PUSH1 0x1F DUP3 GT PUSH1 0x1 DUP2 EQ PUSH2 0x119C JUMPI PUSH1 0x0 DUP4 ISZERO PUSH2 0x1184 JUMPI POP DUP5 DUP3 ADD MLOAD JUMPDEST PUSH1 0x0 NOT PUSH1 0x3 DUP6 SWAP1 SHL SHR NOT AND PUSH1 0x1 DUP5 SWAP1 SHL OR DUP5 SSTORE PUSH2 0x1133 JUMP JUMPDEST PUSH1 0x0 DUP5 DUP2 MSTORE PUSH1 0x20 DUP2 KECCAK256 PUSH1 0x1F NOT DUP6 AND SWAP2 JUMPDEST DUP3 DUP2 LT ISZERO PUSH2 0x11CC JUMPI DUP8 DUP6 ADD MLOAD DUP3 SSTORE PUSH1 0x20 SWAP5 DUP6 ADD SWAP5 PUSH1 0x1 SWAP1 SWAP3 ADD SWAP2 ADD PUSH2 0x11AC JUMP JUMPDEST POP DUP5 DUP3 LT ISZERO PUSH2 0x11EA JUMPI DUP7 DUP5 ADD MLOAD PUSH1 0x0 NOT PUSH1 0x3 DUP8 SWAP1 SHL PUSH1 0xF8 AND SHR NOT AND DUP2 SSTORE JUMPDEST POP POP POP POP PUSH1 0x1 SWAP1 DUP2 SHL ADD SWAP1 SSTORE POP JUMP JUMPDEST PUSH4 0x4E487B71 PUSH1 0xE0 SHL PUSH1 0x0 MSTORE PUSH1 0x11 PUSH1 0x4 MSTORE PUSH1 0x24 PUSH1 0x0 REVERT JUMPDEST DUP1 DUP3 MUL PUSH1 0x0 DUP3 SLT PUSH1 0x1 PUSH1 0xFF SHL DUP5 EQ AND ISZERO PUSH2 0x122B JUMPI PUSH2 0x122B PUSH2 0x11F9 JUMP JUMPDEST DUP2 DUP2 SDIV DUP4 EQ DUP3 ISZERO OR PUSH2 0xE15 JUMPI PUSH2 0xE15 PUSH2 0x11F9 JUMP JUMPDEST PUSH4 0x4E487B71 PUSH1 0xE0 SHL PUSH1 0x0 MSTORE PUSH1 0x12 PUSH1 0x4 MSTORE PUSH1 0x24 PUSH1 0x0 REVERT JUMPDEST PUSH1 0x0 DUP3 PUSH2 0x1264 JUMPI PUSH2 0x1264 PUSH2 0x123F JUMP JUMPDEST PUSH1 0x1 PUSH1 0xFF SHL DUP3 EQ PUSH1 0x0 NOT DUP5 EQ AND ISZERO PUSH2 0x127E JUMPI PUSH2 0x127E PUSH2 0x11F9 JUMP JUMPDEST POP SDIV SWAP1 JUMP JUMPDEST DUP1 DUP3 ADD DUP3 DUP2 SLT PUSH1 0x0 DUP4 SLT DUP1 ISZERO DUP3 AND DUP3 ISZERO DUP3 AND OR ISZERO PUSH2 0x12A3 JUMPI PUSH2 0x12A3 PUSH2 0x11F9 JUMP JUMPDEST POP POP SWAP3 SWAP2 POP POP JUMP JUMPDEST DUP2 DUP2 SUB PUSH1 0x0 DUP4 SLT DUP1 ISZERO DUP4 DUP4 SGT AND DUP4 DUP4 SLT DUP3 AND OR ISZERO PUSH2 0x12CB JUMPI PUSH2 0x12CB PUSH2 0x11F9 JUMP JUMPDEST POP SWAP3 SWAP2 POP POP JUMP JUMPDEST DUP2 DUP2 SUB DUP2 DUP2 GT ISZERO PUSH2 0xE15 JUMPI PUSH2 0xE15 PUSH2 0x11F9 JUMP JUMPDEST DUP1 DUP3 MUL DUP2 ISZERO DUP3 DUP3 DIV DUP5 EQ OR PUSH2 0xE15 JUMPI PUSH2 0xE15 PUSH2 0x11F9 JUMP JUMPDEST PUSH1 0x0 PUSH1 0x1 PUSH1 0xFF SHL DUP3 ADD PUSH2 0x1311 JUMPI PUSH2 0x1311 PUSH2 0x11F9 JUMP JUMPDEST POP PUSH1 0x0 SUB SWAP1 JUMP JUMPDEST DUP1 DUP3 ADD DUP1 DUP3 GT ISZERO PUSH2 0xE15 JUMPI PUSH2 0xE15 PUSH2 0x11F9 JUMP JUMPDEST PUSH1 0x0 DUP3 PUSH2 0x133A JUMPI PUSH2 0x133A PUSH2 0x123F JUMP JUMPDEST POP DIV SWAP1 JUMP JUMPDEST PUSH1 0x20 DUP1 DUP3 MSTORE PUSH1 0x9 SWAP1 DUP3 ADD MSTORE PUSH9 0x155391115192539151 PUSH1 0xBA SHL PUSH1 0x40 DUP3 ADD MSTORE PUSH1 0x60 ADD SWAP1 JUMP JUMPDEST PUSH1 0x80 MLOAD PUSH1 0xA0 MLOAD PUSH1 0xC0 MLOAD PUSH1 0xE0 MLOAD PUSH2 0x100 MLOAD PUSH2 0x120 MLOAD PUSH2 0x140 MLOAD PUSH2 0x2D54 PUSH2 0x146B PUSH1 0x0 CODECOPY PUSH1 0x0 DUP2 DUP2 PUSH2 0x574 ADD MSTORE DUP2 DUP2 PUSH2 0xB5E ADD MSTORE PUSH2 0xCE1 ADD MSTORE PUSH1 0x0 DUP2 DUP2 PUSH2 0x711 ADD MSTORE DUP2 DUP2 PUSH2 0x160E ADD MSTORE DUP2 DUP2 PUSH2 0x16C0 ADD MSTORE PUSH2 0x16E7 ADD MSTORE PUSH1 0x0 DUP2 DUP2 PUSH2 0x34F ADD MSTORE DUP2 DUP2 PUSH2 0xB1E ADD MSTORE DUP2 DUP2 PUSH2 0xC9D ADD MSTORE PUSH2 0x128A ADD MSTORE PUSH1 0x0 DUP2 DUP2 PUSH2 0x6DD ADD MSTORE DUP2 DUP2 PUSH2 0xC7B ADD MSTORE PUSH2 0x12BC ADD MSTORE PUSH1 0x0 DUP2 DUP2 PUSH2 0x540 ADD MSTORE DUP2 DUP2 PUSH2 0x8AD ADD MSTORE DUP2 DUP2 PUSH2 0xA9B ADD MSTORE DUP2 DUP2 PUSH2 0x100B ADD MSTORE DUP2 DUP2 PUSH2 0x1593 ADD MSTORE DUP2 DUP2 PUSH2 0x169E ADD MSTORE DUP2 DUP2 PUSH2 0x19C6 ADD MSTORE DUP2 DUP2 PUSH2 0x1BFE ADD MSTORE PUSH2 0x1D44 ADD MSTORE PUSH1 0x0 DUP2 DUP2 PUSH2 0x2E1 ADD MSTORE DUP2 DUP2 PUSH2 0x829 ADD MSTORE DUP2 DUP2 PUSH2 0xCBF ADD MSTORE DUP2 DUP2 PUSH2 0x1068 ADD MSTORE DUP2 DUP2 PUSH2 0x10AD ADD MSTORE DUP2 DUP2 PUSH2 0x1119 ADD MSTORE PUSH2 0x1779 ADD MSTORE PUSH1 0x0 DUP2 DUP2 PUSH2 0x48B ADD MSTORE PUSH2 0x10E0 ADD MSTORE PUSH2 0x2D54 PUSH1 0x0 RETURN INVALID PUSH1 0x80 PUSH1 0x40 MSTORE PUSH1 0x4 CALLDATASIZE LT PUSH2 0x1CF JUMPI PUSH1 0x0 CALLDATALOAD PUSH1 0xE0 SHR DUP1 PUSH4 0x1A9812C EQ PUSH2 0x1DB JUMPI DUP1 PUSH4 0x1C11D96 EQ PUSH2 0x1FD JUMPI DUP1 PUSH4 0xBEDE3F8 EQ PUSH2 0x22C JUMPI DUP1 PUSH4 0x16953F02 EQ PUSH2 0x24C JUMPI DUP1 PUSH4 0x23341A05 EQ PUSH2 0x262 JUMPI DUP1 PUSH4 0x27793F87 EQ PUSH2 0x28F JUMPI DUP1 PUSH4 0x27C7FF61 EQ PUSH2 0x2B9 JUMPI DUP1 PUSH4 0x37BA682D EQ PUSH2 0x2CF JUMPI DUP1 PUSH4 0x3FAD9AE0 EQ PUSH2 0x31B JUMPI DUP1 PUSH4 0x4D77532D EQ PUSH2 0x33D JUMPI DUP1 PUSH4 0x4E71D92D EQ PUSH2 0x37E JUMPI DUP1 PUSH4 0x539AA77F EQ PUSH2 0x393 JUMPI DUP1 PUSH4 0x587F5ED7 EQ PUSH2 0x3BB JUMPI DUP1 PUSH4 0x5B7C2DAD EQ PUSH2 0x3D1 JUMPI DUP1 PUSH4 0x6015E924 EQ PUSH2 0x44E JUMPI DUP1 PUSH4 0x6454C98A EQ PUSH2 0x464 JUMPI DUP1 PUSH4 0x687D70E3 EQ PUSH2 0x479 JUMPI DUP1 PUSH4 0x6AEB42FD EQ PUSH2 0x4AD JUMPI DUP1 PUSH4 0x7284E416 EQ PUSH2 0x4D4 JUMPI DUP1 PUSH4 0x73B2E80E EQ PUSH2 0x4E9 JUMPI DUP1 PUSH4 0x77678414 EQ PUSH2 0x519 JUMPI DUP1 PUSH4 0x82BFEFC8 EQ PUSH2 0x52E JUMPI DUP1 PUSH4 0x8C3769A8 EQ PUSH2 0x562 JUMPI DUP1 PUSH4 0x93D0CBB8 EQ PUSH2 0x5AE JUMPI DUP1 PUSH4 0x99839D66 EQ PUSH2 0x5DC JUMPI DUP1 PUSH4 0x9FB2FFF4 EQ PUSH2 0x5F2 JUMPI DUP1 PUSH4 0xA8910E11 EQ PUSH2 0x607 JUMPI DUP1 PUSH4 0xB5545A3C EQ PUSH2 0x627 JUMPI DUP1 PUSH4 0xB6D74CA1 EQ PUSH2 0x63C JUMPI DUP1 PUSH4 0xC19D93FB EQ PUSH2 0x65E JUMPI DUP1 PUSH4 0xC8796572 EQ PUSH2 0x685 JUMPI DUP1 PUSH4 0xD12F7029 EQ PUSH2 0x69A JUMPI DUP1 PUSH4 0xDD4D7BF7 EQ PUSH2 0x6B6 JUMPI DUP1 PUSH4 0xE4FBB609 EQ PUSH2 0x6CB JUMPI DUP1 PUSH4 0xEBD09054 EQ PUSH2 0x6FF JUMPI DUP1 PUSH4 0xEE26EED1 EQ PUSH2 0x733 JUMPI DUP1 PUSH4 0xEFD9F699 EQ PUSH2 0x77C JUMPI DUP1 PUSH4 0xF957934C EQ PUSH2 0x79C JUMPI DUP1 PUSH4 0xFC4B6B50 EQ PUSH2 0x7BC JUMPI DUP1 PUSH4 0xFF0ECCF6 EQ PUSH2 0x7D2 JUMPI PUSH1 0x0 DUP1 REVERT JUMPDEST CALLDATASIZE PUSH2 0x1D6 JUMPI STOP JUMPDEST PUSH1 0x0 DUP1 REVERT JUMPDEST CALLVALUE DUP1 ISZERO PUSH2 0x1E7 JUMPI PUSH1 0x0 DUP1 REVERT JUMPDEST POP PUSH2 0x1FB PUSH2 0x1F6 CALLDATASIZE PUSH1 0x4 PUSH2 0x275E JUMP JUMPDEST PUSH2 0x7E8 JUMP JUMPDEST STOP JUMPDEST CALLVALUE DUP1 ISZERO PUSH2 0x209 JUMPI PUSH1 0x0 DUP1 REVERT JUMPDEST POP PUSH2 0x219 PUSH8 0xDE0B6B3A7640000 DUP2 JUMP JUMPDEST PUSH1 0x40 MLOAD SWAP1 DUP2 MSTORE PUSH1 0x20 ADD JUMPDEST PUSH1 0x40 MLOAD DUP1 SWAP2 SUB SWAP1 RETURN JUMPDEST CALLVALUE DUP1 ISZERO PUSH2 0x238 JUMPI PUSH1 0x0 DUP1 REVERT JUMPDEST POP PUSH2 0x1FB PUSH2 0x247 CALLDATASIZE PUSH1 0x4 PUSH2 0x2791 JUMP JUMPDEST PUSH2 0xB13 JUMP JUMPDEST CALLVALUE DUP1 ISZERO PUSH2 0x258 JUMPI PUSH1 0x0 DUP1 REVERT JUMPDEST POP PUSH2 0x219 PUSH1 0x7 SLOAD DUP2 JUMP JUMPDEST CALLVALUE DUP1 ISZERO PUSH2 0x26E JUMPI PUSH1 0x0 DUP1 REVERT JUMPDEST POP PUSH2 0x277 PUSH2 0xC52 JUMP JUMPDEST PUSH1 0x40 MLOAD PUSH2 0x223 SWAP13 SWAP12 SWAP11 SWAP10 SWAP9 SWAP8 SWAP7 SWAP6 SWAP5 SWAP4 SWAP3 SWAP2 SWAP1 PUSH2 0x2839 JUMP JUMPDEST CALLVALUE DUP1 ISZERO PUSH2 0x29B JUMPI PUSH1 0x0 DUP1 REVERT JUMPDEST POP PUSH1 0x5 SLOAD PUSH2 0x2A9 SWAP1 PUSH1 0xFF AND DUP2 JUMP JUMPDEST PUSH1 0x40 MLOAD SWAP1 ISZERO ISZERO DUP2 MSTORE PUSH1 0x20 ADD PUSH2 0x223 JUMP JUMPDEST CALLVALUE DUP1 ISZERO PUSH2 0x2C5 JUMPI PUSH1 0x0 DUP1 REVERT JUMPDEST POP PUSH2 0x219 PUSH1 0x8 SLOAD DUP2 JUMP JUMPDEST CALLVALUE DUP1 ISZERO PUSH2 0x2DB JUMPI PUSH1 0x0 DUP1 REVERT JUMPDEST POP PUSH2 0x303 PUSH32 0x0 DUP2 JUMP JUMPDEST PUSH1 0x40 MLOAD PUSH1 0x1 PUSH1 0x1 PUSH1 0x60 SHL SUB SWAP1 SWAP2 AND DUP2 MSTORE PUSH1 0x20 ADD PUSH2 0x223 JUMP JUMPDEST CALLVALUE DUP1 ISZERO PUSH2 0x327 JUMPI PUSH1 0x0 DUP1 REVERT JUMPDEST POP PUSH2 0x330 PUSH2 0xE57 JUMP JUMPDEST PUSH1 0x40 MLOAD PUSH2 0x223 SWAP2 SWAP1 PUSH2 0x28E7 JUMP JUMPDEST CALLVALUE DUP1 ISZERO PUSH2 0x349 JUMPI PUSH1 0x0 DUP1 REVERT JUMPDEST POP PUSH2 0x371 PUSH32 0x0 DUP2 JUMP JUMPDEST PUSH1 0x40 MLOAD PUSH2 0x223 SWAP2 SWAP1 PUSH2 0x28FA JUMP JUMPDEST CALLVALUE DUP1 ISZERO PUSH2 0x38A JUMPI PUSH1 0x0 DUP1 REVERT JUMPDEST POP PUSH2 0x219 PUSH2 0xEE5 JUMP JUMPDEST CALLVALUE DUP1 ISZERO PUSH2 0x39F JUMPI PUSH1 0x0 DUP1 REVERT JUMPDEST POP PUSH2 0x3A8 PUSH1 0xA DUP2 JUMP JUMPDEST PUSH1 0x40 MLOAD PUSH2 0xFFFF SWAP1 SWAP2 AND DUP2 MSTORE PUSH1 0x20 ADD PUSH2 0x223 JUMP JUMPDEST CALLVALUE DUP1 ISZERO PUSH2 0x3C7 JUMPI PUSH1 0x0 DUP1 REVERT JUMPDEST POP PUSH2 0x219 PUSH1 0x9 SLOAD DUP2 JUMP JUMPDEST CALLVALUE DUP1 ISZERO PUSH2 0x3DD JUMPI PUSH1 0x0 DUP1 REVERT JUMPDEST POP PUSH2 0x433 PUSH2 0x3EC CALLDATASIZE PUSH1 0x4 PUSH2 0x2925 JUMP JUMPDEST PUSH1 0x40 DUP1 MLOAD DUP1 DUP3 ADD SWAP1 SWAP2 MSTORE PUSH1 0x0 DUP1 DUP3 MSTORE PUSH1 0x20 DUP3 ADD MSTORE POP PUSH1 0x1 PUSH1 0x1 PUSH1 0xA0 SHL SUB AND PUSH1 0x0 SWAP1 DUP2 MSTORE PUSH1 0xA PUSH1 0x20 SWAP1 DUP2 MSTORE PUSH1 0x40 SWAP2 DUP3 SWAP1 KECCAK256 DUP3 MLOAD DUP1 DUP5 ADD SWAP1 SWAP4 MSTORE DUP1 SLOAD DUP4 MSTORE PUSH1 0x1 ADD SLOAD SWAP1 DUP3 ADD MSTORE SWAP1 JUMP JUMPDEST PUSH1 0x40 DUP1 MLOAD DUP3 MLOAD DUP2 MSTORE PUSH1 0x20 SWAP3 DUP4 ADD MLOAD SWAP3 DUP2 ADD SWAP3 SWAP1 SWAP3 MSTORE ADD PUSH2 0x223 JUMP JUMPDEST CALLVALUE DUP1 ISZERO PUSH2 0x45A JUMPI PUSH1 0x0 DUP1 REVERT JUMPDEST POP PUSH2 0x3A8 PUSH2 0x2710 DUP2 JUMP JUMPDEST CALLVALUE DUP1 ISZERO PUSH2 0x470 JUMPI PUSH1 0x0 DUP1 REVERT JUMPDEST POP PUSH2 0x219 PUSH2 0x1063 JUMP JUMPDEST CALLVALUE DUP1 ISZERO PUSH2 0x485 JUMPI PUSH1 0x0 DUP1 REVERT JUMPDEST POP PUSH2 0x3A8 PUSH32 0x0 DUP2 JUMP JUMPDEST CALLVALUE DUP1 ISZERO PUSH2 0x4B9 JUMPI PUSH1 0x0 DUP1 REVERT JUMPDEST POP PUSH2 0x4C2 PUSH1 0x12 DUP2 JUMP JUMPDEST PUSH1 0x40 MLOAD PUSH1 0xFF SWAP1 SWAP2 AND DUP2 MSTORE PUSH1 0x20 ADD PUSH2 0x223 JUMP JUMPDEST CALLVALUE DUP1 ISZERO PUSH2 0x4E0 JUMPI PUSH1 0x0 DUP1 REVERT JUMPDEST POP PUSH2 0x330 PUSH2 0x110A JUMP JUMPDEST CALLVALUE DUP1 ISZERO PUSH2 0x4F5 JUMPI PUSH1 0x0 DUP1 REVERT JUMPDEST POP PUSH2 0x2A9 PUSH2 0x504 CALLDATASIZE PUSH1 0x4 PUSH2 0x2925 JUMP JUMPDEST PUSH1 0xB PUSH1 0x20 MSTORE PUSH1 0x0 SWAP1 DUP2 MSTORE PUSH1 0x40 SWAP1 KECCAK256 SLOAD PUSH1 0xFF AND DUP2 JUMP JUMPDEST CALLVALUE DUP1 ISZERO PUSH2 0x525 JUMPI PUSH1 0x0 DUP1 REVERT JUMPDEST POP PUSH2 0x1FB PUSH2 0x1117 JUMP JUMPDEST CALLVALUE DUP1 ISZERO PUSH2 0x53A JUMPI PUSH1 0x0 DUP1 REVERT JUMPDEST POP PUSH2 0x371 PUSH32 0x0 DUP2 JUMP JUMPDEST CALLVALUE DUP1 ISZERO PUSH2 0x56E JUMPI PUSH1 0x0 DUP1 REVERT JUMPDEST POP PUSH2 0x596 PUSH32 0x0 DUP2 JUMP JUMPDEST PUSH1 0x40 MLOAD PUSH1 0x1 PUSH1 0x1 PUSH1 0x40 SHL SUB SWAP1 SWAP2 AND DUP2 MSTORE PUSH1 0x20 ADD PUSH2 0x223 JUMP JUMPDEST CALLVALUE DUP1 ISZERO PUSH2 0x5BA JUMPI PUSH1 0x0 DUP1 REVERT JUMPDEST POP PUSH2 0x5CE PUSH2 0x5C9 CALLDATASIZE PUSH1 0x4 PUSH2 0x2940 JUMP JUMPDEST PUSH2 0x11C1 JUMP JUMPDEST PUSH1 0x40 MLOAD PUSH2 0x223 SWAP3 SWAP2 SWAP1 PUSH2 0x296A JUMP JUMPDEST CALLVALUE DUP1 ISZERO PUSH2 0x5E8 JUMPI PUSH1 0x0 DUP1 REVERT JUMPDEST POP PUSH2 0x219 PUSH1 0x1 SLOAD DUP2 JUMP JUMPDEST CALLVALUE DUP1 ISZERO PUSH2 0x5FE JUMPI PUSH1 0x0 DUP1 REVERT JUMPDEST POP PUSH2 0x1FB PUSH2 0x127F JUMP JUMPDEST CALLVALUE DUP1 ISZERO PUSH2 0x613 JUMPI PUSH1 0x0 DUP1 REVERT JUMPDEST POP PUSH2 0x5CE PUSH2 0x622 CALLDATASIZE PUSH1 0x4 PUSH2 0x2940 JUMP JUMPDEST PUSH2 0x1395 JUMP JUMPDEST CALLVALUE DUP1 ISZERO PUSH2 0x633 JUMPI PUSH1 0x0 DUP1 REVERT JUMPDEST POP PUSH2 0x219 PUSH2 0x144F JUMP JUMPDEST CALLVALUE DUP1 ISZERO PUSH2 0x648 JUMPI PUSH1 0x0 DUP1 REVERT JUMPDEST POP PUSH2 0x651 PUSH2 0x15ED JUMP JUMPDEST PUSH1 0x40 MLOAD PUSH2 0x223 SWAP2 SWAP1 PUSH2 0x297E JUMP JUMPDEST CALLVALUE DUP1 ISZERO PUSH2 0x66A JUMPI PUSH1 0x0 DUP1 REVERT JUMPDEST POP PUSH1 0x2 SLOAD PUSH2 0x678 SWAP1 PUSH1 0xFF AND DUP2 JUMP JUMPDEST PUSH1 0x40 MLOAD PUSH2 0x223 SWAP2 SWAP1 PUSH2 0x298C JUMP JUMPDEST CALLVALUE DUP1 ISZERO PUSH2 0x691 JUMPI PUSH1 0x0 DUP1 REVERT JUMPDEST POP PUSH2 0x1FB PUSH2 0x1603 JUMP JUMPDEST CALLVALUE DUP1 ISZERO PUSH2 0x6A6 JUMPI PUSH1 0x0 DUP1 REVERT JUMPDEST POP PUSH2 0x219 PUSH8 0x6F05B59D3B20000 DUP2 JUMP JUMPDEST CALLVALUE DUP1 ISZERO PUSH2 0x6C2 JUMPI PUSH1 0x0 DUP1 REVERT JUMPDEST POP PUSH2 0x3A8 PUSH1 0x1E DUP2 JUMP JUMPDEST CALLVALUE DUP1 ISZERO PUSH2 0x6D7 JUMPI PUSH1 0x0 DUP1 REVERT JUMPDEST POP PUSH2 0x371 PUSH32 0x0 DUP2 JUMP JUMPDEST CALLVALUE DUP1 ISZERO PUSH2 0x70B JUMPI PUSH1 0x0 DUP1 REVERT JUMPDEST POP PUSH2 0x371 PUSH32 0x0 DUP2 JUMP JUMPDEST CALLVALUE DUP1 ISZERO PUSH2 0x73F JUMPI PUSH1 0x0 DUP1 REVERT JUMPDEST POP PUSH2 0x767 PUSH2 0x74E CALLDATASIZE PUSH1 0x4 PUSH2 0x2925 JUMP JUMPDEST PUSH1 0xA PUSH1 0x20 MSTORE PUSH1 0x0 SWAP1 DUP2 MSTORE PUSH1 0x40 SWAP1 KECCAK256 DUP1 SLOAD PUSH1 0x1 SWAP1 SWAP2 ADD SLOAD DUP3 JUMP JUMPDEST PUSH1 0x40 DUP1 MLOAD SWAP3 DUP4 MSTORE PUSH1 0x20 DUP4 ADD SWAP2 SWAP1 SWAP2 MSTORE ADD PUSH2 0x223 JUMP JUMPDEST CALLVALUE DUP1 ISZERO PUSH2 0x788 JUMPI PUSH1 0x0 DUP1 REVERT JUMPDEST POP PUSH2 0x1FB PUSH2 0x797 CALLDATASIZE PUSH1 0x4 PUSH2 0x299A JUMP JUMPDEST PUSH2 0x1740 JUMP JUMPDEST CALLVALUE DUP1 ISZERO PUSH2 0x7A8 JUMPI PUSH1 0x0 DUP1 REVERT JUMPDEST POP PUSH2 0x651 PUSH2 0x7B7 CALLDATASIZE PUSH1 0x4 PUSH2 0x29E0 JUMP JUMPDEST PUSH2 0x1A35 JUMP JUMPDEST CALLVALUE DUP1 ISZERO PUSH2 0x7C8 JUMPI PUSH1 0x0 DUP1 REVERT JUMPDEST POP PUSH2 0x219 PUSH1 0x0 SLOAD DUP2 JUMP JUMPDEST CALLVALUE DUP1 ISZERO PUSH2 0x7DE JUMPI PUSH1 0x0 DUP1 REVERT JUMPDEST POP PUSH2 0x219 PUSH1 0x6 SLOAD DUP2 JUMP JUMPDEST PUSH2 0x7F0 PUSH2 0x1AA1 JUMP JUMPDEST PUSH1 0x0 PUSH1 0x2 SLOAD PUSH1 0xFF AND PUSH1 0x3 DUP2 GT ISZERO PUSH2 0x809 JUMPI PUSH2 0x809 PUSH2 0x27F2 JUMP JUMPDEST EQ PUSH2 0x827 JUMPI PUSH1 0x40 MLOAD PUSH4 0x32BD259 PUSH1 0xE4 SHL DUP2 MSTORE PUSH1 0x4 ADD PUSH1 0x40 MLOAD DUP1 SWAP2 SUB SWAP1 REVERT JUMPDEST PUSH32 0x0 PUSH1 0x1 PUSH1 0x1 PUSH1 0x60 SHL SUB AND TIMESTAMP LT PUSH2 0x870 JUMPI PUSH1 0x40 MLOAD PUSH4 0x32BD259 PUSH1 0xE4 SHL DUP2 MSTORE PUSH1 0x4 ADD PUSH1 0x40 MLOAD DUP1 SWAP2 SUB SWAP1 REVERT JUMPDEST PUSH1 0x0 PUSH1 0x1 SLOAD SGT DUP1 ISZERO PUSH2 0x883 JUMPI POP PUSH1 0x0 DUP1 SLOAD SGT JUMPDEST PUSH2 0x8A0 JUMPI PUSH1 0x40 MLOAD PUSH4 0x98CF49F9 PUSH1 0xE0 SHL DUP2 MSTORE PUSH1 0x4 ADD PUSH1 0x40 MLOAD DUP1 SWAP2 SUB SWAP1 REVERT JUMPDEST PUSH2 0x8D5 PUSH1 0x1 PUSH1 0x1 PUSH1 0xA0 SHL SUB PUSH32 0x0 AND CALLER ADDRESS DUP6 PUSH2 0x1ABC JUMP JUMPDEST PUSH2 0x8DD PUSH2 0x2734 JUMP JUMPDEST PUSH1 0x0 DUP1 PUSH1 0x0 DUP7 ISZERO PUSH2 0x954 JUMPI PUSH2 0x8F0 PUSH2 0x15ED JUMP JUMPDEST MLOAD CALLER PUSH1 0x0 SWAP1 DUP2 MSTORE PUSH1 0xA PUSH1 0x20 MSTORE PUSH1 0x40 DUP2 KECCAK256 DUP1 SLOAD SWAP3 SWAP6 POP DUP8 SWAP3 SWAP1 SWAP2 SWAP1 PUSH2 0x915 SWAP1 DUP5 SWAP1 PUSH2 0x2A18 JUMP JUMPDEST SWAP1 SWAP2 SSTORE POP PUSH2 0x926 SWAP1 POP PUSH1 0x1 DUP7 PUSH2 0x1AEF JUMP JUMPDEST SWAP1 POP DUP5 PUSH1 0x7 PUSH1 0x0 DUP3 DUP3 SLOAD PUSH2 0x93A SWAP2 SWAP1 PUSH2 0x2A18 JUMP JUMPDEST SWAP1 SWAP2 SSTORE POP PUSH2 0x948 SWAP1 POP PUSH2 0x15ED JUMP JUMPDEST DUP1 MLOAD SWAP1 SWAP5 POP SWAP2 POP PUSH2 0x9C5 JUMP JUMPDEST PUSH2 0x95C PUSH2 0x15ED JUMP JUMPDEST PUSH1 0x20 SWAP1 DUP2 ADD MLOAD CALLER PUSH1 0x0 SWAP1 DUP2 MSTORE PUSH1 0xA SWAP1 SWAP3 MSTORE PUSH1 0x40 DUP3 KECCAK256 PUSH1 0x1 ADD DUP1 SLOAD SWAP2 SWAP6 POP DUP8 SWAP3 SWAP1 SWAP2 PUSH2 0x988 SWAP1 DUP5 SWAP1 PUSH2 0x2A18 JUMP JUMPDEST SWAP1 SWAP2 SSTORE POP PUSH2 0x999 SWAP1 POP PUSH1 0x1 DUP7 PUSH2 0x1B6F JUMP JUMPDEST SWAP1 POP DUP5 PUSH1 0x8 PUSH1 0x0 DUP3 DUP3 SLOAD PUSH2 0x9AD SWAP2 SWAP1 PUSH2 0x2A18 JUMP JUMPDEST SWAP1 SWAP2 SSTORE POP PUSH2 0x9BB SWAP1 POP PUSH2 0x15ED JUMP JUMPDEST SWAP4 POP DUP4 PUSH1 0x20 ADD MLOAD SWAP2 POP JUMPDEST PUSH1 0x0 PUSH8 0x1BC16D674EC80000 DUP7 PUSH2 0x9DB DUP6 DUP8 PUSH2 0x2A2B JUMP JUMPDEST PUSH2 0x9E5 SWAP2 SWAP1 PUSH2 0x2A53 JUMP JUMPDEST PUSH2 0x9EF SWAP2 SWAP1 PUSH2 0x2A99 JUMP JUMPDEST SWAP1 POP PUSH1 0x0 PUSH2 0x9FC DUP3 PUSH2 0x1BF1 JUMP JUMPDEST SWAP1 POP DUP8 DUP2 GT ISZERO PUSH2 0xA27 JUMPI PUSH1 0x40 MLOAD PUSH3 0x461BCD PUSH1 0xE5 SHL DUP2 MSTORE PUSH1 0x4 ADD PUSH2 0xA1E SWAP1 PUSH2 0x2AC7 JUMP JUMPDEST PUSH1 0x40 MLOAD DUP1 SWAP2 SUB SWAP1 REVERT JUMPDEST PUSH1 0x0 PUSH2 0xA33 DUP3 DUP11 PUSH2 0x2AF5 JUMP JUMPDEST SWAP1 POP PUSH1 0x0 PUSH1 0x64 PUSH2 0xA44 PUSH1 0xA DUP6 PUSH2 0x2B08 JUMP JUMPDEST PUSH2 0xA4E SWAP2 SWAP1 PUSH2 0x2B1F JUMP JUMPDEST SWAP1 POP DUP1 PUSH1 0x9 PUSH1 0x0 DUP3 DUP3 SLOAD PUSH2 0xA62 SWAP2 SWAP1 PUSH2 0x2A18 JUMP JUMPDEST SWAP1 SWAP2 SSTORE POP PUSH1 0x0 SWAP1 POP PUSH2 0xA74 DUP3 DUP6 PUSH2 0x2AF5 JUMP JUMPDEST SWAP1 POP DUP1 PUSH1 0x6 PUSH1 0x0 DUP3 DUP3 SLOAD PUSH2 0xA88 SWAP2 SWAP1 PUSH2 0x2A18 JUMP JUMPDEST SWAP1 SWAP2 SSTORE POP PUSH2 0xAC3 SWAP1 POP PUSH1 0x1 PUSH1 0x1 PUSH1 0xA0 SHL SUB PUSH32 0x0 AND ADDRESS CALLER DUP7 PUSH2 0x1ABC JUMP JUMPDEST PUSH1 0x1 ISZERO ISZERO DUP13 ISZERO ISZERO CALLER PUSH1 0x1 PUSH1 0x1 PUSH1 0xA0 SHL SUB AND PUSH1 0x0 DUP1 MLOAD PUSH1 0x20 PUSH2 0x2CFF DUP4 CODECOPY DUP2 MLOAD SWAP2 MSTORE DUP14 DUP10 DUP15 PUSH1 0x40 MLOAD PUSH2 0xAF5 SWAP4 SWAP3 SWAP2 SWAP1 PUSH2 0x2B33 JUMP JUMPDEST PUSH1 0x40 MLOAD DUP1 SWAP2 SUB SWAP1 LOG4 POP POP POP POP POP POP POP POP POP PUSH2 0xB0E PUSH2 0x1C9D JUMP JUMPDEST POP POP POP JUMP JUMPDEST CALLER PUSH1 0x1 PUSH1 0x1 PUSH1 0xA0 SHL SUB PUSH32 0x0 AND EQ PUSH2 0xB5C JUMPI PUSH1 0x40 MLOAD PUSH4 0x46F83079 PUSH1 0xE1 SHL DUP2 MSTORE PUSH1 0x4 ADD PUSH1 0x40 MLOAD DUP1 SWAP2 SUB SWAP1 REVERT JUMPDEST PUSH32 0x0 PUSH1 0x1 PUSH1 0x1 PUSH1 0x40 SHL SUB AND TIMESTAMP LT ISZERO PUSH2 0xBA6 JUMPI PUSH1 0x40 MLOAD PUSH4 0xDBBD7377 PUSH1 0xE0 SHL DUP2 MSTORE PUSH1 0x4 ADD PUSH1 0x40 MLOAD DUP1 SWAP2 SUB SWAP1 REVERT JUMPDEST PUSH1 0x1 PUSH1 0x2 SLOAD PUSH1 0xFF AND PUSH1 0x3 DUP2 GT ISZERO PUSH2 0xBBF JUMPI PUSH2 0xBBF PUSH2 0x27F2 JUMP JUMPDEST EQ DUP1 PUSH2 0xBE1 JUMPI POP PUSH1 0x0 PUSH1 0x2 SLOAD PUSH1 0xFF AND PUSH1 0x3 DUP2 GT ISZERO PUSH2 0xBDF JUMPI PUSH2 0xBDF PUSH2 0x27F2 JUMP JUMPDEST EQ JUMPDEST PUSH2 0xBFE JUMPI PUSH1 0x40 MLOAD PUSH4 0xD3C27813 PUSH1 0xE0 SHL DUP2 MSTORE PUSH1 0x4 ADD PUSH1 0x40 MLOAD DUP1 SWAP2 SUB SWAP1 REVERT JUMPDEST PUSH1 0x5 DUP1 SLOAD DUP3 ISZERO ISZERO PUSH1 0xFF NOT SWAP2 DUP3 AND DUP2 OR SWAP1 SWAP3 SSTORE PUSH1 0x2 DUP1 SLOAD SWAP1 SWAP2 AND DUP2 OR SWAP1 SSTORE PUSH1 0x40 MLOAD TIMESTAMP DUP2 MSTORE PUSH32 0xF680D0BD10CBD56C6089965028487F8751C5E7485EE076C45E809AF3357408B3 SWAP1 PUSH1 0x20 ADD JUMPDEST PUSH1 0x40 MLOAD DUP1 SWAP2 SUB SWAP1 LOG2 POP JUMP JUMPDEST PUSH1 0x60 DUP1 PUSH1 0x0 DUP1 PUSH1 0x0 DUP1 PUSH1 0x0 DUP1 PUSH2 0xC66 PUSH2 0x2734 JUMP JUMPDEST PUSH1 0x2 SLOAD PUSH1 0x5 SLOAD PUSH1 0x0 SWAP2 DUP3 SWAP2 DUP3 SWAP2 PUSH1 0x3 SWAP2 PUSH1 0x4 SWAP2 PUSH32 0x0 SWAP2 PUSH32 0x0 SWAP2 PUSH32 0x0 SWAP2 PUSH32 0x0 SWAP2 PUSH1 0xFF SWAP1 DUP2 AND SWAP2 AND PUSH2 0xD10 PUSH2 0x15ED JUMP JUMPDEST PUSH1 0x1 SLOAD PUSH1 0x0 SLOAD PUSH1 0x6 SLOAD DUP12 DUP1 SLOAD PUSH2 0xD25 SWAP1 PUSH2 0x2B56 JUMP JUMPDEST DUP1 PUSH1 0x1F ADD PUSH1 0x20 DUP1 SWAP2 DIV MUL PUSH1 0x20 ADD PUSH1 0x40 MLOAD SWAP1 DUP2 ADD PUSH1 0x40 MSTORE DUP1 SWAP3 SWAP2 SWAP1 DUP2 DUP2 MSTORE PUSH1 0x20 ADD DUP3 DUP1 SLOAD PUSH2 0xD51 SWAP1 PUSH2 0x2B56 JUMP JUMPDEST DUP1 ISZERO PUSH2 0xD9E JUMPI DUP1 PUSH1 0x1F LT PUSH2 0xD73 JUMPI PUSH2 0x100 DUP1 DUP4 SLOAD DIV MUL DUP4 MSTORE SWAP2 PUSH1 0x20 ADD SWAP2 PUSH2 0xD9E JUMP JUMPDEST DUP3 ADD SWAP2 SWAP1 PUSH1 0x0 MSTORE PUSH1 0x20 PUSH1 0x0 KECCAK256 SWAP1 JUMPDEST DUP2 SLOAD DUP2 MSTORE SWAP1 PUSH1 0x1 ADD SWAP1 PUSH1 0x20 ADD DUP1 DUP4 GT PUSH2 0xD81 JUMPI DUP3 SWAP1 SUB PUSH1 0x1F AND DUP3 ADD SWAP2 JUMPDEST POP POP POP POP POP SWAP12 POP DUP11 DUP1 SLOAD PUSH2 0xDB1 SWAP1 PUSH2 0x2B56 JUMP JUMPDEST DUP1 PUSH1 0x1F ADD PUSH1 0x20 DUP1 SWAP2 DIV MUL PUSH1 0x20 ADD PUSH1 0x40 MLOAD SWAP1 DUP2 ADD PUSH1 0x40 MSTORE DUP1 SWAP3 SWAP2 SWAP1 DUP2 DUP2 MSTORE PUSH1 0x20 ADD DUP3 DUP1 SLOAD PUSH2 0xDDD SWAP1 PUSH2 0x2B56 JUMP JUMPDEST DUP1 ISZERO PUSH2 0xE2A JUMPI DUP1 PUSH1 0x1F LT PUSH2 0xDFF JUMPI PUSH2 0x100 DUP1 DUP4 SLOAD DIV MUL DUP4 MSTORE SWAP2 PUSH1 0x20 ADD SWAP2 PUSH2 0xE2A JUMP JUMPDEST DUP3 ADD SWAP2 SWAP1 PUSH1 0x0 MSTORE PUSH1 0x20 PUSH1 0x0 KECCAK256 SWAP1 JUMPDEST DUP2 SLOAD DUP2 MSTORE SWAP1 PUSH1 0x1 ADD SWAP1 PUSH1 0x20 ADD DUP1 DUP4 GT PUSH2 0xE0D JUMPI DUP3 SWAP1 SUB PUSH1 0x1F AND DUP3 ADD SWAP2 JUMPDEST POP POP POP POP POP SWAP11 POP SWAP12 POP SWAP12 POP SWAP12 POP SWAP12 POP SWAP12 POP SWAP12 POP SWAP12 POP SWAP12 POP SWAP12 POP SWAP12 POP SWAP12 POP SWAP12 POP SWAP1 SWAP2 SWAP3 SWAP4 SWAP5 SWAP6 SWAP7 SWAP8 SWAP9 SWAP10 SWAP11 SWAP12 JUMP JUMPDEST PUSH1 0x3 DUP1 SLOAD PUSH2 0xE64 SWAP1 PUSH2 0x2B56 JUMP JUMPDEST DUP1 PUSH1 0x1F ADD PUSH1 0x20 DUP1 SWAP2 DIV MUL PUSH1 0x20 ADD PUSH1 0x40 MLOAD SWAP1 DUP2 ADD PUSH1 0x40 MSTORE DUP1 SWAP3 SWAP2 SWAP1 DUP2 DUP2 MSTORE PUSH1 0x20 ADD DUP3 DUP1 SLOAD PUSH2 0xE90 SWAP1 PUSH2 0x2B56 JUMP JUMPDEST DUP1 ISZERO PUSH2 0xEDD JUMPI DUP1 PUSH1 0x1F LT PUSH2 0xEB2 JUMPI PUSH2 0x100 DUP1 DUP4 SLOAD DIV MUL DUP4 MSTORE SWAP2 PUSH1 0x20 ADD SWAP2 PUSH2 0xEDD JUMP JUMPDEST DUP3 ADD SWAP2 SWAP1 PUSH1 0x0 MSTORE PUSH1 0x20 PUSH1 0x0 KECCAK256 SWAP1 JUMPDEST DUP2 SLOAD DUP2 MSTORE SWAP1 PUSH1 0x1 ADD SWAP1 PUSH1 0x20 ADD DUP1 DUP4 GT PUSH2 0xEC0 JUMPI DUP3 SWAP1 SUB PUSH1 0x1F AND DUP3 ADD SWAP2 JUMPDEST POP POP POP POP POP DUP2 JUMP JUMPDEST PUSH1 0x0 PUSH1 0x2 DUP1 SLOAD PUSH1 0xFF AND PUSH1 0x3 DUP2 GT ISZERO PUSH2 0xEFF JUMPI PUSH2 0xEFF PUSH2 0x27F2 JUMP JUMPDEST EQ PUSH2 0xF1D JUMPI PUSH1 0x40 MLOAD PUSH4 0x1F5FA88F PUSH1 0xE0 SHL DUP2 MSTORE PUSH1 0x4 ADD PUSH1 0x40 MLOAD DUP1 SWAP2 SUB SWAP1 REVERT JUMPDEST CALLER PUSH1 0x0 SWAP1 DUP2 MSTORE PUSH1 0xB PUSH1 0x20 MSTORE PUSH1 0x40 SWAP1 KECCAK256 SLOAD PUSH1 0xFF AND ISZERO PUSH2 0xF4E JUMPI PUSH1 0x40 MLOAD PUSH4 0x72335EED PUSH1 0xE1 SHL DUP2 MSTORE PUSH1 0x4 ADD PUSH1 0x40 MLOAD DUP1 SWAP2 SUB SWAP1 REVERT JUMPDEST CALLER PUSH1 0x0 SWAP1 DUP2 MSTORE PUSH1 0xA PUSH1 0x20 SWAP1 DUP2 MSTORE PUSH1 0x40 DUP1 DUP4 KECCAK256 DUP2 MLOAD DUP1 DUP4 ADD SWAP1 SWAP3 MSTORE DUP1 SLOAD DUP3 MSTORE PUSH1 0x1 ADD SLOAD SWAP2 DUP2 ADD SWAP2 SWAP1 SWAP2 MSTORE PUSH1 0x5 SLOAD SWAP1 SWAP2 SWAP1 PUSH1 0xFF AND PUSH2 0xF8E JUMPI DUP2 PUSH1 0x20 ADD MLOAD PUSH2 0xF91 JUMP JUMPDEST DUP2 MLOAD JUMPDEST SWAP1 POP PUSH1 0x0 DUP2 GT PUSH2 0xFB4 JUMPI PUSH1 0x40 MLOAD PUSH4 0x35FF3C3D PUSH1 0xE0 SHL DUP2 MSTORE PUSH1 0x4 ADD PUSH1 0x40 MLOAD DUP1 SWAP2 SUB SWAP1 REVERT JUMPDEST PUSH1 0x5 SLOAD PUSH1 0x0 SWAP1 PUSH1 0xFF AND PUSH2 0xFC9 JUMPI PUSH1 0x8 SLOAD PUSH2 0xFCD JUMP JUMPDEST PUSH1 0x7 SLOAD JUMPDEST SWAP1 POP DUP1 PUSH1 0x6 SLOAD DUP4 PUSH2 0xFDE SWAP2 SWAP1 PUSH2 0x2B08 JUMP JUMPDEST PUSH2 0xFE8 SWAP2 SWAP1 PUSH2 0x2B1F JUMP JUMPDEST CALLER PUSH1 0x0 DUP2 DUP2 MSTORE PUSH1 0xB PUSH1 0x20 MSTORE PUSH1 0x40 SWAP1 KECCAK256 DUP1 SLOAD PUSH1 0xFF NOT AND PUSH1 0x1 OR SWAP1 SSTORE SWAP1 SWAP5 POP PUSH2 0x103A SWAP1 PUSH32 0x0 PUSH1 0x1 PUSH1 0x1 PUSH1 0xA0 SHL SUB AND SWAP1 DUP7 PUSH2 0x1CAA JUMP JUMPDEST PUSH1 0x40 MLOAD DUP5 DUP2 MSTORE CALLER SWAP1 PUSH1 0x0 DUP1 MLOAD PUSH1 0x20 PUSH2 0x2CDF DUP4 CODECOPY DUP2 MLOAD SWAP2 MSTORE SWAP1 PUSH1 0x20 ADD PUSH1 0x40 MLOAD DUP1 SWAP2 SUB SWAP1 LOG2 POP POP POP SWAP1 JUMP JUMPDEST PUSH1 0x0 TIMESTAMP PUSH32 0x0 PUSH1 0x1 PUSH1 0x1 PUSH1 0x60 SHL SUB AND LT ISZERO PUSH2 0x109C JUMPI POP PUSH1 0x0 SWAP1 JUMP JUMPDEST PUSH2 0x10D7 PUSH2 0x10D2 TIMESTAMP PUSH1 0x1 PUSH1 0x1 PUSH1 0x60 SHL SUB PUSH32 0x0 AND PUSH2 0x2AF5 JUMP JUMPDEST PUSH2 0x1CD6 JUMP JUMPDEST PUSH2 0x1105 SWAP1 PUSH2 0xFFFF PUSH32 0x0 AND PUSH2 0x2B08 JUMP JUMPDEST SWAP1 POP SWAP1 JUMP JUMPDEST PUSH1 0x4 DUP1 SLOAD PUSH2 0xE64 SWAP1 PUSH2 0x2B56 JUMP JUMPDEST PUSH32 0x0 PUSH1 0x1 PUSH1 0x1 PUSH1 0x60 SHL SUB AND TIMESTAMP LT ISZERO PUSH2 0x1161 JUMPI PUSH1 0x40 MLOAD PUSH4 0xDBBD7377 PUSH1 0xE0 SHL DUP2 MSTORE PUSH1 0x4 ADD PUSH1 0x40 MLOAD DUP1 SWAP2 SUB SWAP1 REVERT JUMPDEST PUSH1 0x0 PUSH1 0x2 SLOAD PUSH1 0xFF AND PUSH1 0x3 DUP2 GT ISZERO PUSH2 0x117A JUMPI PUSH2 0x117A PUSH2 0x27F2 JUMP JUMPDEST EQ PUSH2 0x11B2 JUMPI PUSH1 0x40 MLOAD PUSH3 0x461BCD PUSH1 0xE5 SHL DUP2 MSTORE PUSH1 0x20 PUSH1 0x4 DUP3 ADD MSTORE PUSH1 0x8 PUSH1 0x24 DUP3 ADD MSTORE PUSH8 0x2737BA1037B832B7 PUSH1 0xC1 SHL PUSH1 0x44 DUP3 ADD MSTORE PUSH1 0x64 ADD PUSH2 0xA1E JUMP JUMPDEST PUSH1 0x2 DUP1 SLOAD PUSH1 0xFF NOT AND PUSH1 0x1 OR SWAP1 SSTORE JUMP JUMPDEST PUSH1 0x0 PUSH2 0x11CB PUSH2 0x2734 JUMP JUMPDEST PUSH1 0x0 PUSH1 0x64 PUSH2 0x11DA PUSH1 0xA DUP7 PUSH2 0x2B08 JUMP JUMPDEST PUSH2 0x11E4 SWAP2 SWAP1 PUSH2 0x2B1F JUMP JUMPDEST PUSH2 0x11EE SWAP1 DUP6 PUSH2 0x2AF5 JUMP JUMPDEST SWAP1 POP PUSH1 0x0 PUSH2 0x11FB DUP3 PUSH2 0x1D40 JUMP JUMPDEST SWAP1 POP PUSH1 0x0 DUP7 PUSH2 0x1215 JUMPI PUSH2 0x120C PUSH2 0x15ED JUMP JUMPDEST PUSH1 0x20 ADD MLOAD PUSH2 0x121F JUMP JUMPDEST PUSH2 0x121D PUSH2 0x15ED JUMP JUMPDEST MLOAD JUMPDEST SWAP1 POP DUP1 PUSH2 0x1234 DUP4 PUSH8 0xDE0B6B3A7640000 PUSH2 0x2B08 JUMP JUMPDEST PUSH2 0x123E SWAP2 SWAP1 PUSH2 0x2B1F JUMP JUMPDEST SWAP5 POP PUSH1 0x0 DUP1 DUP9 PUSH2 0x1258 JUMPI PUSH2 0x1253 PUSH1 0x1 DUP9 PUSH2 0x1DE1 JUMP JUMPDEST PUSH2 0x1263 JUMP JUMPDEST PUSH2 0x1263 PUSH1 0x1 DUP9 PUSH2 0x1E4A JUMP JUMPDEST SWAP2 POP SWAP2 POP PUSH2 0x1271 DUP3 DUP3 PUSH2 0x1A35 JUMP JUMPDEST SWAP6 POP POP POP POP POP POP SWAP3 POP SWAP3 SWAP1 POP JUMP JUMPDEST CALLER PUSH1 0x1 PUSH1 0x1 PUSH1 0xA0 SHL SUB PUSH32 0x0 AND EQ DUP1 PUSH2 0x12DE JUMPI POP CALLER PUSH1 0x1 PUSH1 0x1 PUSH1 0xA0 SHL SUB PUSH32 0x0 AND EQ JUMPDEST PUSH2 0x12FB JUMPI PUSH1 0x40 MLOAD PUSH4 0x46F83079 PUSH1 0xE1 SHL DUP2 MSTORE PUSH1 0x4 ADD PUSH1 0x40 MLOAD DUP1 SWAP2 SUB SWAP1 REVERT JUMPDEST PUSH1 0x0 PUSH1 0x2 SLOAD PUSH1 0xFF AND PUSH1 0x3 DUP2 GT ISZERO PUSH2 0x1314 JUMPI PUSH2 0x1314 PUSH2 0x27F2 JUMP JUMPDEST EQ DUP1 PUSH2 0x1336 JUMPI POP PUSH1 0x1 PUSH1 0x2 SLOAD PUSH1 0xFF AND PUSH1 0x3 DUP2 GT ISZERO PUSH2 0x1334 JUMPI PUSH2 0x1334 PUSH2 0x27F2 JUMP JUMPDEST EQ JUMPDEST PUSH2 0x1353 JUMPI PUSH1 0x40 MLOAD PUSH4 0xD3C27813 PUSH1 0xE0 SHL DUP2 MSTORE PUSH1 0x4 ADD PUSH1 0x40 MLOAD DUP1 SWAP2 SUB SWAP1 REVERT JUMPDEST PUSH1 0x2 DUP1 SLOAD PUSH1 0xFF NOT AND PUSH1 0x3 OR SWAP1 SSTORE PUSH1 0x40 MLOAD TIMESTAMP DUP2 MSTORE PUSH32 0x779930C12B48B4572593A312874338451F0D7AAC5B8892B4503694A25CBCDB4E SWAP1 PUSH1 0x20 ADD PUSH1 0x40 MLOAD DUP1 SWAP2 SUB SWAP1 LOG1 JUMP JUMPDEST PUSH1 0x0 PUSH2 0x139F PUSH2 0x2734 JUMP JUMPDEST PUSH1 0x0 DUP5 PUSH2 0x13B7 JUMPI PUSH2 0x13AE PUSH2 0x15ED JUMP JUMPDEST PUSH1 0x20 ADD MLOAD PUSH2 0x13C1 JUMP JUMPDEST PUSH2 0x13BF PUSH2 0x15ED JUMP JUMPDEST MLOAD JUMPDEST SWAP1 POP PUSH1 0x0 DUP1 DUP7 PUSH2 0x13DB JUMPI PUSH2 0x13D6 PUSH1 0x0 DUP8 PUSH2 0x1DE1 JUMP JUMPDEST PUSH2 0x13E6 JUMP JUMPDEST PUSH2 0x13E6 PUSH1 0x0 DUP8 PUSH2 0x1E4A JUMP JUMPDEST SWAP2 POP SWAP2 POP PUSH2 0x13F4 DUP3 DUP3 PUSH2 0x1A35 JUMP JUMPDEST SWAP4 POP PUSH1 0x0 DUP8 PUSH2 0x1407 JUMPI DUP5 PUSH1 0x20 ADD MLOAD PUSH2 0x140A JUMP JUMPDEST DUP5 MLOAD JUMPDEST SWAP1 POP PUSH1 0x0 PUSH8 0x1BC16D674EC80000 DUP9 PUSH2 0x1422 DUP8 DUP6 PUSH2 0x2A2B JUMP JUMPDEST PUSH2 0x142C SWAP2 SWAP1 PUSH2 0x2A53 JUMP JUMPDEST PUSH2 0x1436 SWAP2 SWAP1 PUSH2 0x2A99 JUMP JUMPDEST SWAP1 POP PUSH2 0x1441 DUP2 PUSH2 0x1D40 JUMP JUMPDEST SWAP7 POP POP POP POP POP POP SWAP3 POP SWAP3 SWAP1 POP JUMP JUMPDEST PUSH1 0x0 PUSH1 0x3 PUSH1 0x2 SLOAD PUSH1 0xFF AND PUSH1 0x3 DUP2 GT ISZERO PUSH2 0x146A JUMPI PUSH2 0x146A PUSH2 0x27F2 JUMP JUMPDEST EQ PUSH2 0x14AC JUMPI PUSH1 0x40 MLOAD PUSH3 0x461BCD PUSH1 0xE5 SHL DUP2 MSTORE PUSH1 0x20 PUSH1 0x4 DUP3 ADD MSTORE PUSH1 0x12 PUSH1 0x24 DUP3 ADD MSTORE PUSH18 0x13585C9AD95D081B9BDD081A5B9D985B1A59 PUSH1 0x72 SHL PUSH1 0x44 DUP3 ADD MSTORE PUSH1 0x64 ADD PUSH2 0xA1E JUMP JUMPDEST CALLER PUSH1 0x0 SWAP1 DUP2 MSTORE PUSH1 0xB PUSH1 0x20 MSTORE PUSH1 0x40 SWAP1 KECCAK256 SLOAD PUSH1 0xFF AND ISZERO PUSH2 0x14DD JUMPI PUSH1 0x40 MLOAD PUSH4 0x72335EED PUSH1 0xE1 SHL DUP2 MSTORE PUSH1 0x4 ADD PUSH1 0x40 MLOAD DUP1 SWAP2 SUB SWAP1 REVERT JUMPDEST CALLER PUSH1 0x0 SWAP1 DUP2 MSTORE PUSH1 0xA PUSH1 0x20 SWAP1 DUP2 MSTORE PUSH1 0x40 SWAP2 DUP3 SWAP1 KECCAK256 DUP3 MLOAD DUP1 DUP5 ADD SWAP1 SWAP4 MSTORE DUP1 SLOAD DUP1 DUP5 MSTORE PUSH1 0x1 SWAP1 SWAP2 ADD SLOAD SWAP2 DUP4 ADD DUP3 SWAP1 MSTORE SWAP1 DUP2 ISZERO ISZERO DUP1 PUSH2 0x1518 JUMPI POP PUSH1 0x0 DUP2 GT JUMPDEST PUSH2 0x1535 JUMPI PUSH1 0x40 MLOAD PUSH4 0x35FF3C3D PUSH1 0xE0 SHL DUP2 MSTORE PUSH1 0x4 ADD PUSH1 0x40 MLOAD DUP1 SWAP2 SUB SWAP1 REVERT JUMPDEST PUSH1 0x0 PUSH2 0x1541 DUP3 DUP5 PUSH2 0x2A18 JUMP JUMPDEST SWAP1 POP PUSH1 0x0 PUSH1 0x8 SLOAD PUSH1 0x7 SLOAD PUSH2 0x1555 SWAP2 SWAP1 PUSH2 0x2A18 JUMP JUMPDEST SWAP1 POP DUP1 PUSH1 0x6 SLOAD DUP4 PUSH2 0x1566 SWAP2 SWAP1 PUSH2 0x2B08 JUMP JUMPDEST PUSH2 0x1570 SWAP2 SWAP1 PUSH2 0x2B1F JUMP JUMPDEST CALLER PUSH1 0x0 DUP2 DUP2 MSTORE PUSH1 0xB PUSH1 0x20 MSTORE PUSH1 0x40 SWAP1 KECCAK256 DUP1 SLOAD PUSH1 0xFF NOT AND PUSH1 0x1 OR SWAP1 SSTORE SWAP1 SWAP7 POP PUSH2 0x15C2 SWAP1 PUSH32 0x0 PUSH1 0x1 PUSH1 0x1 PUSH1 0xA0 SHL SUB AND SWAP1 DUP9 PUSH2 0x1CAA JUMP JUMPDEST PUSH1 0x40 MLOAD DUP7 DUP2 MSTORE CALLER SWAP1 PUSH1 0x0 DUP1 MLOAD PUSH1 0x20 PUSH2 0x2CDF DUP4 CODECOPY DUP2 MLOAD SWAP2 MSTORE SWAP1 PUSH1 0x20 ADD PUSH1 0x40 MLOAD DUP1 SWAP2 SUB SWAP1 LOG2 POP POP POP POP POP SWAP1 JUMP JUMPDEST PUSH2 0x15F5 PUSH2 0x2734 JUMP JUMPDEST PUSH2 0x1105 PUSH1 0x1 SLOAD PUSH1 0x0 SLOAD PUSH2 0x1A35 JUMP JUMPDEST CALLER PUSH1 0x1 PUSH1 0x1 PUSH1 0xA0 SHL SUB PUSH32 0x0 AND EQ PUSH2 0x164C JUMPI PUSH1 0x40 MLOAD PUSH4 0x46F83079 PUSH1 0xE1 SHL DUP2 MSTORE PUSH1 0x4 ADD PUSH1 0x40 MLOAD DUP1 SWAP2 SUB SWAP1 REVERT JUMPDEST PUSH1 0x0 PUSH1 0x9 SLOAD GT PUSH2 0x1688 JUMPI PUSH1 0x40 MLOAD PUSH3 0x461BCD PUSH1 0xE5 SHL DUP2 MSTORE PUSH1 0x20 PUSH1 0x4 DUP3 ADD MSTORE PUSH1 0x7 PUSH1 0x24 DUP3 ADD MSTORE PUSH7 0x4E6F2066656573 PUSH1 0xC8 SHL PUSH1 0x44 DUP3 ADD MSTORE PUSH1 0x64 ADD PUSH2 0xA1E JUMP JUMPDEST PUSH1 0x9 DUP1 SLOAD PUSH1 0x0 SWAP1 SWAP2 SSTORE PUSH2 0x16E5 PUSH1 0x1 PUSH1 0x1 PUSH1 0xA0 SHL SUB PUSH32 0x0 AND PUSH32 0x0 DUP4 PUSH2 0x1CAA JUMP JUMPDEST PUSH32 0x0 PUSH1 0x1 PUSH1 0x1 PUSH1 0xA0 SHL SUB AND PUSH32 0x9DC46F23CFB5DDCAD0AE7EA2BE38D47FEC07BB9382EC7E564EFC69E036DD66CE DUP3 PUSH1 0x40 MLOAD PUSH2 0xC47 SWAP2 DUP2 MSTORE PUSH1 0x20 ADD SWAP1 JUMP JUMPDEST PUSH1 0x0 PUSH1 0x2 SLOAD PUSH1 0xFF AND PUSH1 0x3 DUP2 GT ISZERO PUSH2 0x1759 JUMPI PUSH2 0x1759 PUSH2 0x27F2 JUMP JUMPDEST EQ PUSH2 0x1777 JUMPI PUSH1 0x40 MLOAD PUSH4 0x32BD259 PUSH1 0xE4 SHL DUP2 MSTORE PUSH1 0x4 ADD PUSH1 0x40 MLOAD DUP1 SWAP2 SUB SWAP1 REVERT JUMPDEST PUSH32 0x0 PUSH1 0x1 PUSH1 0x1 PUSH1 0x60 SHL SUB AND TIMESTAMP LT PUSH2 0x17C0 JUMPI PUSH1 0x40 MLOAD PUSH4 0x32BD259 PUSH1 0xE4 SHL DUP2 MSTORE PUSH1 0x4 ADD PUSH1 0x40 MLOAD DUP1 SWAP2 SUB SWAP1 REVERT JUMPDEST PUSH1 0x0 DUP4 GT PUSH2 0x17E1 JUMPI PUSH1 0x40 MLOAD PUSH4 0x655CF031 PUSH1 0xE1 SHL DUP2 MSTORE PUSH1 0x4 ADD PUSH1 0x40 MLOAD DUP1 SWAP2 SUB SWAP1 REVERT JUMPDEST PUSH1 0x0 DUP5 PUSH2 0x1800 JUMPI CALLER PUSH1 0x0 SWAP1 DUP2 MSTORE PUSH1 0xA PUSH1 0x20 MSTORE PUSH1 0x40 SWAP1 KECCAK256 PUSH1 0x1 ADD SLOAD PUSH2 0x1811 JUMP JUMPDEST CALLER PUSH1 0x0 SWAP1 DUP2 MSTORE PUSH1 0xA PUSH1 0x20 MSTORE PUSH1 0x40 SWAP1 KECCAK256 SLOAD JUMPDEST SWAP1 POP DUP4 DUP2 GT PUSH2 0x1858 JUMPI PUSH1 0x40 MLOAD PUSH3 0x461BCD PUSH1 0xE5 SHL DUP2 MSTORE PUSH1 0x20 PUSH1 0x4 DUP3 ADD MSTORE PUSH1 0x13 PUSH1 0x24 DUP3 ADD MSTORE PUSH19 0x496E73756666696369656E7420736861726573 PUSH1 0x68 SHL PUSH1 0x44 DUP3 ADD MSTORE PUSH1 0x64 ADD PUSH2 0xA1E JUMP JUMPDEST PUSH2 0x1860 PUSH2 0x2734 JUMP JUMPDEST PUSH1 0x0 DUP1 PUSH1 0x0 DUP9 ISZERO PUSH2 0x18D7 JUMPI PUSH2 0x1873 PUSH2 0x15ED JUMP JUMPDEST MLOAD CALLER PUSH1 0x0 SWAP1 DUP2 MSTORE PUSH1 0xA PUSH1 0x20 MSTORE PUSH1 0x40 DUP2 KECCAK256 DUP1 SLOAD SWAP3 SWAP6 POP DUP11 SWAP3 SWAP1 SWAP2 SWAP1 PUSH2 0x1898 SWAP1 DUP5 SWAP1 PUSH2 0x2AF5 JUMP JUMPDEST SWAP1 SWAP2 SSTORE POP PUSH2 0x18A9 SWAP1 POP PUSH1 0x0 DUP10 PUSH2 0x1AEF JUMP JUMPDEST SWAP1 POP DUP8 PUSH1 0x7 PUSH1 0x0 DUP3 DUP3 SLOAD PUSH2 0x18BD SWAP2 SWAP1 PUSH2 0x2AF5 JUMP JUMPDEST SWAP1 SWAP2 SSTORE POP PUSH2 0x18CB SWAP1 POP PUSH2 0x15ED JUMP JUMPDEST DUP1 MLOAD SWAP1 SWAP5 POP SWAP2 POP PUSH2 0x1948 JUMP JUMPDEST PUSH2 0x18DF PUSH2 0x15ED JUMP JUMPDEST PUSH1 0x20 SWAP1 DUP2 ADD MLOAD CALLER PUSH1 0x0 SWAP1 DUP2 MSTORE PUSH1 0xA SWAP1 SWAP3 MSTORE PUSH1 0x40 DUP3 KECCAK256 PUSH1 0x1 ADD DUP1 SLOAD SWAP2 SWAP6 POP DUP11 SWAP3 SWAP1 SWAP2 PUSH2 0x190B SWAP1 DUP5 SWAP1 PUSH2 0x2AF5 JUMP JUMPDEST SWAP1 SWAP2 SSTORE POP PUSH2 0x191C SWAP1 POP PUSH1 0x0 DUP10 PUSH2 0x1B6F JUMP JUMPDEST SWAP1 POP DUP8 PUSH1 0x8 PUSH1 0x0 DUP3 DUP3 SLOAD PUSH2 0x1930 SWAP2 SWAP1 PUSH2 0x2AF5 JUMP JUMPDEST SWAP1 SWAP2 SSTORE POP PUSH2 0x193E SWAP1 POP PUSH2 0x15ED JUMP JUMPDEST SWAP4 POP DUP4 PUSH1 0x20 ADD MLOAD SWAP2 POP JUMPDEST PUSH1 0x0 PUSH8 0x1BC16D674EC80000 DUP10 PUSH2 0x195E DUP6 DUP8 PUSH2 0x2A2B JUMP JUMPDEST PUSH2 0x1968 SWAP2 SWAP1 PUSH2 0x2A53 JUMP JUMPDEST PUSH2 0x1972 SWAP2 SWAP1 PUSH2 0x2A99 JUMP JUMPDEST SWAP1 POP PUSH1 0x0 PUSH2 0x197F DUP3 PUSH2 0x1D40 JUMP JUMPDEST SWAP1 POP DUP9 DUP2 GT ISZERO PUSH2 0x19A1 JUMPI PUSH1 0x40 MLOAD PUSH3 0x461BCD PUSH1 0xE5 SHL DUP2 MSTORE PUSH1 0x4 ADD PUSH2 0xA1E SWAP1 PUSH2 0x2AC7 JUMP JUMPDEST DUP1 PUSH1 0x6 PUSH1 0x0 DUP3 DUP3 SLOAD PUSH2 0x19B3 SWAP2 SWAP1 PUSH2 0x2AF5 JUMP JUMPDEST SWAP1 SWAP2 SSTORE POP PUSH2 0x19EE SWAP1 POP PUSH1 0x1 PUSH1 0x1 PUSH1 0xA0 SHL SUB PUSH32 0x0 AND ADDRESS DUP11 DUP5 PUSH2 0x1ABC JUMP JUMPDEST PUSH1 0x0 ISZERO ISZERO DUP12 ISZERO ISZERO CALLER PUSH1 0x1 PUSH1 0x1 PUSH1 0xA0 SHL SUB AND PUSH1 0x0 DUP1 MLOAD PUSH1 0x20 PUSH2 0x2CFF DUP4 CODECOPY DUP2 MLOAD SWAP2 MSTORE DUP14 DUP7 DUP12 PUSH1 0x40 MLOAD PUSH2 0x1A20 SWAP4 SWAP3 SWAP2 SWAP1 PUSH2 0x2B33 JUMP JUMPDEST PUSH1 0x40 MLOAD DUP1 SWAP2 SUB SWAP1 LOG4 POP POP POP POP POP POP POP POP POP POP POP JUMP JUMPDEST PUSH2 0x1A3D PUSH2 0x2734 JUMP JUMPDEST PUSH1 0x0 PUSH2 0x1A47 PUSH2 0x1063 JUMP JUMPDEST SWAP1 POP PUSH1 0x0 DUP2 PUSH2 0x1A56 DUP7 DUP7 PUSH2 0x2B8A JUMP JUMPDEST PUSH2 0x1A60 SWAP2 SWAP1 PUSH2 0x2A99 JUMP JUMPDEST SWAP1 POP PUSH1 0x0 PUSH2 0x1A6D DUP3 PUSH2 0x1EB2 JUMP JUMPDEST SWAP1 POP PUSH1 0x0 PUSH2 0x1A83 DUP3 PUSH8 0xDE0B6B3A7640000 PUSH2 0x2B8A JUMP JUMPDEST PUSH1 0x40 DUP1 MLOAD DUP1 DUP3 ADD SWAP1 SWAP2 MSTORE SWAP3 DUP4 MSTORE PUSH1 0x20 DUP4 ADD MSTORE POP SWAP3 POP POP POP JUMPDEST SWAP3 SWAP2 POP POP JUMP JUMPDEST PUSH2 0x1AA9 PUSH2 0x1F24 JUMP JUMPDEST PUSH1 0x2 PUSH2 0x1AB9 PUSH2 0x1AB6 PUSH2 0x1F4C JUMP JUMPDEST SWAP1 JUMP JUMPDEST SSTORE JUMP JUMPDEST PUSH2 0x1ACA DUP5 DUP5 DUP5 DUP5 PUSH1 0x1 PUSH2 0x1F70 JUMP JUMPDEST PUSH2 0x1AE9 JUMPI DUP4 PUSH1 0x40 MLOAD PUSH4 0x5274AFE7 PUSH1 0xE0 SHL DUP2 MSTORE PUSH1 0x4 ADD PUSH2 0xA1E SWAP2 SWAP1 PUSH2 0x28FA JUMP JUMPDEST POP POP POP POP JUMP JUMPDEST PUSH1 0x0 DUP3 DUP1 ISZERO PUSH2 0x1AFF JUMPI POP PUSH1 0x1 SLOAD DUP3 SGT JUMPDEST ISZERO PUSH2 0x1B1D JUMPI PUSH1 0x40 MLOAD PUSH4 0x7C8CDDF PUSH1 0xE5 SHL DUP2 MSTORE PUSH1 0x4 ADD PUSH1 0x40 MLOAD DUP1 SWAP2 SUB SWAP1 REVERT JUMPDEST PUSH1 0x0 DUP1 PUSH2 0x1B2A DUP6 DUP6 PUSH2 0x1E4A JUMP JUMPDEST SWAP4 POP SWAP2 POP DUP3 SWAP1 POP DUP2 DUP6 ISZERO DUP1 ISZERO PUSH2 0x1B41 JUMPI POP PUSH1 0x0 DUP5 SGT ISZERO JUMPDEST ISZERO PUSH2 0x1B5F JUMPI PUSH1 0x40 MLOAD PUSH4 0xA1704E8D PUSH1 0xE0 SHL DUP2 MSTORE PUSH1 0x4 ADD PUSH1 0x40 MLOAD DUP1 SWAP2 SUB SWAP1 REVERT JUMPDEST PUSH1 0x1 SSTORE POP POP PUSH1 0x0 DUP2 SWAP1 SSTORE SWAP3 SWAP2 POP POP JUMP JUMPDEST PUSH1 0x0 DUP3 DUP1 ISZERO PUSH2 0x1B7F JUMPI POP PUSH1 0x0 SLOAD DUP3 SGT JUMPDEST ISZERO PUSH2 0x1B9D JUMPI PUSH1 0x40 MLOAD PUSH4 0x3ABBF21D PUSH1 0xE2 SHL DUP2 MSTORE PUSH1 0x4 ADD PUSH1 0x40 MLOAD DUP1 SWAP2 SUB SWAP1 REVERT JUMPDEST PUSH1 0x0 DUP1 PUSH2 0x1BAA DUP6 DUP6 PUSH2 0x1DE1 JUMP JUMPDEST SWAP1 SWAP4 POP DUP4 SWAP3 POP SWAP1 POP DUP1 DUP6 ISZERO DUP1 ISZERO PUSH2 0x1BC2 JUMPI POP PUSH1 0x0 DUP5 SGT ISZERO JUMPDEST ISZERO PUSH2 0x1BE0 JUMPI PUSH1 0x40 MLOAD PUSH4 0x1687A81F PUSH1 0xE3 SHL DUP2 MSTORE PUSH1 0x4 ADD PUSH1 0x40 MLOAD DUP1 SWAP2 SUB SWAP1 REVERT JUMPDEST PUSH1 0x1 DUP5 SWAP1 SSTORE PUSH1 0x0 SSTORE POP SWAP1 SWAP4 SWAP3 POP POP POP JUMP JUMPDEST PUSH1 0x0 PUSH8 0xDE0B6B3A7640000 PUSH32 0x0 PUSH1 0x1 PUSH1 0x1 PUSH1 0xA0 SHL SUB AND PUSH4 0x313CE567 PUSH1 0x40 MLOAD DUP2 PUSH4 0xFFFFFFFF AND PUSH1 0xE0 SHL DUP2 MSTORE PUSH1 0x4 ADD PUSH1 0x20 PUSH1 0x40 MLOAD DUP1 DUP4 SUB DUP2 DUP7 GAS STATICCALL ISZERO DUP1 ISZERO PUSH2 0x1C5A JUMPI RETURNDATASIZE PUSH1 0x0 DUP1 RETURNDATACOPY RETURNDATASIZE PUSH1 0x0 REVERT JUMPDEST POP POP POP POP PUSH1 0x40 MLOAD RETURNDATASIZE PUSH1 0x1F NOT PUSH1 0x1F DUP3 ADD AND DUP3 ADD DUP1 PUSH1 0x40 MSTORE POP DUP2 ADD SWAP1 PUSH2 0x1C7E SWAP2 SWAP1 PUSH2 0x2BB1 JUMP JUMPDEST PUSH2 0x1C89 SWAP1 PUSH1 0xA PUSH2 0x2CB3 JUMP JUMPDEST PUSH2 0x1C93 SWAP1 DUP5 PUSH2 0x2B08 JUMP JUMPDEST PUSH2 0x1A9B SWAP2 SWAP1 PUSH2 0x2B1F JUMP JUMPDEST PUSH1 0x1 PUSH2 0x1AB9 PUSH2 0x1AB6 PUSH2 0x1F4C JUMP JUMPDEST PUSH2 0x1CB7 DUP4 DUP4 DUP4 PUSH1 0x1 PUSH2 0x1FE2 JUMP JUMPDEST PUSH2 0xB0E JUMPI DUP3 PUSH1 0x40 MLOAD PUSH4 0x5274AFE7 PUSH1 0xE0 SHL DUP2 MSTORE PUSH1 0x4 ADD PUSH2 0xA1E SWAP2 SWAP1 PUSH2 0x28FA JUMP JUMPDEST PUSH1 0x0 DUP2 PUSH1 0x0 SUB PUSH2 0x1CE8 JUMPI POP PUSH1 0x0 SWAP2 SWAP1 POP JUMP JUMPDEST PUSH1 0x0 PUSH1 0x2 PUSH2 0x1CF7 DUP5 PUSH1 0x1 PUSH2 0x2A18 JUMP JUMPDEST PUSH2 0x1D01 SWAP2 SWAP1 PUSH2 0x2B1F JUMP JUMPDEST SWAP1 POP DUP3 SWAP2 POP JUMPDEST DUP2 DUP2 LT ISZERO PUSH2 0x1D3A JUMPI SWAP1 POP DUP1 PUSH1 0x2 DUP2 PUSH2 0x1D1F DUP2 DUP7 PUSH2 0x2B1F JUMP JUMPDEST PUSH2 0x1D29 SWAP2 SWAP1 PUSH2 0x2A18 JUMP JUMPDEST PUSH2 0x1D33 SWAP2 SWAP1 PUSH2 0x2B1F JUMP JUMPDEST SWAP1 POP PUSH2 0x1D07 JUMP JUMPDEST POP SWAP2 SWAP1 POP JUMP JUMPDEST PUSH1 0x0 PUSH32 0x0 PUSH1 0x1 PUSH1 0x1 PUSH1 0xA0 SHL SUB AND PUSH4 0x313CE567 PUSH1 0x40 MLOAD DUP2 PUSH4 0xFFFFFFFF AND PUSH1 0xE0 SHL DUP2 MSTORE PUSH1 0x4 ADD PUSH1 0x20 PUSH1 0x40 MLOAD DUP1 DUP4 SUB DUP2 DUP7 GAS STATICCALL ISZERO DUP1 ISZERO PUSH2 0x1DA0 JUMPI RETURNDATASIZE PUSH1 0x0 DUP1 RETURNDATACOPY RETURNDATASIZE PUSH1 0x0 REVERT JUMPDEST POP POP POP POP PUSH1 0x40 MLOAD RETURNDATASIZE PUSH1 0x1F NOT PUSH1 0x1F DUP3 ADD AND DUP3 ADD DUP1 PUSH1 0x40 MSTORE POP DUP2 ADD SWAP1 PUSH2 0x1DC4 SWAP2 SWAP1 PUSH2 0x2BB1 JUMP JUMPDEST PUSH2 0x1DCF SWAP1 PUSH1 0xA PUSH2 0x2CB3 JUMP JUMPDEST PUSH2 0x1C93 DUP4 PUSH8 0xDE0B6B3A7640000 PUSH2 0x2B08 JUMP JUMPDEST PUSH1 0x0 DUP1 PUSH1 0x0 PUSH2 0x1DEE PUSH2 0x1063 JUMP JUMPDEST SWAP1 POP DUP5 PUSH2 0x1E08 JUMPI DUP4 PUSH1 0x0 SLOAD PUSH2 0x1E03 SWAP2 SWAP1 PUSH2 0x2A2B JUMP JUMPDEST PUSH2 0x1E16 JUMP JUMPDEST DUP4 PUSH1 0x0 SLOAD PUSH2 0x1E16 SWAP2 SWAP1 PUSH2 0x2B8A JUMP JUMPDEST PUSH1 0x1 SLOAD SWAP1 SWAP3 POP PUSH1 0x0 DUP1 PUSH2 0x1E2A DUP4 DUP7 DUP7 PUSH2 0x2048 JUMP JUMPDEST SWAP2 POP SWAP2 POP PUSH2 0x1E3D PUSH2 0x20BE DUP4 DUP4 DUP9 DUP9 PUSH2 0x20D7 JUMP JUMPDEST SWAP6 POP POP POP POP POP SWAP3 POP SWAP3 SWAP1 POP JUMP JUMPDEST PUSH1 0x0 DUP1 PUSH1 0x0 PUSH2 0x1E57 PUSH2 0x1063 JUMP JUMPDEST SWAP1 POP DUP5 PUSH2 0x1E71 JUMPI DUP4 PUSH1 0x1 SLOAD PUSH2 0x1E6C SWAP2 SWAP1 PUSH2 0x2A2B JUMP JUMPDEST PUSH2 0x1E7F JUMP JUMPDEST DUP4 PUSH1 0x1 SLOAD PUSH2 0x1E7F SWAP2 SWAP1 PUSH2 0x2B8A JUMP JUMPDEST PUSH1 0x0 DUP1 SLOAD SWAP2 SWAP5 POP DUP1 PUSH2 0x1E92 DUP4 DUP8 DUP7 PUSH2 0x213A JUMP JUMPDEST SWAP2 POP SWAP2 POP PUSH2 0x1EA5 PUSH2 0x20BE DUP4 DUP4 DUP10 DUP9 PUSH2 0x219E JUMP JUMPDEST SWAP5 POP POP POP POP POP SWAP3 POP SWAP3 SWAP1 POP JUMP JUMPDEST PUSH1 0x0 DUP1 PUSH8 0x13A04BBDFDC9BE88 PUSH2 0x1ED0 PUSH8 0xDE0B6B3A7640000 DUP6 PUSH2 0x2A53 JUMP JUMPDEST PUSH2 0x1EDA SWAP2 SWAP1 PUSH2 0x2A99 JUMP JUMPDEST SWAP1 POP PUSH1 0x0 PUSH2 0x1EE7 DUP3 PUSH2 0x2CC2 JUMP JUMPDEST SWAP1 POP PUSH1 0x0 PUSH2 0x1EF4 DUP3 PUSH2 0x21F6 JUMP JUMPDEST SWAP1 POP PUSH8 0x1BC16D674EC80000 PUSH2 0x1F11 PUSH8 0xDE0B6B3A7640000 DUP4 PUSH2 0x2A53 JUMP JUMPDEST PUSH2 0x1F1B SWAP2 SWAP1 PUSH2 0x2A99 JUMP JUMPDEST SWAP6 SWAP5 POP POP POP POP POP JUMP JUMPDEST PUSH2 0x1F2C PUSH2 0x23EB JUMP JUMPDEST ISZERO PUSH2 0x1F4A JUMPI PUSH1 0x40 MLOAD PUSH4 0x3EE5AEB5 PUSH1 0xE0 SHL DUP2 MSTORE PUSH1 0x4 ADD PUSH1 0x40 MLOAD DUP1 SWAP2 SUB SWAP1 REVERT JUMPDEST JUMP JUMPDEST PUSH32 0x9B779B17422D0DF92223018B32B4D1FA46E071723D6817E2486D003BECC55F00 SWAP1 JUMP JUMPDEST PUSH1 0x40 MLOAD PUSH4 0x23B872DD PUSH1 0xE0 SHL PUSH1 0x0 DUP2 DUP2 MSTORE PUSH1 0x1 PUSH1 0x1 PUSH1 0xA0 SHL SUB DUP8 DUP2 AND PUSH1 0x4 MSTORE DUP7 AND PUSH1 0x24 MSTORE PUSH1 0x44 DUP6 SWAP1 MSTORE SWAP2 PUSH1 0x20 DUP4 PUSH1 0x64 DUP2 DUP1 DUP13 GAS CALL SWAP3 POP PUSH1 0x1 PUSH1 0x0 MLOAD EQ DUP4 AND PUSH2 0x1FD0 JUMPI DUP4 DUP4 ISZERO AND ISZERO PUSH2 0x1FC3 JUMPI RETURNDATASIZE PUSH1 0x0 DUP3 RETURNDATACOPY RETURNDATASIZE DUP2 REVERT JUMPDEST PUSH1 0x0 DUP9 EXTCODESIZE GT RETURNDATASIZE ISZERO AND DUP4 AND SWAP3 POP JUMPDEST PUSH1 0x40 MSTORE POP PUSH1 0x0 PUSH1 0x60 MSTORE SWAP6 SWAP5 POP POP POP POP POP JUMP JUMPDEST PUSH1 0x40 MLOAD PUSH4 0xA9059CBB PUSH1 0xE0 SHL PUSH1 0x0 DUP2 DUP2 MSTORE PUSH1 0x1 PUSH1 0x1 PUSH1 0xA0 SHL SUB DUP7 AND PUSH1 0x4 MSTORE PUSH1 0x24 DUP6 SWAP1 MSTORE SWAP2 PUSH1 0x20 DUP4 PUSH1 0x44 DUP2 DUP1 DUP12 GAS CALL SWAP3 POP PUSH1 0x1 PUSH1 0x0 MLOAD EQ DUP4 AND PUSH2 0x203C JUMPI DUP4 DUP4 ISZERO AND ISZERO PUSH2 0x202F JUMPI RETURNDATASIZE PUSH1 0x0 DUP3 RETURNDATACOPY RETURNDATASIZE DUP2 REVERT JUMPDEST PUSH1 0x0 DUP8 EXTCODESIZE GT RETURNDATASIZE ISZERO AND DUP4 AND SWAP3 POP JUMPDEST PUSH1 0x40 MSTORE POP SWAP5 SWAP4 POP POP POP POP JUMP JUMPDEST PUSH1 0x0 DUP1 DUP1 DUP1 DUP1 DUP1 PUSH10 0x10F0CF064DD59200000 DUP10 JUMPDEST DUP3 PUSH2 0x2082 JUMPI PUSH1 0x0 PUSH2 0x206E DUP3 DUP13 DUP13 PUSH2 0x2401 JUMP JUMPDEST SLT SWAP3 POP PUSH2 0x207B DUP3 DUP3 PUSH2 0x2A2B JUMP JUMPDEST SWAP1 POP PUSH2 0x205C JUMP JUMPDEST DUP1 SWAP5 POP JUMPDEST DUP4 PUSH2 0x20AC JUMPI PUSH2 0x2095 DUP3 DUP3 PUSH2 0x2B8A JUMP JUMPDEST SWAP1 POP PUSH1 0x0 PUSH2 0x20A4 DUP3 DUP13 DUP13 PUSH2 0x2401 JUMP JUMPDEST SGT SWAP4 POP PUSH2 0x2086 JUMP JUMPDEST SWAP7 POP SWAP3 SWAP5 POP POP POP POP POP JUMPDEST SWAP4 POP SWAP4 SWAP2 POP POP JUMP JUMPDEST PUSH1 0x0 DUP1 PUSH2 0x20CC DUP6 DUP6 DUP6 PUSH2 0x2401 JUMP JUMPDEST SLT SWAP1 POP JUMPDEST SWAP4 SWAP3 POP POP POP JUMP JUMPDEST DUP4 PUSH3 0x186A0 DUP5 JUMPDEST DUP2 PUSH2 0x20E9 DUP5 DUP4 PUSH2 0x2B8A JUMP JUMPDEST SGT ISZERO PUSH2 0x212F JUMPI PUSH1 0x0 PUSH1 0x2 PUSH2 0x20FD DUP6 DUP5 PUSH2 0x2A2B JUMP JUMPDEST PUSH2 0x2107 SWAP2 SWAP1 PUSH2 0x2A99 JUMP JUMPDEST SWAP1 POP PUSH2 0x2118 DUP2 DUP8 DUP8 DUP13 PUSH4 0xFFFFFFFF AND JUMP JUMPDEST ISZERO PUSH2 0x2125 JUMPI DUP1 SWAP2 POP PUSH2 0x2129 JUMP JUMPDEST DUP1 SWAP4 POP JUMPDEST POP PUSH2 0x20DE JUMP JUMPDEST POP POP SWAP6 SWAP5 POP POP POP POP POP JUMP JUMPDEST PUSH1 0x0 DUP1 DUP1 DUP1 DUP1 DUP1 PUSH10 0x10F0CF064DD59200000 DUP10 JUMPDEST DUP3 PUSH2 0x2174 JUMPI PUSH1 0x0 PUSH2 0x2160 DUP12 DUP4 DUP13 PUSH2 0x2401 JUMP JUMPDEST SLT SWAP3 POP PUSH2 0x216D DUP3 DUP3 PUSH2 0x2A2B JUMP JUMPDEST SWAP1 POP PUSH2 0x214E JUMP JUMPDEST DUP1 SWAP5 POP JUMPDEST DUP4 PUSH2 0x20AC JUMPI PUSH2 0x2187 DUP3 DUP3 PUSH2 0x2B8A JUMP JUMPDEST SWAP1 POP PUSH1 0x0 PUSH2 0x2196 DUP12 DUP4 DUP13 PUSH2 0x2401 JUMP JUMPDEST SGT SWAP4 POP PUSH2 0x2178 JUMP JUMPDEST DUP4 PUSH3 0x186A0 DUP5 JUMPDEST DUP2 PUSH2 0x21B0 DUP5 DUP4 PUSH2 0x2B8A JUMP JUMPDEST SGT ISZERO PUSH2 0x212F JUMPI PUSH1 0x0 PUSH1 0x2 PUSH2 0x21C4 DUP6 DUP5 PUSH2 0x2A2B JUMP JUMPDEST PUSH2 0x21CE SWAP2 SWAP1 PUSH2 0x2A99 JUMP JUMPDEST SWAP1 POP PUSH2 0x21DF DUP7 DUP3 DUP8 DUP13 PUSH4 0xFFFFFFFF AND JUMP JUMPDEST ISZERO PUSH2 0x21EC JUMPI DUP1 SWAP2 POP PUSH2 0x21F0 JUMP JUMPDEST DUP1 SWAP4 POP JUMPDEST POP PUSH2 0x21A5 JUMP JUMPDEST PUSH1 0x0 DUP2 PUSH1 0x0 SUB PUSH2 0x220F JUMPI POP PUSH8 0xDE0B6B3A7640000 SWAP2 SWAP1 POP JUMP JUMPDEST PUSH8 0x5698EEF066700000 DUP3 SLT PUSH2 0x2226 JUMPI POP PUSH1 0x0 SWAP2 SWAP1 POP JUMP JUMPDEST PUSH2 0x2237 PUSH8 0x5698EEF066700000 PUSH2 0x2CC2 JUMP JUMPDEST DUP3 SGT PUSH2 0x224C JUMPI POP PUSH8 0x1BC16D674EC80000 SWAP2 SWAP1 POP JUMP JUMPDEST PUSH1 0x0 PUSH2 0x2257 DUP4 PUSH2 0x2473 JUMP JUMPDEST SWAP1 POP PUSH1 0x0 PUSH2 0x2290 PUSH8 0xDE0B6B3A7640000 PUSH2 0x2279 DUP5 PUSH8 0x1BC16D674EC80000 PUSH2 0x24B2 JUMP JUMPDEST PUSH2 0x228B SWAP1 PUSH8 0xDE0B6B3A7640000 PUSH2 0x2A2B JUMP JUMPDEST PUSH2 0x24C7 JUMP JUMPDEST SWAP1 POP PUSH1 0x0 DUP1 DUP3 PUSH2 0x22F1 DUP2 PUSH2 0x22DE DUP2 PUSH2 0x22CC DUP2 PUSH2 0x22B4 DUP2 PUSH8 0x25F0FE105A31400 PUSH2 0x24DC JUMP JUMPDEST PUSH2 0x22C7 SWAP1 PUSH8 0xB68DF18E471FBFF NOT PUSH2 0x2A2B JUMP JUMPDEST PUSH2 0x24DC JUMP JUMPDEST PUSH2 0x22C7 SWAP1 PUSH8 0x14A8454C19E1AC00 PUSH2 0x2A2B JUMP JUMPDEST PUSH2 0x22C7 SWAP1 PUSH8 0xFC10E01578277FF NOT PUSH2 0x2A2B JUMP JUMPDEST PUSH2 0x2303 SWAP1 PUSH8 0x3DEBD083B8C7C00 PUSH2 0x2A2B JUMP JUMPDEST SWAP2 POP DUP4 SWAP1 POP PUSH2 0x236B DUP2 PUSH2 0x2359 DUP2 PUSH2 0x2347 DUP2 PUSH2 0x2335 DUP2 PUSH2 0x2322 DUP2 DUP12 PUSH2 0x24DC JUMP JUMPDEST PUSH2 0x22C7 SWAP1 PUSH8 0x295D400EA3257FF NOT PUSH2 0x2A2B JUMP JUMPDEST PUSH2 0x22C7 SWAP1 PUSH8 0x157D8B2ECC70800 PUSH2 0x2A2B JUMP JUMPDEST PUSH2 0x22C7 SWAP1 PUSH8 0x5310AA7D5213000 PUSH2 0x2A2B JUMP JUMPDEST PUSH2 0x22C7 SWAP1 PUSH8 0xDE0CC3D15610000 PUSH2 0x2A2B JUMP JUMPDEST SWAP2 POP DUP2 PUSH8 0x119000AB100FFC00 PUSH2 0x2381 DUP8 DUP9 PUSH2 0x24DC JUMP JUMPDEST PUSH2 0x238D SWAP1 PUSH1 0x0 NOT PUSH2 0x2A53 JUMP JUMPDEST PUSH2 0x2397 SWAP2 SWAP1 PUSH2 0x2B8A JUMP JUMPDEST PUSH2 0x23A1 SWAP2 SWAP1 PUSH2 0x2A2B JUMP JUMPDEST SWAP3 POP POP PUSH1 0x0 PUSH2 0x23AF DUP4 PUSH2 0x24F1 JUMP JUMPDEST SWAP1 POP PUSH1 0x0 PUSH2 0x23BD DUP6 DUP4 PUSH2 0x24DC JUMP JUMPDEST SWAP1 POP PUSH1 0x0 DUP9 SLT PUSH2 0x23CD JUMPI DUP1 PUSH2 0x23DF JUMP JUMPDEST PUSH2 0x23DF DUP2 PUSH8 0x1BC16D674EC80000 PUSH2 0x2B8A JUMP JUMPDEST SWAP9 SWAP8 POP POP POP POP POP POP POP POP JUMP JUMPDEST PUSH1 0x0 PUSH1 0x2 PUSH2 0x23FA PUSH2 0x1AB6 PUSH2 0x1F4C JUMP JUMPDEST SLOAD EQ SWAP2 SWAP1 POP JUMP JUMPDEST PUSH1 0x0 DUP1 DUP3 PUSH2 0x240F DUP7 DUP7 PUSH2 0x2B8A JUMP JUMPDEST PUSH2 0x2419 SWAP2 SWAP1 PUSH2 0x2A99 JUMP JUMPDEST SWAP1 POP DUP4 PUSH2 0x2425 DUP3 PUSH2 0x269A JUMP JUMPDEST PUSH2 0x242F SWAP1 DUP6 PUSH2 0x2A53 JUMP JUMPDEST PUSH8 0xDE0B6B3A7640000 PUSH2 0x2441 DUP5 PUSH2 0x1EB2 JUMP JUMPDEST PUSH2 0x244B DUP10 DUP10 PUSH2 0x2B8A JUMP JUMPDEST PUSH2 0x2455 SWAP2 SWAP1 PUSH2 0x2A53 JUMP JUMPDEST PUSH2 0x245F SWAP2 SWAP1 PUSH2 0x2A99 JUMP JUMPDEST PUSH2 0x2469 SWAP2 SWAP1 PUSH2 0x2A2B JUMP JUMPDEST PUSH2 0x1F1B SWAP2 SWAP1 PUSH2 0x2B8A JUMP JUMPDEST PUSH1 0x0 PUSH1 0x1 PUSH1 0xFF SHL DUP3 SUB PUSH2 0x2499 JUMPI PUSH1 0x40 MLOAD PUSH4 0x4D2D75B1 PUSH1 0xE0 SHL DUP2 MSTORE PUSH1 0x4 ADD PUSH1 0x40 MLOAD DUP1 SWAP2 SUB SWAP1 REVERT JUMPDEST PUSH1 0x0 DUP3 SLT ISZERO PUSH2 0x24AA JUMPI POP NOT PUSH1 0x1 ADD SWAP1 JUMP JUMPDEST POP DUP1 JUMPDEST SWAP2 SWAP1 POP JUMP JUMPDEST PUSH1 0x0 PUSH2 0x20D0 DUP4 PUSH8 0xDE0B6B3A7640000 DUP5 PUSH2 0x26F6 JUMP JUMPDEST PUSH1 0x0 PUSH2 0x20D0 DUP4 PUSH8 0xDE0B6B3A7640000 DUP5 PUSH2 0x2715 JUMP JUMPDEST PUSH1 0x0 PUSH2 0x20D0 DUP4 DUP4 PUSH8 0xDE0B6B3A7640000 PUSH2 0x2715 JUMP JUMPDEST PUSH1 0x0 PUSH9 0x248CE36A70CB26B3E NOT DUP3 SGT PUSH2 0x250C JUMPI POP PUSH1 0x0 SWAP2 SWAP1 POP JUMP JUMPDEST PUSH9 0x755BF798B4A1BF1E5 DUP3 SLT PUSH2 0x2553 JUMPI PUSH1 0x40 MLOAD PUSH3 0x461BCD PUSH1 0xE5 SHL DUP2 MSTORE PUSH1 0x20 PUSH1 0x4 DUP3 ADD MSTORE PUSH1 0xC PUSH1 0x24 DUP3 ADD MSTORE PUSH12 0x4558505F4F564552464C4F57 PUSH1 0xA0 SHL PUSH1 0x44 DUP3 ADD MSTORE PUSH1 0x64 ADD PUSH2 0xA1E JUMP JUMPDEST PUSH6 0x3782DACE9D9 PUSH1 0x4E DUP4 SWAP1 SHL SDIV SWAP2 POP PUSH1 0x0 PUSH1 0x60 PUSH12 0xB17217F7D1CF79ABC9E3B398 DUP5 DUP3 SHL SDIV PUSH1 0x1 PUSH1 0x5F SHL ADD SWAP1 SAR PUSH12 0xB17217F7D1CF79ABC9E3B398 DUP2 MUL SWAP1 SWAP4 SUB PUSH13 0x240C330E9FB2D9CBAF0FD5AAFB NOT DUP2 ADD DUP2 MUL PUSH1 0x60 SWAP1 DUP2 SAR PUSH14 0x277594991CFC85F6E2461837CD9 ADD DUP3 MUL DUP2 SAR PUSH14 0x1A521255E34F6A5061B25EF1C9C3 NOT ADD DUP3 MUL DUP2 SAR PUSH14 0xB1BBB201F443CF962F1A1D3DB4A5 ADD DUP3 MUL DUP2 SAR PUSH15 0x2C72388D9F74F51A9331FED693F14 NOT ADD DUP3 MUL DUP2 SAR PUSH15 0x5180BB14799AB47A8A8CB2A527D57 ADD PUSH14 0x2D16720577BD19BF614176FE9EA PUSH13 0x10FE68E7FD37D0007B713F7650 DUP5 ADD DUP5 MUL DUP4 SAR SWAP1 DUP2 ADD SWAP1 DUP5 ADD PUSH14 0x1D3967ED30FC4F89C02BAB57081 NOT ADD MUL SWAP1 SWAP2 SAR PUSH15 0x587F503BB6EA29D25FCB740196450 ADD SWAP1 SWAP2 MUL PUSH14 0x360D7AEEA093263ECC6E0ECB2917 PUSH1 0x62 SHL ADD SDIV PUSH21 0x29D9DC38563C32E5C2F6DC192EE70EF65F9978AF3 MUL PUSH1 0xC3 SWAP4 SWAP1 SWAP4 SUB SWAP3 SWAP1 SWAP3 SHR SWAP3 SWAP2 POP POP JUMP JUMPDEST PUSH1 0x0 DUP1 PUSH8 0x1BC16D674EC80000 DUP4 PUSH2 0x26B0 DUP2 PUSH2 0x2CC2 JUMP JUMPDEST PUSH2 0x26BA SWAP2 SWAP1 PUSH2 0x2A53 JUMP JUMPDEST PUSH2 0x26C4 SWAP2 SWAP1 PUSH2 0x2A99 JUMP JUMPDEST SWAP1 POP PUSH2 0x26CF DUP2 PUSH2 0x24F1 JUMP JUMPDEST SWAP1 POP PUSH8 0x22C955229554C1B6 PUSH2 0x26EC PUSH8 0xDE0B6B3A7640000 DUP4 PUSH2 0x2A53 JUMP JUMPDEST PUSH2 0x20D0 SWAP2 SWAP1 PUSH2 0x2A99 JUMP JUMPDEST DUP3 DUP3 MUL DUP2 ISZERO ISZERO DUP5 ISZERO DUP6 DUP4 DIV DUP6 EQ OR AND PUSH2 0x270E JUMPI PUSH1 0x0 DUP1 REVERT JUMPDEST DIV SWAP3 SWAP2 POP POP JUMP JUMPDEST DUP3 DUP3 MUL DUP2 ISZERO ISZERO DUP5 ISZERO DUP6 DUP4 SDIV DUP6 EQ OR AND PUSH2 0x272D JUMPI PUSH1 0x0 DUP1 REVERT JUMPDEST SDIV SWAP3 SWAP2 POP POP JUMP JUMPDEST PUSH1 0x40 MLOAD DUP1 PUSH1 0x40 ADD PUSH1 0x40 MSTORE DUP1 PUSH1 0x0 DUP2 MSTORE PUSH1 0x20 ADD PUSH1 0x0 DUP2 MSTORE POP SWAP1 JUMP JUMPDEST DUP1 CALLDATALOAD DUP1 ISZERO ISZERO DUP2 EQ PUSH2 0x24AD JUMPI PUSH1 0x0 DUP1 REVERT JUMPDEST PUSH1 0x0 DUP1 PUSH1 0x0 PUSH1 0x60 DUP5 DUP7 SUB SLT ISZERO PUSH2 0x2773 JUMPI PUSH1 0x0 DUP1 REVERT JUMPDEST PUSH2 0x277C DUP5 PUSH2 0x274E JUMP JUMPDEST SWAP6 PUSH1 0x20 DUP6 ADD CALLDATALOAD SWAP6 POP PUSH1 0x40 SWAP1 SWAP5 ADD CALLDATALOAD SWAP4 SWAP3 POP POP POP JUMP JUMPDEST PUSH1 0x0 PUSH1 0x20 DUP3 DUP5 SUB SLT ISZERO PUSH2 0x27A3 JUMPI PUSH1 0x0 DUP1 REVERT JUMPDEST PUSH2 0x20D0 DUP3 PUSH2 0x274E JUMP JUMPDEST PUSH1 0x0 DUP2 MLOAD DUP1 DUP5 MSTORE PUSH1 0x0 JUMPDEST DUP2 DUP2 LT ISZERO PUSH2 0x27D2 JUMPI PUSH1 0x20 DUP2 DUP6 ADD DUP2 ADD MLOAD DUP7 DUP4 ADD DUP3 ADD MSTORE ADD PUSH2 0x27B6 JUMP JUMPDEST POP PUSH1 0x0 PUSH1 0x20 DUP3 DUP7 ADD ADD MSTORE PUSH1 0x20 PUSH1 0x1F NOT PUSH1 0x1F DUP4 ADD AND DUP6 ADD ADD SWAP2 POP POP SWAP3 SWAP2 POP POP JUMP JUMPDEST PUSH4 0x4E487B71 PUSH1 0xE0 SHL PUSH1 0x0 MSTORE PUSH1 0x21 PUSH1 0x4 MSTORE PUSH1 0x24 PUSH1 0x0 REVERT JUMPDEST PUSH1 0x4 DUP2 LT PUSH2 0x2826 JUMPI PUSH4 0x4E487B71 PUSH1 0xE0 SHL PUSH1 0x0 MSTORE PUSH1 0x21 PUSH1 0x4 MSTORE PUSH1 0x24 PUSH1 0x0 REVERT JUMPDEST SWAP1 MSTORE JUMP JUMPDEST DUP1 MLOAD DUP3 MSTORE PUSH1 0x20 SWAP1 DUP2 ADD MLOAD SWAP2 ADD MSTORE JUMP JUMPDEST PUSH2 0x1A0 DUP2 MSTORE PUSH1 0x0 PUSH2 0x284E PUSH2 0x1A0 DUP4 ADD DUP16 PUSH2 0x27AC JUMP JUMPDEST DUP3 DUP2 SUB PUSH1 0x20 DUP5 ADD MSTORE PUSH2 0x2860 DUP2 DUP16 PUSH2 0x27AC JUMP JUMPDEST PUSH1 0x1 PUSH1 0x1 PUSH1 0xA0 SHL SUB DUP15 DUP2 AND PUSH1 0x40 DUP7 ADD MSTORE DUP14 AND PUSH1 0x60 DUP6 ADD MSTORE PUSH1 0x1 PUSH1 0x1 PUSH1 0x60 SHL SUB DUP13 AND PUSH1 0x80 DUP6 ADD MSTORE PUSH1 0x1 PUSH1 0x1 PUSH1 0x40 SHL SUB DUP12 AND PUSH1 0xA0 DUP6 ADD MSTORE SWAP2 POP PUSH2 0x289E SWAP1 POP JUMP JUMPDEST PUSH2 0x28AB PUSH1 0xC0 DUP4 ADD DUP10 PUSH2 0x2808 JUMP JUMPDEST DUP7 ISZERO ISZERO PUSH1 0xE0 DUP4 ADD MSTORE PUSH2 0x28C1 PUSH2 0x100 DUP4 ADD DUP8 PUSH2 0x282A JUMP JUMPDEST DUP5 PUSH2 0x140 DUP4 ADD MSTORE DUP4 PUSH2 0x160 DUP4 ADD MSTORE DUP3 PUSH2 0x180 DUP4 ADD MSTORE SWAP14 SWAP13 POP POP POP POP POP POP POP POP POP POP POP POP POP JUMP JUMPDEST PUSH1 0x20 DUP2 MSTORE PUSH1 0x0 PUSH2 0x20D0 PUSH1 0x20 DUP4 ADD DUP5 PUSH2 0x27AC JUMP JUMPDEST PUSH1 0x1 PUSH1 0x1 PUSH1 0xA0 SHL SUB SWAP2 SWAP1 SWAP2 AND DUP2 MSTORE PUSH1 0x20 ADD SWAP1 JUMP JUMPDEST DUP1 CALLDATALOAD PUSH1 0x1 PUSH1 0x1 PUSH1 0xA0 SHL SUB DUP2 AND DUP2 EQ PUSH2 0x24AD JUMPI PUSH1 0x0 DUP1 REVERT JUMPDEST PUSH1 0x0 PUSH1 0x20 DUP3 DUP5 SUB SLT ISZERO PUSH2 0x2937 JUMPI PUSH1 0x0 DUP1 REVERT JUMPDEST PUSH2 0x20D0 DUP3 PUSH2 0x290E JUMP JUMPDEST PUSH1 0x0 DUP1 PUSH1 0x40 DUP4 DUP6 SUB SLT ISZERO PUSH2 0x2953 JUMPI PUSH1 0x0 DUP1 REVERT JUMPDEST PUSH2 0x295C DUP4 PUSH2 0x274E JUMP JUMPDEST SWAP5 PUSH1 0x20 SWAP4 SWAP1 SWAP4 ADD CALLDATALOAD SWAP4 POP POP POP JUMP JUMPDEST DUP3 DUP2 MSTORE PUSH1 0x60 DUP2 ADD PUSH2 0x20D0 PUSH1 0x20 DUP4 ADD DUP5 PUSH2 0x282A JUMP JUMPDEST PUSH1 0x40 DUP2 ADD PUSH2 0x1A9B DUP3 DUP5 PUSH2 0x282A JUMP JUMPDEST PUSH1 0x20 DUP2 ADD PUSH2 0x1A9B DUP3 DUP5 PUSH2 0x2808 JUMP JUMPDEST PUSH1 0x0 DUP1 PUSH1 0x0 DUP1 PUSH1 0x80 DUP6 DUP8 SUB SLT ISZERO PUSH2 0x29B0 JUMPI PUSH1 0x0 DUP1 REVERT JUMPDEST PUSH2 0x29B9 DUP6 PUSH2 0x274E JUMP JUMPDEST SWAP4 POP PUSH1 0x20 DUP6 ADD CALLDATALOAD SWAP3 POP PUSH1 0x40 DUP6 ADD CALLDATALOAD SWAP2 POP PUSH2 0x29D5 PUSH1 0x60 DUP7 ADD PUSH2 0x290E JUMP JUMPDEST SWAP1 POP SWAP3 SWAP6 SWAP2 SWAP5 POP SWAP3 POP JUMP JUMPDEST PUSH1 0x0 DUP1 PUSH1 0x40 DUP4 DUP6 SUB SLT ISZERO PUSH2 0x29F3 JUMPI PUSH1 0x0 DUP1 REVERT JUMPDEST POP POP DUP1 CALLDATALOAD SWAP3 PUSH1 0x20 SWAP1 SWAP2 ADD CALLDATALOAD SWAP2 POP JUMP JUMPDEST PUSH4 0x4E487B71 PUSH1 0xE0 SHL PUSH1 0x0 MSTORE PUSH1 0x11 PUSH1 0x4 MSTORE PUSH1 0x24 PUSH1 0x0 REVERT JUMPDEST DUP1 DUP3 ADD DUP1 DUP3 GT ISZERO PUSH2 0x1A9B JUMPI PUSH2 0x1A9B PUSH2 0x2A02 JUMP JUMPDEST DUP1 DUP3 ADD DUP3 DUP2 SLT PUSH1 0x0 DUP4 SLT DUP1 ISZERO DUP3 AND DUP3 ISZERO DUP3 AND OR ISZERO PUSH2 0x2A4B JUMPI PUSH2 0x2A4B PUSH2 0x2A02 JUMP JUMPDEST POP POP SWAP3 SWAP2 POP POP JUMP JUMPDEST DUP1 DUP3 MUL PUSH1 0x0 DUP3 SLT PUSH1 0x1 PUSH1 0xFF SHL DUP5 EQ AND ISZERO PUSH2 0x2A6F JUMPI PUSH2 0x2A6F PUSH2 0x2A02 JUMP JUMPDEST DUP2 DUP2 SDIV DUP4 EQ DUP3 ISZERO OR PUSH2 0x1A9B JUMPI PUSH2 0x1A9B PUSH2 0x2A02 JUMP JUMPDEST PUSH4 0x4E487B71 PUSH1 0xE0 SHL PUSH1 0x0 MSTORE PUSH1 0x12 PUSH1 0x4 MSTORE PUSH1 0x24 PUSH1 0x0 REVERT JUMPDEST PUSH1 0x0 DUP3 PUSH2 0x2AA8 JUMPI PUSH2 0x2AA8 PUSH2 0x2A83 JUMP JUMPDEST PUSH1 0x1 PUSH1 0xFF SHL DUP3 EQ PUSH1 0x0 NOT DUP5 EQ AND ISZERO PUSH2 0x2AC2 JUMPI PUSH2 0x2AC2 PUSH2 0x2A02 JUMP JUMPDEST POP SDIV SWAP1 JUMP JUMPDEST PUSH1 0x20 DUP1 DUP3 MSTORE PUSH1 0x14 SWAP1 DUP3 ADD MSTORE PUSH20 0x2734B6B13AB9AFA4B7333630BA32B221B7B9BA17 PUSH1 0x61 SHL PUSH1 0x40 DUP3 ADD MSTORE PUSH1 0x60 ADD SWAP1 JUMP JUMPDEST DUP2 DUP2 SUB DUP2 DUP2 GT ISZERO PUSH2 0x1A9B JUMPI PUSH2 0x1A9B PUSH2 0x2A02 JUMP JUMPDEST DUP1 DUP3 MUL DUP2 ISZERO DUP3 DUP3 DIV DUP5 EQ OR PUSH2 0x1A9B JUMPI PUSH2 0x1A9B PUSH2 0x2A02 JUMP JUMPDEST PUSH1 0x0 DUP3 PUSH2 0x2B2E JUMPI PUSH2 0x2B2E PUSH2 0x2A83 JUMP JUMPDEST POP DIV SWAP1 JUMP JUMPDEST DUP4 DUP2 MSTORE PUSH1 0x20 DUP2 ADD DUP4 SWAP1 MSTORE PUSH1 0x80 DUP2 ADD PUSH2 0x2B4E PUSH1 0x40 DUP4 ADD DUP5 PUSH2 0x282A JUMP JUMPDEST SWAP5 SWAP4 POP POP POP POP JUMP JUMPDEST PUSH1 0x1 DUP2 DUP2 SHR SWAP1 DUP3 AND DUP1 PUSH2 0x2B6A JUMPI PUSH1 0x7F DUP3 AND SWAP2 POP JUMPDEST PUSH1 0x20 DUP3 LT DUP2 SUB PUSH2 0x1D3A JUMPI PUSH4 0x4E487B71 PUSH1 0xE0 SHL PUSH1 0x0 MSTORE PUSH1 0x22 PUSH1 0x4 MSTORE PUSH1 0x24 PUSH1 0x0 REVERT JUMPDEST DUP2 DUP2 SUB PUSH1 0x0 DUP4 SLT DUP1 ISZERO DUP4 DUP4 SGT AND DUP4 DUP4 SLT DUP3 AND OR ISZERO PUSH2 0x2BAA JUMPI PUSH2 0x2BAA PUSH2 0x2A02 JUMP JUMPDEST POP SWAP3 SWAP2 POP POP JUMP JUMPDEST PUSH1 0x0 PUSH1 0x20 DUP3 DUP5 SUB SLT ISZERO PUSH2 0x2BC3 JUMPI PUSH1 0x0 DUP1 REVERT JUMPDEST DUP2 MLOAD PUSH1 0xFF DUP2 AND DUP2 EQ PUSH2 0x20D0 JUMPI PUSH1 0x0 DUP1 REVERT JUMPDEST PUSH1 0x1 DUP2 JUMPDEST PUSH1 0x1 DUP5 GT ISZERO PUSH2 0x20B6 JUMPI DUP1 DUP6 DIV DUP2 GT ISZERO PUSH2 0x2BF3 JUMPI PUSH2 0x2BF3 PUSH2 0x2A02 JUMP JUMPDEST PUSH1 0x1 DUP5 AND ISZERO PUSH2 0x2C01 JUMPI SWAP1 DUP2 MUL SWAP1 JUMPDEST PUSH1 0x1 SWAP4 SWAP1 SWAP4 SHR SWAP3 DUP1 MUL PUSH2 0x2BD8 JUMP JUMPDEST PUSH1 0x0 DUP3 PUSH2 0x2C1E JUMPI POP PUSH1 0x1 PUSH2 0x1A9B JUMP JUMPDEST DUP2 PUSH2 0x2C2B JUMPI POP PUSH1 0x0 PUSH2 0x1A9B JUMP JUMPDEST DUP2 PUSH1 0x1 DUP2 EQ PUSH2 0x2C41 JUMPI PUSH1 0x2 DUP2 EQ PUSH2 0x2C4B JUMPI PUSH2 0x2C67 JUMP JUMPDEST PUSH1 0x1 SWAP2 POP POP PUSH2 0x1A9B JUMP JUMPDEST PUSH1 0xFF DUP5 GT ISZERO PUSH2 0x2C5C JUMPI PUSH2 0x2C5C PUSH2 0x2A02 JUMP JUMPDEST POP POP PUSH1 0x1 DUP3 SHL PUSH2 0x1A9B JUMP JUMPDEST POP PUSH1 0x20 DUP4 LT PUSH2 0x133 DUP4 LT AND PUSH1 0x4E DUP5 LT PUSH1 0xB DUP5 LT AND OR ISZERO PUSH2 0x2C8A JUMPI POP DUP2 DUP2 EXP PUSH2 0x1A9B JUMP JUMPDEST PUSH2 0x2C97 PUSH1 0x0 NOT DUP5 DUP5 PUSH2 0x2BD4 JUMP JUMPDEST DUP1 PUSH1 0x0 NOT DIV DUP3 GT ISZERO PUSH2 0x2CAB JUMPI PUSH2 0x2CAB PUSH2 0x2A02 JUMP JUMPDEST MUL SWAP4 SWAP3 POP POP POP JUMP JUMPDEST PUSH1 0x0 PUSH2 0x20D0 PUSH1 0xFF DUP5 AND DUP4 PUSH2 0x2C0F JUMP JUMPDEST PUSH1 0x0 PUSH1 0x1 PUSH1 0xFF SHL DUP3 ADD PUSH2 0x2CD7 JUMPI PUSH2 0x2CD7 PUSH2 0x2A02 JUMP JUMPDEST POP PUSH1 0x0 SUB SWAP1 JUMP INVALID BYTE BALANCE 0xE7 CALLER LOG1 PUSH19 0xAFCF46074B3106C17F0C298E226442682A03C1 0xE9 SWAP13 0xE2 JUMP SGT SWAP15 0xC2 NUMBER 0xC4 DUP5 CALLVALUE 0xC2 PUSH9 0x6E04A4BF1F5D3451ED 0xC9 PUSH9 0x23E71D773382CDD2D0 STOP PUSH19 0xC51C1ACA26469706673582212204F7DFC7AEA MSTORE8 0xC8 0x23 SAR SWAP4 0x22 MSTORE MOD EQ SWAP3 GT NUMBER COINBASE SWAP3 DIV 0xE2 0xE PUSH17 0x7BDCF0C3D34069F93A64736F6C63430008 SHR STOP CALLER LOG2 PUSH5 0x6970667358 0x22 SLT KECCAK256 CODECOPY ADDRESS LT SDIV PC 0xDB TLOAD BYTE RETURN PC EXP 0xC0 SLT 0xDE 0x25 PUSH15 0x3D1C4DB5D6AB3332EEE111D8508DE0 PUSH13 0x64736F6C634300081C00330000 "},"methodIdentifiers":{"MAX_FEE_BPS()":"d55be8c6","allMarketsLength()":"88dd46a1","approveResolver(address)":"d7f25f3e","approvedResolvers(address)":"917844cf","createBinaryMarket((uint8,address,address,address,uint16,string,string,uint16,uint16,uint64))":"b6faca34","feeRecipient()":"46904840","getTotalMarketCount()":"a0866e1f","maxMarketDuration()":"51b2939c","minMarketDuration()":"d2bee323","owner()":"8da5cb5b","platformFeeBps()":"22dcd13e","revokeResolver(address)":"62ee6a4c","setMaxMarketDuration(uint24)":"650db51a","setMinMarketDuration(uint24)":"98178f36","setNewToken(address)":"5ed411e5","token()":"fc0c546a","transferOwnership(address)":"f2fde38b"}}}}}