{
  "_format": "hh-sol-artifact-1",
  "contractName": "PredictionMarket",
  "sourceName": "contracts/PredictionMarket.sol",
  "abi": [
    {
      "inputs": [
        {
          "internalType": "address",
          "name": "token",
          "type": "address"
        },
        {
          "components": [
            {
              "internalType": "enum MarketType",
              "name": "marketType",
              "type": "uint8"
            },
            {
              "internalType": "address",
              "name": "creator",
              "type": "address"
            },
            {
              "internalType": "address",
              "name": "resolver",
              "type": "address"
            },
            {
              "internalType": "address",
              "name": "feeRecipient",
              "type": "address"
            },
            {
              "internalType": "uint16",
              "name": "platformFeeBps",
              "type": "uint16"
            },
            {
              "internalType": "string",
              "name": "question",
              "type": "string"
            },
            {
              "internalType": "string",
              "name": "description",
              "type": "string"
            },
            {
              "internalType": "uint16",
              "name": "category",
              "type": "uint16"
            },
            {
              "internalType": "uint16",
              "name": "subcategory",
              "type": "uint16"
            },
            {
              "internalType": "uint64",
              "name": "endTime",
              "type": "uint64"
            }
          ],
          "internalType": "struct MarketCreationData",
          "name": "marketCreationData",
          "type": "tuple"
        }
      ],
      "stateMutability": "nonpayable",
      "type": "constructor"
    },
    {
      "inputs": [],
      "name": "Infinity",
      "type": "error"
    },
    {
      "inputs": [],
      "name": "Min",
      "type": "error"
    },
    {
      "inputs": [],
      "name": "NegativeInfinity",
      "type": "error"
    },
    {
      "inputs": [],
      "name": "Nimbus_AlreadyClaimed",
      "type": "error"
    },
    {
      "inputs": [],
      "name": "Nimbus_DeflatedCost",
      "type": "error"
    },
    {
      "inputs": [],
      "name": "Nimbus_InflatedCost",
      "type": "error"
    },
    {
      "inputs": [],
      "name": "Nimbus_InsufficientAmount",
      "type": "error"
    },
    {
      "inputs": [],
      "name": "Nimbus_InsufficientLiquidity",
      "type": "error"
    },
    {
      "inputs": [],
      "name": "Nimbus_InvalidAmount",
      "type": "error"
    },
    {
      "inputs": [],
      "name": "Nimbus_MarketAlreadyResolved",
      "type": "error"
    },
    {
      "inputs": [],
      "name": "Nimbus_MarketClosed",
      "type": "error"
    },
    {
      "inputs": [],
      "name": "Nimbus_MarketInvalid",
      "type": "error"
    },
    {
      "inputs": [],
      "name": "Nimbus_MarketNotClosed",
      "type": "error"
    },
    {
      "inputs": [],
      "name": "Nimbus_MarketNotInvalid",
      "type": "error"
    },
    {
      "inputs": [],
      "name": "Nimbus_MarketNotResolved",
      "type": "error"
    },
    {
      "inputs": [],
      "name": "Nimbus_NoFees",
      "type": "error"
    },
    {
      "inputs": [],
      "name": "Nimbus_NoWinnings",
      "type": "error"
    },
    {
      "inputs": [],
      "name": "Nimbus_NotOpen",
      "type": "error"
    },
    {
      "inputs": [],
      "name": "Nimbus_Reentrancy",
      "type": "error"
    },
    {
      "inputs": [],
      "name": "Nimbus_TooEarly",
      "type": "error"
    },
    {
      "inputs": [],
      "name": "Nimbus_Unauthorized",
      "type": "error"
    },
    {
      "inputs": [],
      "name": "OutOfBounds",
      "type": "error"
    },
    {
      "inputs": [],
      "name": "PMAMM_XLiquidityDepleted",
      "type": "error"
    },
    {
      "inputs": [],
      "name": "PMAMM_XLiquidityInsufficient",
      "type": "error"
    },
    {
      "inputs": [],
      "name": "PMAMM_YLiquidityDepleted",
      "type": "error"
    },
    {
      "inputs": [],
      "name": "PMAMM_YLiquidityInsufficient",
      "type": "error"
    },
    {
      "inputs": [
        {
          "internalType": "address",
          "name": "token",
          "type": "address"
        }
      ],
      "name": "SafeERC20FailedOperation",
      "type": "error"
    },
    {
      "anonymous": false,
      "inputs": [
        {
          "indexed": true,
          "internalType": "address",
          "name": "trader",
          "type": "address"
        },
        {
          "indexed": true,
          "internalType": "bool",
          "name": "isYes",
          "type": "bool"
        },
        {
          "indexed": false,
          "internalType": "uint256",
          "name": "shares",
          "type": "uint256"
        },
        {
          "indexed": false,
          "internalType": "uint256",
          "name": "cost",
          "type": "uint256"
        }
      ],
      "name": "Buy",
      "type": "event"
    },
    {
      "anonymous": false,
      "inputs": [
        {
          "indexed": true,
          "internalType": "address",
          "name": "recipient",
          "type": "address"
        },
        {
          "indexed": false,
          "internalType": "uint256",
          "name": "amount",
          "type": "uint256"
        }
      ],
      "name": "FeesCollected",
      "type": "event"
    },
    {
      "anonymous": false,
      "inputs": [
        {
          "indexed": false,
          "internalType": "uint256",
          "name": "timestamp",
          "type": "uint256"
        }
      ],
      "name": "MarketInvalidated",
      "type": "event"
    },
    {
      "anonymous": false,
      "inputs": [
        {
          "indexed": true,
          "internalType": "bool",
          "name": "outcome",
          "type": "bool"
        },
        {
          "indexed": false,
          "internalType": "uint256",
          "name": "timestamp",
          "type": "uint256"
        }
      ],
      "name": "MarketResolved",
      "type": "event"
    },
    {
      "anonymous": false,
      "inputs": [
        {
          "indexed": true,
          "internalType": "address",
          "name": "trader",
          "type": "address"
        },
        {
          "indexed": true,
          "internalType": "bool",
          "name": "isYes",
          "type": "bool"
        },
        {
          "indexed": false,
          "internalType": "uint256",
          "name": "shares",
          "type": "uint256"
        },
        {
          "indexed": false,
          "internalType": "uint256",
          "name": "cost",
          "type": "uint256"
        }
      ],
      "name": "Sell",
      "type": "event"
    },
    {
      "anonymous": false,
      "inputs": [
        {
          "indexed": true,
          "internalType": "address",
          "name": "user",
          "type": "address"
        },
        {
          "indexed": false,
          "internalType": "uint256",
          "name": "amount",
          "type": "uint256"
        }
      ],
      "name": "WinningsClaimed",
      "type": "event"
    },
    {
      "inputs": [],
      "name": "CREATOR",
      "outputs": [
        {
          "internalType": "address",
          "name": "",
          "type": "address"
        }
      ],
      "stateMutability": "view",
      "type": "function"
    },
    {
      "inputs": [],
      "name": "END_TIME",
      "outputs": [
        {
          "internalType": "uint96",
          "name": "",
          "type": "uint96"
        }
      ],
      "stateMutability": "view",
      "type": "function"
    },
    {
      "inputs": [],
      "name": "FEE_RECIPIENT",
      "outputs": [
        {
          "internalType": "address",
          "name": "",
          "type": "address"
        }
      ],
      "stateMutability": "view",
      "type": "function"
    },
    {
      "inputs": [],
      "name": "LIQUIDITY_FACTOR",
      "outputs": [
        {
          "internalType": "uint16",
          "name": "",
          "type": "uint16"
        }
      ],
      "stateMutability": "view",
      "type": "function"
    },
    {
      "inputs": [],
      "name": "MAX_PRICE",
      "outputs": [
        {
          "internalType": "int64",
          "name": "",
          "type": "int64"
        }
      ],
      "stateMutability": "view",
      "type": "function"
    },
    {
      "inputs": [],
      "name": "PLATFORM_FEE_BPS",
      "outputs": [
        {
          "internalType": "uint16",
          "name": "",
          "type": "uint16"
        }
      ],
      "stateMutability": "view",
      "type": "function"
    },
    {
      "inputs": [],
      "name": "PRESET_LIQUIDITY_FACTOR",
      "outputs": [
        {
          "internalType": "uint16",
          "name": "",
          "type": "uint16"
        }
      ],
      "stateMutability": "view",
      "type": "function"
    },
    {
      "inputs": [],
      "name": "RESOLVER",
      "outputs": [
        {
          "internalType": "address",
          "name": "",
          "type": "address"
        }
      ],
      "stateMutability": "view",
      "type": "function"
    },
    {
      "inputs": [],
      "name": "STARTING_PRICE",
      "outputs": [
        {
          "internalType": "int64",
          "name": "",
          "type": "int64"
        }
      ],
      "stateMutability": "view",
      "type": "function"
    },
    {
      "inputs": [],
      "name": "TOKEN",
      "outputs": [
        {
          "internalType": "contract IERC20",
          "name": "",
          "type": "address"
        }
      ],
      "stateMutability": "view",
      "type": "function"
    },
    {
      "inputs": [],
      "name": "accumulatedFees",
      "outputs": [
        {
          "internalType": "uint256",
          "name": "",
          "type": "uint256"
        }
      ],
      "stateMutability": "view",
      "type": "function"
    },
    {
      "inputs": [
        {
          "internalType": "bool",
          "name": "isYes",
          "type": "bool"
        },
        {
          "internalType": "uint256",
          "name": "amount",
          "type": "uint256"
        },
        {
          "internalType": "uint256",
          "name": "shares",
          "type": "uint256"
        }
      ],
      "name": "buy",
      "outputs": [],
      "stateMutability": "nonpayable",
      "type": "function"
    },
    {
      "inputs": [],
      "name": "claim",
      "outputs": [
        {
          "internalType": "uint256",
          "name": "payout",
          "type": "uint256"
        }
      ],
      "stateMutability": "nonpayable",
      "type": "function"
    },
    {
      "inputs": [],
      "name": "claimRefund",
      "outputs": [
        {
          "internalType": "uint256",
          "name": "refund",
          "type": "uint256"
        }
      ],
      "stateMutability": "nonpayable",
      "type": "function"
    },
    {
      "inputs": [],
      "name": "collateralPool",
      "outputs": [
        {
          "internalType": "uint256",
          "name": "",
          "type": "uint256"
        }
      ],
      "stateMutability": "view",
      "type": "function"
    },
    {
      "inputs": [],
      "name": "collectFees",
      "outputs": [],
      "stateMutability": "nonpayable",
      "type": "function"
    },
    {
      "inputs": [],
      "name": "description",
      "outputs": [
        {
          "internalType": "string",
          "name": "",
          "type": "string"
        }
      ],
      "stateMutability": "view",
      "type": "function"
    },
    {
      "inputs": [],
      "name": "forceClose",
      "outputs": [],
      "stateMutability": "nonpayable",
      "type": "function"
    },
    {
      "inputs": [
        {
          "internalType": "bool",
          "name": "isYes",
          "type": "bool"
        },
        {
          "internalType": "uint256",
          "name": "amount",
          "type": "uint256"
        }
      ],
      "name": "getBuyQuote",
      "outputs": [
        {
          "internalType": "uint256",
          "name": "shares",
          "type": "uint256"
        },
        {
          "components": [
            {
              "internalType": "int256",
              "name": "yesPrice",
              "type": "int256"
            },
            {
              "internalType": "int256",
              "name": "noPrice",
              "type": "int256"
            }
          ],
          "internalType": "struct Prices",
          "name": "newPrices",
          "type": "tuple"
        }
      ],
      "stateMutability": "view",
      "type": "function"
    },
    {
      "inputs": [],
      "name": "getEffectiveLiquidity",
      "outputs": [
        {
          "internalType": "int256",
          "name": "leff",
          "type": "int256"
        }
      ],
      "stateMutability": "view",
      "type": "function"
    },
    {
      "inputs": [],
      "name": "getMarketInfo",
      "outputs": [
        {
          "internalType": "string",
          "name": "",
          "type": "string"
        },
        {
          "internalType": "string",
          "name": "",
          "type": "string"
        },
        {
          "internalType": "address",
          "name": "",
          "type": "address"
        },
        {
          "internalType": "address",
          "name": "",
          "type": "address"
        },
        {
          "internalType": "uint96",
          "name": "",
          "type": "uint96"
        },
        {
          "internalType": "uint96",
          "name": "",
          "type": "uint96"
        },
        {
          "internalType": "enum MarketState",
          "name": "",
          "type": "uint8"
        },
        {
          "internalType": "bool",
          "name": "",
          "type": "bool"
        },
        {
          "components": [
            {
              "internalType": "int256",
              "name": "yesPrice",
              "type": "int256"
            },
            {
              "internalType": "int256",
              "name": "noPrice",
              "type": "int256"
            }
          ],
          "internalType": "struct Prices",
          "name": "",
          "type": "tuple"
        },
        {
          "internalType": "int256",
          "name": "",
          "type": "int256"
        },
        {
          "internalType": "int256",
          "name": "",
          "type": "int256"
        },
        {
          "internalType": "uint256",
          "name": "",
          "type": "uint256"
        }
      ],
      "stateMutability": "view",
      "type": "function"
    },
    {
      "inputs": [],
      "name": "getPriceFromReserves",
      "outputs": [
        {
          "components": [
            {
              "internalType": "int256",
              "name": "yesPrice",
              "type": "int256"
            },
            {
              "internalType": "int256",
              "name": "noPrice",
              "type": "int256"
            }
          ],
          "internalType": "struct Prices",
          "name": "prices",
          "type": "tuple"
        }
      ],
      "stateMutability": "view",
      "type": "function"
    },
    {
      "inputs": [
        {
          "internalType": "bool",
          "name": "isYes",
          "type": "bool"
        },
        {
          "internalType": "uint256",
          "name": "shares",
          "type": "uint256"
        }
      ],
      "name": "getSellQuote",
      "outputs": [
        {
          "internalType": "uint256",
          "name": "cost",
          "type": "uint256"
        },
        {
          "components": [
            {
              "internalType": "int256",
              "name": "yesPrice",
              "type": "int256"
            },
            {
              "internalType": "int256",
              "name": "noPrice",
              "type": "int256"
            }
          ],
          "internalType": "struct Prices",
          "name": "newPrices",
          "type": "tuple"
        }
      ],
      "stateMutability": "view",
      "type": "function"
    },
    {
      "inputs": [
        {
          "internalType": "address",
          "name": "user",
          "type": "address"
        }
      ],
      "name": "getUserPosition",
      "outputs": [
        {
          "components": [
            {
              "internalType": "uint256",
              "name": "yesBalance",
              "type": "uint256"
            },
            {
              "internalType": "uint256",
              "name": "noBalance",
              "type": "uint256"
            }
          ],
          "internalType": "struct IPredictionMarket.UserPosition",
          "name": "",
          "type": "tuple"
        }
      ],
      "stateMutability": "view",
      "type": "function"
    },
    {
      "inputs": [
        {
          "internalType": "address",
          "name": "",
          "type": "address"
        }
      ],
      "name": "hasClaimed",
      "outputs": [
        {
          "internalType": "bool",
          "name": "",
          "type": "bool"
        }
      ],
      "stateMutability": "view",
      "type": "function"
    },
    {
      "inputs": [],
      "name": "invalidate",
      "outputs": [],
      "stateMutability": "nonpayable",
      "type": "function"
    },
    {
      "inputs": [],
      "name": "noShares",
      "outputs": [
        {
          "internalType": "uint256",
          "name": "",
          "type": "uint256"
        }
      ],
      "stateMutability": "view",
      "type": "function"
    },
    {
      "inputs": [],
      "name": "outcome",
      "outputs": [
        {
          "internalType": "bool",
          "name": "",
          "type": "bool"
        }
      ],
      "stateMutability": "view",
      "type": "function"
    },
    {
      "inputs": [],
      "name": "question",
      "outputs": [
        {
          "internalType": "string",
          "name": "",
          "type": "string"
        }
      ],
      "stateMutability": "view",
      "type": "function"
    },
    {
      "inputs": [],
      "name": "resolutionTime",
      "outputs": [
        {
          "internalType": "uint96",
          "name": "",
          "type": "uint96"
        }
      ],
      "stateMutability": "view",
      "type": "function"
    },
    {
      "inputs": [
        {
          "internalType": "bool",
          "name": "_outcome",
          "type": "bool"
        }
      ],
      "name": "resolve",
      "outputs": [],
      "stateMutability": "nonpayable",
      "type": "function"
    },
    {
      "inputs": [
        {
          "internalType": "bool",
          "name": "isYes",
          "type": "bool"
        },
        {
          "internalType": "uint256",
          "name": "shares",
          "type": "uint256"
        },
        {
          "internalType": "uint256",
          "name": "minReturn",
          "type": "uint256"
        }
      ],
      "name": "sell",
      "outputs": [],
      "stateMutability": "nonpayable",
      "type": "function"
    },
    {
      "inputs": [],
      "name": "state",
      "outputs": [
        {
          "internalType": "enum MarketState",
          "name": "",
          "type": "uint8"
        }
      ],
      "stateMutability": "view",
      "type": "function"
    },
    {
      "inputs": [
        {
          "internalType": "address",
          "name": "",
          "type": "address"
        }
      ],
      "name": "userPosition",
      "outputs": [
        {
          "internalType": "uint256",
          "name": "yesBalance",
          "type": "uint256"
        },
        {
          "internalType": "uint256",
          "name": "noBalance",
          "type": "uint256"
        }
      ],
      "stateMutability": "view",
      "type": "function"
    },
    {
      "inputs": [],
      "name": "xReserve",
      "outputs": [
        {
          "internalType": "int256",
          "name": "",
          "type": "int256"
        }
      ],
      "stateMutability": "view",
      "type": "function"
    },
    {
      "inputs": [],
      "name": "yReserve",
      "outputs": [
        {
          "internalType": "int256",
          "name": "",
          "type": "int256"
        }
      ],
      "stateMutability": "view",
      "type": "function"
    },
    {
      "inputs": [],
      "name": "yesShares",
      "outputs": [
        {
          "internalType": "uint256",
          "name": "",
          "type": "uint256"
        }
      ],
      "stateMutability": "view",
      "type": "function"
    },
    {
      "stateMutability": "payable",
      "type": "receive"
    }
  ],
  "bytecode": "0x61014060405234801561001157600080fd5b50604051613ecd380380613ecd83398101604081905261003091610e19565b61012081015161271060808190526001600160401b0390911660a08190526100566100c0565b60015560005550506001600160a01b03821660c05260a081015160039061007d9082610fd7565b5060c08101516004906100909082610fd7565b5060208101516001600160a01b0390811660e05260408201518116610100526060909101511661012052506111fe565b600080806100cc610148565b905060006100e16706f05b59d3b2000061019d565b905060006100ef83836110ab565b90506100fa82610243565b61010490846110ab565b670de0b6b3a764000061011f6706f05b59d3b20000846110ab565b61012991906110f1565b610133919061111f565b935061013f8185611147565b94505050509091565b60004260a0516001600160601b03161015610168575060805161ffff1690565b6101874260a0516001600160601b0316610182919061116e565b6102a6565b60805161ffff166101989190611181565b905090565b60006706f05b59d3b2000082036101b657506000919050565b670de0b6b3a764000082126101de576040516307a0212760e01b815260040160405180910390fd5b816000036101ff576040516322ed598560e21b815260040160405180910390fd5b600061020c8360026110ab565b9050600061021982610310565b9050600061022f6713a04bbdfdc9be8883610591565b905061023a81611198565b95945050505050565b600080671bc16d674ec800008361025981611198565b61026391906110ab565b61026d91906110f1565b9050610278816105a6565b90506722c955229554c1b6610295670de0b6b3a7640000836110ab565b61029f91906110f1565b9392505050565b6000816000036102b857506000919050565b600060026102c78460016111b4565b6102d191906111c7565b90508291505b8181101561030a579050806002816102ef81866111c7565b6102f991906111b4565b61030391906111c7565b90506102d7565b50919050565b6000808212806103275750671bc16d674ec8000082135b1561034557604051632d0483c560e21b815260040160405180910390fd5b81600003610366576040516307a0212760e01b815260040160405180910390fd5b81671bc16d674ec800000361038e576040516322ed598560e21b815260040160405180910390fd5b801561039957919050565b6000670de0b6b3a764000083126103c1576103bc83671bc16d674ec80000611147565b6103c3565b825b905060006103d982671bc16d674ec80000610765565b9050806000036103fc576040516307a0212760e01b815260040160405180910390fd5b60006104078261077a565b90506000633b9aca0061043261042d610427671bc16d674ec80000611198565b85610591565b610933565b61043c91906110ab565b9050600080610453836703c1665c7aab2000610591565b61046590672005fe4f268ea00061111f565b905060006104958461047e81669f32752462a000610591565b61049090670dc5527f642c200061111f565b610591565b6104a790670de0b6b3a764000061111f565b90506104cb6709d028cc6f205fff19856104c18585610765565b6104909190611147565b9250505060005b6002811015610566576000866104e7846109d7565b6104f19190611147565b905060006104ff8480610591565b61050890611198565b90506000610515826105a6565b905060006105238685610591565b610535670fa8cedfc2adddfa84610591565b61053f9190611147565b905061054b8482610765565b610555908761111f565b9550846001019450505050506104d2565b670de0b6b3a764000088126105835761057e82611198565b610585565b815b98975050505050505050565b600061029f8383670de0b6b3a7640000610bbc565b6000680248ce36a70cb26b3e1982136105c157506000919050565b680755bf798b4a1bf1e5821261060d5760405162461bcd60e51b815260206004820152600c60248201526b4558505f4f564552464c4f5760a01b60448201526064015b60405180910390fd5b6503782dace9d9604e83901b059150600060606bb17217f7d1cf79abc9e3b39884821b056b80000000000000000000000001901d6bb17217f7d1cf79abc9e3b39881029093036c240c330e9fb2d9cbaf0fd5aafb1981018102606090811d6d0277594991cfc85f6e2461837cd9018202811d6d1a521255e34f6a5061b25ef1c9c319018202811d6db1bbb201f443cf962f1a1d3db4a5018202811d6e02c72388d9f74f51a9331fed693f1419018202811d6e05180bb14799ab47a8a8cb2a527d57016d02d16720577bd19bf614176fe9ea6c10fe68e7fd37d0007b713f765084018402831d9081019084016d01d3967ed30fc4f89c02bab5708119010290911d6e0587f503bb6ea29d25fcb7401964500190910279d835ebba824c98fb31b83b2ca45c000000000000000000000000010574029d9dc38563c32e5c2f6dc192ee70ef65f9978af30260c3939093039290921c92915050565b600061029f83670de0b6b3a764000084610bbc565b600080821361079b5760405162461bcd60e51b8152600401610604906111db565b600060606107a884610bdb565b03609f8181039490941b90931c6c465772b2bbbb5f824b15207a3081018102606090811d6d0388eaa27412d5aca026815d636e018202811d6d0df99ac502031bf953eff472fdcc018202811d6d13cdffb29d51d99322bdff5f2211018202811d6d0a0f742023def783a307a986912e018202811d6d01920d8043ca89b5239253284e42018202811d6c0b7a86d7375468fac667a0a527016c29508e458543d8aa4df2abee7883018302821d6d0139601a2efabe717e604cbb4894018302821d6d02247f7a7b6594320649aa03aba1018302821d6c8c3f38e95a6b1ff2ab1c3b343619018302821d6d02384773bdf1ac5676facced60901901830290911d6cb9a025d814b29c212b8b1a07cd190190910260016c0504a838426634cdd8738f543560611b03190105711340daa0d5f769dba1915cef59f0815a5506027d0267a36c0c95b3975ab3ee5b203a7614a3f75373f047d803ae7b6687f2b393909302929092017d57115e47018c7177eebf7cd370a3356a1b7863008a5ae8028c72b88642840160ae1d92915050565b60b581600160881b811061094c5760409190911b9060801c5b690100000000000000000081106109685760209190911b9060401c5b6501000000000081106109805760109190911b9060201c5b630100000081106109965760089190911b9060101c5b62010000010260121c80820401600190811c80830401811c80830401811c80830401811c80830401811c80830401811c80830401901c908190048111900390565b6000816000036109f05750670de0b6b3a7640000919050565b675698eef0667000008212610a0757506000919050565b610a18675698eef066700000611198565b8213610a2d5750671bc16d674ec80000919050565b6000610a3883610c5d565b90506000610a71670de0b6b3a7640000610a5a84671bc16d674ec80000610c9c565b610a6c90670de0b6b3a764000061111f565b610765565b905060008082610acd81610aba81610aa881610a958167025f0fe105a31400610591565b61049090670b68df18e471fbff1961111f565b610490906714a8454c19e1ac0061111f565b61049090670fc10e01578277ff1961111f565b610adf906703debd083b8c7c0061111f565b9150839050610b4781610b3581610b2381610b1181610afe818b610591565b61049090670295d400ea3257ff1961111f565b61049090670157d8b2ecc7080061111f565b610490906705310aa7d521300061111f565b61049090670de0cc3d1561000061111f565b91508167119000ab100ffc00610b5d8780610591565b610b69906000196110ab565b610b739190611147565b610b7d919061111f565b925060009050610b8c836105a6565b90506000610b9a8583610591565b905060008812610baa5780610585565b61058581671bc16d674ec80000611147565b828202811515841585830585141716610bd457600080fd5b0592915050565b6000808211610bfc5760405162461bcd60e51b8152600401610604906111db565b5060016001600160801b03821160071b82811c6001600160401b031060061b1782811c63ffffffff1060051b1782811c61ffff1060041b1782811c60ff10600390811b90911783811c600f1060021b1783811c909110821b1791821c111790565b6000600160ff1b8203610c8357604051634d2d75b160e01b815260040160405180910390fd5b6000821215610c9457501960010190565b50805b919050565b600061029f83670de0b6b3a764000084610cb7565b92915050565b828202811515841585830485141716610ccf57600080fd5b0492915050565b80516001600160a01b0381168114610c9757600080fd5b634e487b7160e01b600052604160045260246000fd5b60405161014081016001600160401b0381118282101715610d2657610d26610ced565b60405290565b604051601f8201601f191681016001600160401b0381118282101715610d5457610d54610ced565b604052919050565b805160048110610c9757600080fd5b805161ffff81168114610c9757600080fd5b600082601f830112610d8e57600080fd5b81516001600160401b03811115610da757610da7610ced565b610dba601f8201601f1916602001610d2c565b818152846020838601011115610dcf57600080fd5b60005b82811015610dee57602081860181015183830182015201610dd2565b506000918101602001919091529392505050565b80516001600160401b0381168114610c9757600080fd5b60008060408385031215610e2c57600080fd5b610e3583610cd6565b60208401519092506001600160401b03811115610e5157600080fd5b83016101408186031215610e6457600080fd5b610e6c610d03565b610e7582610d5c565b8152610e8360208301610cd6565b6020820152610e9460408301610cd6565b6040820152610ea560608301610cd6565b6060820152610eb660808301610d6b565b608082015260a08201516001600160401b03811115610ed457600080fd5b610ee087828501610d7d565b60a08301525060c08201516001600160401b03811115610eff57600080fd5b610f0b87828501610d7d565b60c083015250610f1d60e08301610d6b565b60e0820152610f2f6101008301610d6b565b610100820152610f426101208301610e02565b61012082015280925050509250929050565b600181811c90821680610f6857607f821691505b60208210810361030a57634e487b7160e01b600052602260045260246000fd5b601f821115610fd257806000526020600020601f840160051c81016020851015610faf5750805b601f840160051c820191505b81811015610fcf5760008155600101610fbb565b50505b505050565b81516001600160401b03811115610ff057610ff0610ced565b61100481610ffe8454610f54565b84610f88565b6020601f82116001811461103857600083156110205750848201515b600019600385901b1c1916600184901b178455610fcf565b600084815260208120601f198516915b828110156110685787850151825560209485019460019092019101611048565b50848210156110865786840151600019600387901b60f8161c191681555b50505050600190811b01905550565b634e487b7160e01b600052601160045260246000fd5b80820260008212600160ff1b841416156110c7576110c7611095565b8181058314821517610cb157610cb1611095565b634e487b7160e01b600052601260045260246000fd5b600082611100576111006110db565b600160ff1b82146000198414161561111a5761111a611095565b500590565b808201828112600083128015821682158216171561113f5761113f611095565b505092915050565b818103600083128015838313168383128216171561116757611167611095565b5092915050565b81810381811115610cb157610cb1611095565b8082028115828204841417610cb157610cb1611095565b6000600160ff1b82016111ad576111ad611095565b5060000390565b80820180821115610cb157610cb1611095565b6000826111d6576111d66110db565b500490565b60208082526009908201526815539111519253915160ba1b604082015260600190565b60805160a05160c05160e0516101005161012051612bd16112fc600039600081816106a201528181611619015281816116b201526116d901526000818161034101528181610ac401528181610c88015261128601526000818161066e01528181610c6601526112ba01526000818161050b0152818161085501528181610a3b01528181610ff10152818161159e015281816116900152818161199c01528181611b590152611c9d0152600081816102d3015281816107cf01528181610b0401528181610caa0152818161104e015281816110b601528181611122015261177201526000818161047d0152818161108201526110e90152612bd16000f3fe6080604052600436106101ae5760003560e01c806301a9812c146101ba57806301c11d96146101dc5780630bede3f81461021057806316953f021461023057806323341a051461025457806327793f871461028157806327c7ff61146102ab57806337ba682d146102c15780633fad9ae01461030d5780634d77532d1461032f5780634e71d92d14610370578063539aa77f14610385578063587f5ed7146103ad5780635b7c2dad146103c35780636015e924146104405780636454c98a14610456578063687d70e31461046b5780637284e4161461049f57806373b2e80e146104b457806377678414146104e457806382bfefc8146104f957806393d0cbb81461052d57806399839d661461055b5780639fb2fff414610571578063a8910e1114610586578063b5545a3c146105a6578063b6d74ca1146105bb578063c19d93fb146105dd578063c87965721461060b578063d12f702914610620578063de2546591461063c578063e4fbb6091461065c578063ebd0905414610690578063ee26eed1146106c4578063f3e41e901461070d578063fc4b6b5014610732578063ff0eccf61461074857600080fd5b366101b557005b600080fd5b3480156101c657600080fd5b506101da6101d53660046126bf565b61075e565b005b3480156101e857600080fd5b506101f8670de0b6b3a764000081565b60405160079190910b81526020015b60405180910390f35b34801561021c57600080fd5b506101da61022b3660046126f2565b610ab9565b34801561023c57600080fd5b5061024660075481565b604051908152602001610207565b34801561026057600080fd5b50610269610c3d565b6040516102079c9b9a9998979695949392919061278b565b34801561028d57600080fd5b5060055461029b9060ff1681565b6040519015158152602001610207565b3480156102b757600080fd5b5061024660085481565b3480156102cd57600080fd5b506102f57f000000000000000000000000000000000000000000000000000000000000000081565b6040516001600160601b039091168152602001610207565b34801561031957600080fd5b50610322610e36565b6040516102079190612833565b34801561033b57600080fd5b506103637f000000000000000000000000000000000000000000000000000000000000000081565b6040516102079190612846565b34801561037c57600080fd5b50610246610ec4565b34801561039157600080fd5b5061039a600a81565b60405161ffff9091168152602001610207565b3480156103b957600080fd5b5061024660095481565b3480156103cf57600080fd5b506104256103de36600461285a565b6040805180820190915260008082526020820152506001600160a01b03166000908152600a6020908152604091829020825180840190935280548352600101549082015290565b60408051825181526020928301519281019290925201610207565b34801561044c57600080fd5b5061039a61271081565b34801561046257600080fd5b50610246611049565b34801561047757600080fd5b5061039a7f000000000000000000000000000000000000000000000000000000000000000081565b3480156104ab57600080fd5b50610322611113565b3480156104c057600080fd5b5061029b6104cf36600461285a565b600b6020526000908152604090205460ff1681565b3480156104f057600080fd5b506101da611120565b34801561050557600080fd5b506103637f000000000000000000000000000000000000000000000000000000000000000081565b34801561053957600080fd5b5061054d610548366004612883565b6111bd565b6040516102079291906128ad565b34801561056757600080fd5b5061024660005481565b34801561057d57600080fd5b506101da61127b565b34801561059257600080fd5b5061054d6105a1366004612883565b6113be565b3480156105b257600080fd5b50610246611478565b3480156105c757600080fd5b506105d06115f8565b60405161020791906128cb565b3480156105e957600080fd5b506002546105fe90600160681b900460ff1681565b60405161020791906128e2565b34801561061757600080fd5b506101da61160e565b34801561062c57600080fd5b506101f86706f05b59d3b2000081565b34801561064857600080fd5b506101da6106573660046126bf565b611732565b34801561066857600080fd5b506103637f000000000000000000000000000000000000000000000000000000000000000081565b34801561069c57600080fd5b506103637f000000000000000000000000000000000000000000000000000000000000000081565b3480156106d057600080fd5b506106f86106df36600461285a565b600a602052600090815260409020805460019091015482565b60408051928352602083019190915201610207565b34801561071957600080fd5b506002546102f59061010090046001600160601b031681565b34801561073e57600080fd5b5061024660015481565b34801561075457600080fd5b5061024660065481565b60025460ff161561078257604051630377510360e51b815260040160405180910390fd5b6002805460ff191660011790556000600254600160681b900460ff1660038111156107af576107af612753565b146107cd5760405163032bd25960e41b815260040160405180910390fd5b7f00000000000000000000000000000000000000000000000000000000000000006001600160601b031642106108165760405163032bd25960e41b815260040160405180910390fd5b6000805413158061082a5750600060015413155b15610848576040516398cf49f960e01b815260040160405180910390fd5b61087d6001600160a01b037f000000000000000000000000000000000000000000000000000000000000000016333085611a0e565b610885612695565b600080600086156108fc576108986115f8565b51336000908152600a60205260408120805492955087929091906108bd908490612906565b909155506108ce9050600186611a4a565b905084600760008282546108e29190612906565b909155506108f090506115f8565b8051909450915061096d565b6109046115f8565b602090810151336000908152600a90925260408220600101805491955087929091610930908490612906565b909155506109419050600186611aca565b905084600860008282546109559190612906565b9091555061096390506115f8565b9350836020015191505b6000671bc16d674ec80000866109838587612919565b61098d9190612941565b6109979190612987565b905060006109a482611b4c565b9050878111156109c75760405163b9cfdbd760e01b815260040160405180910390fd5b60006109d3828a6129b5565b9050600060646109e4600a856129c8565b6109ee91906129df565b90508060096000828254610a029190612906565b9091555060009050610a1482856129b5565b90508060066000828254610a289190612906565b90915550610a6290506001600160a01b037f0000000000000000000000000000000000000000000000000000000000000000163385611bfe565b604080518b8152602081018690528d15159133917fe417997ad0a1c7dd102d3158fdf23af437ae25ed1926b1b069dc8e436fd16fb6910160405180910390a350506002805460ff1916905550505050505050505050565b336001600160a01b037f00000000000000000000000000000000000000000000000000000000000000001614610b02576040516346f8307960e11b815260040160405180910390fd5b7f00000000000000000000000000000000000000000000000000000000000000006001600160601b0316421015610b4c5760405163dbbd737760e01b815260040160405180910390fd5b60028054600160681b900460ff166003811115610b6b57610b6b612753565b03610b895760405163d3c2781360e01b815260040160405180910390fd5b6003600254600160681b900460ff166003811115610ba957610ba9612753565b03610bc657604051628ed02f60e21b815260040160405180910390fd5b6005805482151560ff199091168117909155600280546001600160601b034290811661010002610100600160701b031990921691909117600160691b179091556040519081527ff680d0bd10cbd56c6089965028487f8751c5e7485ee076c45e809af3357408b3906020015b60405180910390a250565b606080600080600080600080610c51612695565b600254600554600091829182916003916004917f0000000000000000000000000000000000000000000000000000000000000000917f0000000000000000000000000000000000000000000000000000000000000000917f0000000000000000000000000000000000000000000000000000000000000000916001600160601b036101008304169160ff600160681b90910481169116610cef6115f8565b6000546001546006548b8054610d04906129f3565b80601f0160208091040260200160405190810160405280929190818152602001828054610d30906129f3565b8015610d7d5780601f10610d5257610100808354040283529160200191610d7d565b820191906000526020600020905b815481529060010190602001808311610d6057829003601f168201915b50505050509b508a8054610d90906129f3565b80601f0160208091040260200160405190810160405280929190818152602001828054610dbc906129f3565b8015610e095780601f10610dde57610100808354040283529160200191610e09565b820191906000526020600020905b815481529060010190602001808311610dec57829003601f168201915b50505050509a509b509b509b509b509b509b509b509b509b509b509b509b50909192939495969798999a9b565b60038054610e43906129f3565b80601f0160208091040260200160405190810160405280929190818152602001828054610e6f906129f3565b8015610ebc5780601f10610e9157610100808354040283529160200191610ebc565b820191906000526020600020905b815481529060010190602001808311610e9f57829003601f168201915b505050505081565b600060028054600160681b900460ff166003811115610ee557610ee5612753565b14610f0357604051631f5fa88f60e01b815260040160405180910390fd5b336000908152600b602052604090205460ff1615610f34576040516372335eed60e11b815260040160405180910390fd5b336000908152600a60209081526040808320815180830190925280548252600101549181019190915260055490919060ff16610f74578160200151610f77565b81515b905080600003610f9a576040516335ff3c3d60e01b815260040160405180910390fd5b60055460009060ff16610faf57600854610fb3565b6007545b90508060065483610fc491906129c8565b610fce91906129df565b336000818152600b60205260409020805460ff19166001179055909450611020907f00000000000000000000000000000000000000000000000000000000000000006001600160a01b03169086611bfe565b6040518481523390600080516020612b7c8339815191529060200160405180910390a250505090565b6000427f00000000000000000000000000000000000000000000000000000000000000006001600160601b031610156110a5575061ffff7f00000000000000000000000000000000000000000000000000000000000000001690565b6110e06110db426001600160601b037f0000000000000000000000000000000000000000000000000000000000000000166129b5565b611c2f565b61110e9061ffff7f0000000000000000000000000000000000000000000000000000000000000000166129c8565b905090565b60048054610e43906129f3565b7f00000000000000000000000000000000000000000000000000000000000000006001600160601b031642101561116a5760405163dbbd737760e01b815260040160405180910390fd5b6000600254600160681b900460ff16600381111561118a5761118a612753565b146111a857604051636adca94f60e11b815260040160405180910390fd5b6002805460ff60681b1916600160681b179055565b60006111c7612695565b600060646111d6600a866129c8565b6111e091906129df565b6111ea90856129b5565b905060006111f782611c99565b9050600086611211576112086115f8565b6020015161121b565b6112196115f8565b515b90508061123083670de0b6b3a76400006129c8565b61123a91906129df565b9450600080886112545761124f600188611d3a565b61125f565b61125f600188611da2565b9150915061126d8282611e0b565b955050505050509250929050565b336001600160a01b037f000000000000000000000000000000000000000000000000000000000000000016148015906112dd5750336001600160a01b037f00000000000000000000000000000000000000000000000000000000000000001614155b156112fb576040516346f8307960e11b815260040160405180910390fd5b6001600254600160681b900460ff16600381111561131b5761131b612753565b036113395760405163032bd25960e41b815260040160405180910390fd5b60028054600160681b900460ff16600381111561135857611358612753565b036113765760405163d3c2781360e01b815260040160405180910390fd5b6002805460ff60681b1916600360681b1790556040805142815290517f779930c12b48b4572593a312874338451f0d7aac5b8892b4503694a25cbcdb4e9181900360200190a1565b60006113c8612695565b6000846113e0576113d76115f8565b602001516113ea565b6113e86115f8565b515b905060008086611404576113ff600087611d3a565b61140f565b61140f600087611da2565b9150915061141d8282611e0b565b9350600087611430578460200151611433565b84515b90506000671bc16d674ec800008861144b8785612919565b6114559190612941565b61145f9190612987565b905061146a81611b4c565b965050505050509250929050565b60006003600254600160681b900460ff16600381111561149a5761149a612753565b146114b85760405163395a1d9560e01b815260040160405180910390fd5b336000908152600b602052604090205460ff16156114e9576040516372335eed60e11b815260040160405180910390fd5b336000908152600a6020908152604091829020825180840190935280548084526001909101549183018290529081158015611522575080155b15611540576040516335ff3c3d60e01b815260040160405180910390fd5b600061154c8284612906565b905060006008546007546115609190612906565b9050806006548361157191906129c8565b61157b91906129df565b336000818152600b60205260409020805460ff191660011790559096506115cd907f00000000000000000000000000000000000000000000000000000000000000006001600160a01b03169088611bfe565b6040518681523390600080516020612b7c8339815191529060200160405180910390a2505050505090565b611600612695565b61110e600054600154611e0b565b336001600160a01b037f00000000000000000000000000000000000000000000000000000000000000001614611657576040516346f8307960e11b815260040160405180910390fd5b60095460000361167a576040516343e7541560e11b815260040160405180910390fd5b6009805460009091556116d76001600160a01b037f0000000000000000000000000000000000000000000000000000000000000000167f000000000000000000000000000000000000000000000000000000000000000083611bfe565b7f00000000000000000000000000000000000000000000000000000000000000006001600160a01b03167f9dc46f23cfb5ddcad0ae7ea2be38d47fec07bb9382ec7e564efc69e036dd66ce82604051610c3291815260200190565b6000600254600160681b900460ff16600381111561175257611752612753565b146117705760405163032bd25960e41b815260040160405180910390fd5b7f00000000000000000000000000000000000000000000000000000000000000006001600160601b031642106117b95760405163032bd25960e41b815260040160405180910390fd5b816000036117da5760405163655cf03160e11b815260040160405180910390fd5b6000836117f957336000908152600a602052604090206001015461180a565b336000908152600a60205260409020545b90508281101561182d5760405163e0f467cf60e01b815260040160405180910390fd5b611835612695565b600080600087156118ac576118486115f8565b51336000908152600a602052604081208054929550899290919061186d9084906129b5565b9091555061187e9050600088611a4a565b9050866007600082825461189291906129b5565b909155506118a090506115f8565b8051909450915061191d565b6118b46115f8565b602090810151336000908152600a909252604082206001018054919550899290916118e09084906129b5565b909155506118f19050600088611aca565b9050866008600082825461190591906129b5565b9091555061191390506115f8565b9350836020015191505b6000671bc16d674ec80000886119338587612919565b61193d9190612941565b6119479190612987565b9050600061195482611b4c565b90508781101561197757604051630135e15560e51b815260040160405180910390fd5b806006600082825461198991906129b5565b909155506119c390506001600160a01b037f0000000000000000000000000000000000000000000000000000000000000000163383611bfe565b604080518a8152602081018390528b15159133917f6ef2400e3559d8a9ff41d96e963ff23b7be0270529ffea64fee0747fb7f29e85910160405180910390a350505050505050505050565b611a1c848484846001611e75565b611a445783604051635274afe760e01b8152600401611a3b9190612846565b60405180910390fd5b50505050565b6000828015611a5a575060005482135b15611a78576040516307c8cddf60e51b815260040160405180910390fd5b600080611a858585611da2565b935091508290508185158015611a9c575060008413155b15611aba5760405163a1704e8d60e01b815260040160405180910390fd5b6000555050600181905592915050565b6000828015611ada575060015482135b15611af857604051633abbf21d60e21b815260040160405180910390fd5b600080611b058585611d3a565b90935083925090508085158015611b1d575060008413155b15611b3b57604051631687a81f60e31b815260040160405180910390fd5b600084905560015550909392505050565b6000670de0b6b3a76400007f00000000000000000000000000000000000000000000000000000000000000006001600160a01b031663313ce5676040518163ffffffff1660e01b8152600401602060405180830381865afa158015611bb5573d6000803e3d6000fd5b505050506040513d601f19601f82011682018060405250810190611bd99190612a27565b611be490600a612b29565b611bee90846129c8565b611bf891906129df565b92915050565b611c0b8383836001611ee7565b611c2a5782604051635274afe760e01b8152600401611a3b9190612846565b505050565b600081600003611c4157506000919050565b60006002611c50846001612906565b611c5a91906129df565b90508291505b81811015611c9357905080600281611c7881866129df565b611c829190612906565b611c8c91906129df565b9050611c60565b50919050565b60007f00000000000000000000000000000000000000000000000000000000000000006001600160a01b031663313ce5676040518163ffffffff1660e01b8152600401602060405180830381865afa158015611cf9573d6000803e3d6000fd5b505050506040513d601f19601f82011682018060405250810190611d1d9190612a27565b611d2890600a612b29565b611bee83670de0b6b3a76400006129c8565b6000806000611d47611049565b905084611d615783600154611d5c9190612919565b611d6f565b83600154611d6f9190612b38565b6000805491935080611d82838686611f4d565b91509150611d95611fc383838888611fdc565b9550505050509250929050565b6000806000611daf611049565b905084611dc95783600054611dc49190612919565b611dd7565b83600054611dd79190612b38565b600154909350600080611deb83878661203f565b91509150611dfe611fc3838389886120a3565b9450505050509250929050565b611e13612695565b6000611e1d611049565b9050600081611e2c8686612b38565b611e369190612987565b90506000611e43826120fb565b90506000611e5982670de0b6b3a7640000612b38565b6040805180820190915292835260208301525095945050505050565b6040516323b872dd60e01b60008181526001600160a01b038781166004528616602452604485905291602083606481808c5af192506001600051148316611ed5578383151615611ec8573d6000823e3d81fd5b6000883b113d1516831692505b60405250600060605295945050505050565b60405163a9059cbb60e01b60008181526001600160a01b038616600452602485905291602083604481808b5af192506001600051148316611f41578383151615611f34573d6000823e3d81fd5b6000873b113d1516831692505b60405250949350505050565b6000808080808069010f0cf064dd59200000895b82611f87576000611f73828c8c61216d565b129250611f808282612919565b9050611f61565b8094505b83611fb157611f9a8282612b38565b90506000611fa9828c8c61216d565b139350611f8b565b9650929450505050505b935093915050565b600080611fd185858561216d565b1290505b9392505050565b83620186a0845b81611fee8483612b38565b131561203457600060026120028584612919565b61200c9190612987565b905061201d8187878c63ffffffff16565b1561202a5780915061202e565b8093505b50611fe3565b505095945050505050565b6000808080808069010f0cf064dd59200000895b826120795760006120658b838c61216d565b1292506120728282612919565b9050612053565b8094505b83611fb15761208c8282612b38565b9050600061209b8b838c61216d565b13935061207d565b83620186a0845b816120b58483612b38565b131561203457600060026120c98584612919565b6120d39190612987565b90506120e48682878c63ffffffff16565b156120f1578091506120f5565b8093505b506120aa565b6000806713a04bbdfdc9be88612119670de0b6b3a764000085612941565b6121239190612987565b9050600061213082612b5f565b9050600061213d826121df565b9050671bc16d674ec8000061215a670de0b6b3a764000083612941565b6121649190612987565b95945050505050565b6000808261217b8686612b38565b6121859190612987565b905083612191826123d4565b61219b9085612941565b670de0b6b3a76400006121ad846120fb565b6121b78989612b38565b6121c19190612941565b6121cb9190612987565b6121d59190612919565b6121649190612b38565b6000816000036121f85750670de0b6b3a7640000919050565b675698eef066700000821261220f57506000919050565b612220675698eef066700000612b5f565b82136122355750671bc16d674ec80000919050565b600061224083612430565b90506000612279670de0b6b3a764000061226284671bc16d674ec8000061246f565b61227490670de0b6b3a7640000612919565b612484565b9050600080826122da816122c7816122b58161229d8167025f0fe105a31400612499565b6122b090670b68df18e471fbff19612919565b612499565b6122b0906714a8454c19e1ac00612919565b6122b090670fc10e01578277ff19612919565b6122ec906703debd083b8c7c00612919565b915083905061235481612342816123308161231e8161230b818b612499565b6122b090670295d400ea3257ff19612919565b6122b090670157d8b2ecc70800612919565b6122b0906705310aa7d5213000612919565b6122b090670de0cc3d15610000612919565b91508167119000ab100ffc0061236a8788612499565b61237690600019612941565b6123809190612b38565b61238a9190612919565b9250506000612398836124ae565b905060006123a68583612499565b9050600088126123b657806123c8565b6123c881671bc16d674ec80000612b38565b98975050505050505050565b600080671bc16d674ec80000836123ea81612b5f565b6123f49190612941565b6123fe9190612987565b9050612409816124ae565b90506722c955229554c1b6612426670de0b6b3a764000083612941565b611fd59190612987565b6000600160ff1b820361245657604051634d2d75b160e01b815260040160405180910390fd5b600082121561246757501960010190565b50805b919050565b6000611fd583670de0b6b3a764000084612657565b6000611fd583670de0b6b3a764000084612676565b6000611fd58383670de0b6b3a7640000612676565b6000680248ce36a70cb26b3e1982136124c957506000919050565b680755bf798b4a1bf1e582126125105760405162461bcd60e51b815260206004820152600c60248201526b4558505f4f564552464c4f5760a01b6044820152606401611a3b565b6503782dace9d9604e83901b059150600060606bb17217f7d1cf79abc9e3b39884821b056001605f1b01901d6bb17217f7d1cf79abc9e3b39881029093036c240c330e9fb2d9cbaf0fd5aafb1981018102606090811d6d0277594991cfc85f6e2461837cd9018202811d6d1a521255e34f6a5061b25ef1c9c319018202811d6db1bbb201f443cf962f1a1d3db4a5018202811d6e02c72388d9f74f51a9331fed693f1419018202811d6e05180bb14799ab47a8a8cb2a527d57016d02d16720577bd19bf614176fe9ea6c10fe68e7fd37d0007b713f765084018402831d9081019084016d01d3967ed30fc4f89c02bab5708119010290911d6e0587f503bb6ea29d25fcb740196450019091026d360d7aeea093263ecc6e0ecb291760621b010574029d9dc38563c32e5c2f6dc192ee70ef65f9978af30260c3939093039290921c92915050565b82820281151584158583048514171661266f57600080fd5b0492915050565b82820281151584158583058514171661268e57600080fd5b0592915050565b604051806040016040528060008152602001600081525090565b8035801515811461246a57600080fd5b6000806000606084860312156126d457600080fd5b6126dd846126af565b95602085013595506040909401359392505050565b60006020828403121561270457600080fd5b611fd5826126af565b6000815180845260005b8181101561273357602081850181015186830182015201612717565b506000602082860101526020601f19601f83011685010191505092915050565b634e487b7160e01b600052602160045260246000fd5b6004811061278757634e487b7160e01b600052602160045260246000fd5b9052565b6101a0815260006127a06101a083018f61270d565b82810360208401526127b2818f61270d565b6001600160a01b038e811660408601528d1660608501526001600160601b038c811660808601528b1660a085015291506127e99050565b6127f660c0830189612769565b95151560e0820152845161010082015260209094015161012085015261014084019290925261016083015261018090910152979650505050505050565b602081526000611fd5602083018461270d565b6001600160a01b0391909116815260200190565b60006020828403121561286c57600080fd5b81356001600160a01b0381168114611fd557600080fd5b6000806040838503121561289657600080fd5b61289f836126af565b946020939093013593505050565b82815260608101611fd5602083018480518252602090810151910152565b815181526020808301519082015260408101611bf8565b60208101611bf88284612769565b634e487b7160e01b600052601160045260246000fd5b80820180821115611bf857611bf86128f0565b8082018281126000831280158216821582161715612939576129396128f0565b505092915050565b80820260008212600160ff1b8414161561295d5761295d6128f0565b8181058314821517611bf857611bf86128f0565b634e487b7160e01b600052601260045260246000fd5b60008261299657612996612971565b600160ff1b8214600019841416156129b0576129b06128f0565b500590565b81810381811115611bf857611bf86128f0565b8082028115828204841417611bf857611bf86128f0565b6000826129ee576129ee612971565b500490565b600181811c90821680612a0757607f821691505b602082108103611c9357634e487b7160e01b600052602260045260246000fd5b600060208284031215612a3957600080fd5b815160ff81168114611fd557600080fd5b6001815b6001841115611fbb57808504811115612a6957612a696128f0565b6001841615612a7757908102905b60019390931c928002612a4e565b600082612a9457506001611bf8565b81612aa157506000611bf8565b8160018114612ab75760028114612ac157612add565b6001915050611bf8565b60ff841115612ad257612ad26128f0565b50506001821b611bf8565b5060208310610133831016604e8410600b8410161715612b00575081810a611bf8565b612b0d6000198484612a4a565b8060001904821115612b2157612b216128f0565b029392505050565b6000611fd560ff841683612a85565b8181036000831280158383131683831282161715612b5857612b586128f0565b5092915050565b6000600160ff1b8201612b7457612b746128f0565b506000039056fe1a31e733a172afcf46074b3106c17f0c298e226442682a03c1e99ce256139ec2a2646970667358221220455b8c69d18b5b015800328de56af639a8890365fa3bdf9b2927db49c7545e0164736f6c634300081c0033",
  "linkReferences": {},
  "deployedLinkReferences": {}
}